{
  "contractName": "ERC20TobyToken",
  "abi": [
    {
      "constant": true,
      "inputs": [],
      "name": "mintingFinished",
      "outputs": [
        {
          "name": "",
          "type": "bool"
        }
      ],
      "payable": false,
      "stateMutability": "view",
      "type": "function"
    },
    {
      "constant": true,
      "inputs": [],
      "name": "name",
      "outputs": [
        {
          "name": "",
          "type": "string"
        }
      ],
      "payable": false,
      "stateMutability": "view",
      "type": "function"
    },
    {
      "constant": false,
      "inputs": [
        {
          "name": "spender",
          "type": "address"
        },
        {
          "name": "value",
          "type": "uint256"
        }
      ],
      "name": "approve",
      "outputs": [
        {
          "name": "",
          "type": "bool"
        }
      ],
      "payable": false,
      "stateMutability": "nonpayable",
      "type": "function"
    },
    {
      "constant": true,
      "inputs": [],
      "name": "totalSupply",
      "outputs": [
        {
          "name": "",
          "type": "uint256"
        }
      ],
      "payable": false,
      "stateMutability": "view",
      "type": "function"
    },
    {
      "constant": false,
      "inputs": [
        {
          "name": "from",
          "type": "address"
        },
        {
          "name": "to",
          "type": "address"
        },
        {
          "name": "value",
          "type": "uint256"
        }
      ],
      "name": "transferFrom",
      "outputs": [
        {
          "name": "",
          "type": "bool"
        }
      ],
      "payable": false,
      "stateMutability": "nonpayable",
      "type": "function"
    },
    {
      "constant": true,
      "inputs": [],
      "name": "decimals",
      "outputs": [
        {
          "name": "",
          "type": "uint8"
        }
      ],
      "payable": false,
      "stateMutability": "view",
      "type": "function"
    },
    {
      "constant": false,
      "inputs": [
        {
          "name": "spender",
          "type": "address"
        },
        {
          "name": "addedValue",
          "type": "uint256"
        }
      ],
      "name": "increaseAllowance",
      "outputs": [
        {
          "name": "success",
          "type": "bool"
        }
      ],
      "payable": false,
      "stateMutability": "nonpayable",
      "type": "function"
    },
    {
      "constant": false,
      "inputs": [],
      "name": "unpause",
      "outputs": [],
      "payable": false,
      "stateMutability": "nonpayable",
      "type": "function"
    },
    {
      "constant": false,
      "inputs": [
        {
          "name": "to",
          "type": "address"
        },
        {
          "name": "amount",
          "type": "uint256"
        }
      ],
      "name": "mint",
      "outputs": [
        {
          "name": "",
          "type": "bool"
        }
      ],
      "payable": false,
      "stateMutability": "nonpayable",
      "type": "function"
    },
    {
      "constant": false,
      "inputs": [
        {
          "name": "value",
          "type": "uint256"
        }
      ],
      "name": "burn",
      "outputs": [],
      "payable": false,
      "stateMutability": "nonpayable",
      "type": "function"
    },
    {
      "constant": true,
      "inputs": [
        {
          "name": "account",
          "type": "address"
        }
      ],
      "name": "isPauser",
      "outputs": [
        {
          "name": "",
          "type": "bool"
        }
      ],
      "payable": false,
      "stateMutability": "view",
      "type": "function"
    },
    {
      "constant": true,
      "inputs": [],
      "name": "paused",
      "outputs": [
        {
          "name": "",
          "type": "bool"
        }
      ],
      "payable": false,
      "stateMutability": "view",
      "type": "function"
    },
    {
      "constant": false,
      "inputs": [],
      "name": "renouncePauser",
      "outputs": [],
      "payable": false,
      "stateMutability": "nonpayable",
      "type": "function"
    },
    {
      "constant": true,
      "inputs": [
        {
          "name": "owner",
          "type": "address"
        }
      ],
      "name": "balanceOf",
      "outputs": [
        {
          "name": "",
          "type": "uint256"
        }
      ],
      "payable": false,
      "stateMutability": "view",
      "type": "function"
    },
    {
      "constant": false,
      "inputs": [
        {
          "name": "from",
          "type": "address"
        },
        {
          "name": "value",
          "type": "uint256"
        }
      ],
      "name": "burnFrom",
      "outputs": [],
      "payable": false,
      "stateMutability": "nonpayable",
      "type": "function"
    },
    {
      "constant": false,
      "inputs": [],
      "name": "finishMinting",
      "outputs": [
        {
          "name": "",
          "type": "bool"
        }
      ],
      "payable": false,
      "stateMutability": "nonpayable",
      "type": "function"
    },
    {
      "constant": false,
      "inputs": [
        {
          "name": "account",
          "type": "address"
        }
      ],
      "name": "addPauser",
      "outputs": [],
      "payable": false,
      "stateMutability": "nonpayable",
      "type": "function"
    },
    {
      "constant": false,
      "inputs": [],
      "name": "pause",
      "outputs": [],
      "payable": false,
      "stateMutability": "nonpayable",
      "type": "function"
    },
    {
      "constant": true,
      "inputs": [],
      "name": "symbol",
      "outputs": [
        {
          "name": "",
          "type": "string"
        }
      ],
      "payable": false,
      "stateMutability": "view",
      "type": "function"
    },
    {
      "constant": false,
      "inputs": [
        {
          "name": "account",
          "type": "address"
        }
      ],
      "name": "addMinter",
      "outputs": [],
      "payable": false,
      "stateMutability": "nonpayable",
      "type": "function"
    },
    {
      "constant": false,
      "inputs": [],
      "name": "renounceMinter",
      "outputs": [],
      "payable": false,
      "stateMutability": "nonpayable",
      "type": "function"
    },
    {
      "constant": false,
      "inputs": [
        {
          "name": "spender",
          "type": "address"
        },
        {
          "name": "subtractedValue",
          "type": "uint256"
        }
      ],
      "name": "decreaseAllowance",
      "outputs": [
        {
          "name": "success",
          "type": "bool"
        }
      ],
      "payable": false,
      "stateMutability": "nonpayable",
      "type": "function"
    },
    {
      "constant": false,
      "inputs": [
        {
          "name": "to",
          "type": "address"
        },
        {
          "name": "value",
          "type": "uint256"
        }
      ],
      "name": "transfer",
      "outputs": [
        {
          "name": "",
          "type": "bool"
        }
      ],
      "payable": false,
      "stateMutability": "nonpayable",
      "type": "function"
    },
    {
      "constant": true,
      "inputs": [
        {
          "name": "account",
          "type": "address"
        }
      ],
      "name": "isMinter",
      "outputs": [
        {
          "name": "",
          "type": "bool"
        }
      ],
      "payable": false,
      "stateMutability": "view",
      "type": "function"
    },
    {
      "constant": true,
      "inputs": [
        {
          "name": "owner",
          "type": "address"
        },
        {
          "name": "spender",
          "type": "address"
        }
      ],
      "name": "allowance",
      "outputs": [
        {
          "name": "",
          "type": "uint256"
        }
      ],
      "payable": false,
      "stateMutability": "view",
      "type": "function"
    },
    {
      "inputs": [
        {
          "name": "name",
          "type": "string"
        },
        {
          "name": "symbol",
          "type": "string"
        },
        {
          "name": "decimals",
          "type": "uint8"
        }
      ],
      "payable": false,
      "stateMutability": "nonpayable",
      "type": "constructor"
    },
    {
      "anonymous": false,
      "inputs": [],
      "name": "MintingFinished",
      "type": "event"
    },
    {
      "anonymous": false,
      "inputs": [
        {
          "indexed": true,
          "name": "account",
          "type": "address"
        }
      ],
      "name": "MinterAdded",
      "type": "event"
    },
    {
      "anonymous": false,
      "inputs": [
        {
          "indexed": true,
          "name": "account",
          "type": "address"
        }
      ],
      "name": "MinterRemoved",
      "type": "event"
    },
    {
      "anonymous": false,
      "inputs": [],
      "name": "Paused",
      "type": "event"
    },
    {
      "anonymous": false,
      "inputs": [],
      "name": "Unpaused",
      "type": "event"
    },
    {
      "anonymous": false,
      "inputs": [
        {
          "indexed": true,
          "name": "account",
          "type": "address"
        }
      ],
      "name": "PauserAdded",
      "type": "event"
    },
    {
      "anonymous": false,
      "inputs": [
        {
          "indexed": true,
          "name": "account",
          "type": "address"
        }
      ],
      "name": "PauserRemoved",
      "type": "event"
    },
    {
      "anonymous": false,
      "inputs": [
        {
          "indexed": true,
          "name": "from",
          "type": "address"
        },
        {
          "indexed": true,
          "name": "to",
          "type": "address"
        },
        {
          "indexed": false,
          "name": "value",
          "type": "uint256"
        }
      ],
      "name": "Transfer",
      "type": "event"
    },
    {
      "anonymous": false,
      "inputs": [
        {
          "indexed": true,
          "name": "owner",
          "type": "address"
        },
        {
          "indexed": true,
          "name": "spender",
          "type": "address"
        },
        {
          "indexed": false,
          "name": "value",
          "type": "uint256"
        }
      ],
      "name": "Approval",
      "type": "event"
    }
  ],
  "bytecode": "0x60806040526007805460ff199081169091556009805490911690553480156200002757600080fd5b50604051620011e9380380620011e98339810160409081528151602080840151928401519184018051909493909301928491849184916200006e9160039186019062000116565b5081516200008490600490602085019062000116565b506005805460ff191660ff9290921691909117905550620000b79050600633640100000000620000db810262000d971704565b620000d260083364010000000062000d97620000db82021704565b505050620001bb565b600160a060020a0381161515620000f157600080fd5b600160a060020a0316600090815260209190915260409020805460ff19166001179055565b828054600181600116156101000203166002900490600052602060002090601f016020900481019282601f106200015957805160ff191683800117855562000189565b8280016001018555821562000189579182015b82811115620001895782518255916020019190600101906200016c565b50620001979291506200019b565b5090565b620001b891905b80821115620001975760008155600101620001a2565b90565b61101e80620001cb6000396000f3006080604052600436106101485763ffffffff7c010000000000000000000000000000000000000000000000000000000060003504166305d2035b811461014d57806306fdde0314610176578063095ea7b31461020057806318160ddd1461022457806323b872dd1461024b578063313ce5671461027557806339509351146102a05780633f4ba83a146102c457806340c10f19146102db57806342966c68146102ff57806346fbf68e146103175780635c975abb146103385780636ef8d66d1461034d57806370a082311461036257806379cc6790146103835780637d64bcb4146103a757806382dc1ec4146103bc5780638456cb59146103dd57806395d89b41146103f2578063983b2d56146104075780639865027514610428578063a457c2d71461043d578063a9059cbb14610461578063aa271e1a14610485578063dd62ed3e146104a6575b600080fd5b34801561015957600080fd5b506101626104cd565b604080519115158252519081900360200190f35b34801561018257600080fd5b5061018b6104d6565b6040805160208082528351818301528351919283929083019185019080838360005b838110156101c55781810151838201526020016101ad565b50505050905090810190601f1680156101f25780820380516001836020036101000a031916815260200191505b509250505060405180910390f35b34801561020c57600080fd5b50610162600160a060020a036004351660243561056c565b34801561023057600080fd5b50610239610590565b60408051918252519081900360200190f35b34801561025757600080fd5b50610162600160a060020a0360043581169060243516604435610596565b34801561028157600080fd5b5061028a6105bc565b6040805160ff9092168252519081900360200190f35b3480156102ac57600080fd5b50610162600160a060020a03600435166024356105c5565b3480156102d057600080fd5b506102d96105e2565b005b3480156102e757600080fd5b50610162600160a060020a036004351660243561063c565b34801561030b57600080fd5b506102d9600435610675565b34801561032357600080fd5b50610162600160a060020a0360043516610682565b34801561034457600080fd5b5061016261069b565b34801561035957600080fd5b506102d96106a4565b34801561036e57600080fd5b50610239600160a060020a03600435166106b7565b34801561038f57600080fd5b506102d9600160a060020a03600435166024356106d2565b3480156103b357600080fd5b506101626106e0565b3480156103c857600080fd5b506102d9600160a060020a0360043516610742565b3480156103e957600080fd5b506102d961079e565b3480156103fe57600080fd5b5061018b6107fa565b34801561041357600080fd5b506102d9600160a060020a036004351661085b565b34801561043457600080fd5b506102d96108b7565b34801561044957600080fd5b50610162600160a060020a03600435166024356108c8565b34801561046d57600080fd5b50610162600160a060020a03600435166024356108e5565b34801561049157600080fd5b50610162600160a060020a0360043516610902565b3480156104b257600080fd5b50610239600160a060020a0360043581169060243516610915565b60095460ff1690565b60038054604080516020601f60026000196101006001881615020190951694909404938401819004810282018101909252828152606093909290918301828280156105625780601f1061053757610100808354040283529160200191610562565b820191906000526020600020905b81548152906001019060200180831161054557829003601f168201915b5050505050905090565b60075460009060ff161561057f57600080fd5b6105898383610940565b9392505050565b60025490565b60075460009060ff16156105a957600080fd5b6105b48484846109be565b949350505050565b60055460ff1690565b60075460009060ff16156105d857600080fd5b6105898383610b33565b6105eb33610682565b15156105f657600080fd5b60075460ff16151561060757600080fd5b6007805460ff191690556040517fa45f47fdea8a1efdd9029a5691c7f759c32b7c698632b563573e155625d1693390600090a1565b600061064733610902565b151561065257600080fd5b60095460ff161561066257600080fd5b61066c8383610be3565b50600192915050565b61067f3382610c8d565b50565b600061069560068363ffffffff610c9716565b92915050565b60075460ff1690565b6106b560063363ffffffff610cce16565b565b600160a060020a031660009081526020819052604090205490565b6106dc8282610d05565b5050565b60006106eb33610902565b15156106f657600080fd5b60095460ff161561070657600080fd5b6009805460ff191660011790556040517fb828d9b5c78095deeeeff2eca2e5d4fe046ce3feb4c99702624a3fd384ad2dbc90600090a150600190565b61074b33610682565b151561075657600080fd5b61076760068263ffffffff610d9716565b604051600160a060020a038216907f6719d08c1888103bea251a4ed56406bd0c3e69723c8a1686e017e7bbe159b6f890600090a250565b6107a733610682565b15156107b257600080fd5b60075460ff16156107c257600080fd5b6007805460ff191660011790556040517f9e87fac88ff661f02d44f95383c817fece4bce600a3dab7a54406878b965e75290600090a1565b60048054604080516020601f60026000196101006001881615020190951694909404938401819004810282018101909252828152606093909290918301828280156105625780601f1061053757610100808354040283529160200191610562565b61086433610902565b151561086f57600080fd5b61088060088263ffffffff610d9716565b604051600160a060020a038216907f6ae172837ea30b801fbfcdd4108aa1d5bf8ff775444fd70256b44e6bf3dfc3f690600090a250565b6106b560083363ffffffff610cce16565b60075460009060ff16156108db57600080fd5b6105898383610dd1565b60075460009060ff16156108f857600080fd5b6105898383610e1c565b600061069560088363ffffffff610c9716565b600160a060020a03918216600090815260016020908152604080832093909416825291909152205490565b6000600160a060020a038316151561095757600080fd5b336000818152600160209081526040808320600160a060020a03881680855290835292819020869055805186815290519293927f8c5be1e5ebec7d5bd14f71427d1e84f3dd0314c0f7b2291e5b200ac8c7c3b925929181900390910190a350600192915050565b600160a060020a0383166000908152602081905260408120548211156109e357600080fd5b600160a060020a0384166000908152600160209081526040808320338452909152902054821115610a1357600080fd5b600160a060020a0383161515610a2857600080fd5b600160a060020a038416600090815260208190526040902054610a51908363ffffffff610efb16565b600160a060020a038086166000908152602081905260408082209390935590851681522054610a86908363ffffffff610f1216565b600160a060020a03808516600090815260208181526040808320949094559187168152600182528281203382529091522054610ac8908363ffffffff610efb16565b600160a060020a03808616600081815260016020908152604080832033845282529182902094909455805186815290519287169391927fddf252ad1be2c89b69c2b068fc378daa952ba7f163c4a11628f55a4df523b3ef929181900390910190a35060019392505050565b6000600160a060020a0383161515610b4a57600080fd5b336000908152600160209081526040808320600160a060020a0387168452909152902054610b7e908363ffffffff610f1216565b336000818152600160209081526040808320600160a060020a0389168085529083529281902085905580519485525191937f8c5be1e5ebec7d5bd14f71427d1e84f3dd0314c0f7b2291e5b200ac8c7c3b925929081900390910190a350600192915050565b600160a060020a0382161515610bf857600080fd5b600254610c0b908263ffffffff610f1216565b600255600160a060020a038216600090815260208190526040902054610c37908263ffffffff610f1216565b600160a060020a0383166000818152602081815260408083209490945583518581529351929391927fddf252ad1be2c89b69c2b068fc378daa952ba7f163c4a11628f55a4df523b3ef9281900390910190a35050565b6106dc8282610f24565b6000600160a060020a0382161515610cae57600080fd5b50600160a060020a03166000908152602091909152604090205460ff1690565b600160a060020a0381161515610ce357600080fd5b600160a060020a0316600090815260209190915260409020805460ff19169055565b600160a060020a0382166000908152600160209081526040808320338452909152902054811115610d3557600080fd5b600160a060020a0382166000908152600160209081526040808320338452909152902054610d69908263ffffffff610efb16565b600160a060020a03831660009081526001602090815260408083203384529091529020556106dc8282610c8d565b600160a060020a0381161515610dac57600080fd5b600160a060020a0316600090815260209190915260409020805460ff19166001179055565b6000600160a060020a0383161515610de857600080fd5b336000908152600160209081526040808320600160a060020a0387168452909152902054610b7e908363ffffffff610efb16565b33600090815260208190526040812054821115610e3857600080fd5b600160a060020a0383161515610e4d57600080fd5b33600090815260208190526040902054610e6d908363ffffffff610efb16565b3360009081526020819052604080822092909255600160a060020a03851681522054610e9f908363ffffffff610f1216565b600160a060020a038416600081815260208181526040918290209390935580518581529051919233927fddf252ad1be2c89b69c2b068fc378daa952ba7f163c4a11628f55a4df523b3ef9281900390910190a350600192915050565b60008083831115610f0b57600080fd5b5050900390565b60008282018381101561058957600080fd5b600160a060020a0382161515610f3957600080fd5b600160a060020a038216600090815260208190526040902054811115610f5e57600080fd5b600254610f71908263ffffffff610efb16565b600255600160a060020a038216600090815260208190526040902054610f9d908263ffffffff610efb16565b600160a060020a038316600081815260208181526040808320949094558351858152935191937fddf252ad1be2c89b69c2b068fc378daa952ba7f163c4a11628f55a4df523b3ef929081900390910190a350505600a165627a7a72305820c8a2e2277444bf96f61a85c0a7b18e5b7e6a6797f056df7c48e946c4e520afd90029",
  "source": "pragma solidity ^0.4.24;\n\nimport 'openzeppelin-solidity/contracts/token/ERC20/ERC20.sol';\nimport 'openzeppelin-solidity/contracts/token/ERC20/ERC20Detailed.sol';\nimport 'openzeppelin-solidity/contracts/token/ERC20/ERC20Burnable.sol';\nimport 'openzeppelin-solidity/contracts/token/ERC20/ERC20Mintable.sol';\nimport 'openzeppelin-solidity/contracts/token/ERC20/ERC20Pausable.sol';\n\ncontract ERC20TobyToken is ERC20, ERC20Detailed, ERC20Pausable, ERC20Mintable, ERC20Burnable {\n\n  constructor(\n    string name,\n    string symbol,\n    uint8 decimals\n  )\n    ERC20Burnable()\n    ERC20Mintable()\n    ERC20Detailed(name,symbol,decimals)\n    ERC20()\n    public\n  {}\n\n}\n",
  "sourcePath": "/home/vagrant/DAPPS/tokenShopApp/contracts/ERC20TobyToken.sol",
  "compiler": {
    "name": "solc",
    "version": "0.4.24+commit.e67f0147.Emscripten.clang"
  },
  "schemaVersion": "2.0.1",
  "updatedAt": "2018-09-26T05:15:55.018Z"
}