{
  "contractName": "ERC20TokenShop",
  "abi": [
    {
      "constant": true,
      "inputs": [],
      "name": "exchangeRate",
      "outputs": [
        {
          "name": "",
          "type": "uint256"
        }
      ],
      "payable": false,
      "stateMutability": "view",
      "type": "function"
    },
    {
      "constant": false,
      "inputs": [],
      "name": "unpause",
      "outputs": [],
      "payable": false,
      "stateMutability": "nonpayable",
      "type": "function"
    },
    {
      "constant": true,
      "inputs": [
        {
          "name": "account",
          "type": "address"
        }
      ],
      "name": "isPauser",
      "outputs": [
        {
          "name": "",
          "type": "bool"
        }
      ],
      "payable": false,
      "stateMutability": "view",
      "type": "function"
    },
    {
      "constant": true,
      "inputs": [],
      "name": "paused",
      "outputs": [
        {
          "name": "",
          "type": "bool"
        }
      ],
      "payable": false,
      "stateMutability": "view",
      "type": "function"
    },
    {
      "constant": false,
      "inputs": [],
      "name": "renouncePauser",
      "outputs": [],
      "payable": false,
      "stateMutability": "nonpayable",
      "type": "function"
    },
    {
      "constant": false,
      "inputs": [],
      "name": "renounceOwnership",
      "outputs": [],
      "payable": false,
      "stateMutability": "nonpayable",
      "type": "function"
    },
    {
      "constant": false,
      "inputs": [
        {
          "name": "account",
          "type": "address"
        }
      ],
      "name": "addPauser",
      "outputs": [],
      "payable": false,
      "stateMutability": "nonpayable",
      "type": "function"
    },
    {
      "constant": false,
      "inputs": [],
      "name": "pause",
      "outputs": [],
      "payable": false,
      "stateMutability": "nonpayable",
      "type": "function"
    },
    {
      "constant": true,
      "inputs": [],
      "name": "owner",
      "outputs": [
        {
          "name": "",
          "type": "address"
        }
      ],
      "payable": false,
      "stateMutability": "view",
      "type": "function"
    },
    {
      "constant": true,
      "inputs": [],
      "name": "isOwner",
      "outputs": [
        {
          "name": "",
          "type": "bool"
        }
      ],
      "payable": false,
      "stateMutability": "view",
      "type": "function"
    },
    {
      "constant": true,
      "inputs": [],
      "name": "oracleTax",
      "outputs": [
        {
          "name": "",
          "type": "uint256"
        }
      ],
      "payable": false,
      "stateMutability": "view",
      "type": "function"
    },
    {
      "constant": true,
      "inputs": [],
      "name": "USDTETH",
      "outputs": [
        {
          "name": "",
          "type": "uint256"
        }
      ],
      "payable": false,
      "stateMutability": "view",
      "type": "function"
    },
    {
      "constant": true,
      "inputs": [],
      "name": "queryURL",
      "outputs": [
        {
          "name": "",
          "type": "string"
        }
      ],
      "payable": false,
      "stateMutability": "view",
      "type": "function"
    },
    {
      "constant": true,
      "inputs": [],
      "name": "oraclizePriceType",
      "outputs": [
        {
          "name": "",
          "type": "string"
        }
      ],
      "payable": false,
      "stateMutability": "view",
      "type": "function"
    },
    {
      "constant": false,
      "inputs": [
        {
          "name": "newOwner",
          "type": "address"
        }
      ],
      "name": "transferOwnership",
      "outputs": [],
      "payable": false,
      "stateMutability": "nonpayable",
      "type": "function"
    },
    {
      "inputs": [
        {
          "name": "_instance",
          "type": "address"
        }
      ],
      "payable": false,
      "stateMutability": "nonpayable",
      "type": "constructor"
    },
    {
      "anonymous": false,
      "inputs": [
        {
          "indexed": false,
          "name": "eSender",
          "type": "address"
        },
        {
          "indexed": false,
          "name": "eValue",
          "type": "uint256"
        },
        {
          "indexed": false,
          "name": "eTokenAmount",
          "type": "uint256"
        }
      ],
      "name": "LogBuyToken",
      "type": "event"
    },
    {
      "anonymous": false,
      "inputs": [
        {
          "indexed": false,
          "name": "eSender",
          "type": "address"
        },
        {
          "indexed": false,
          "name": "eRate",
          "type": "uint256"
        },
        {
          "indexed": false,
          "name": "eExchangeRate",
          "type": "uint256"
        }
      ],
      "name": "LogSetExchangeRate",
      "type": "event"
    },
    {
      "anonymous": false,
      "inputs": [
        {
          "indexed": false,
          "name": "eSender",
          "type": "address"
        },
        {
          "indexed": false,
          "name": "eETHXRate",
          "type": "uint256"
        }
      ],
      "name": "LogSetETHXRateOverride",
      "type": "event"
    },
    {
      "anonymous": false,
      "inputs": [
        {
          "indexed": false,
          "name": "eSender",
          "type": "address"
        },
        {
          "indexed": false,
          "name": "eOracleTax",
          "type": "uint256"
        }
      ],
      "name": "LogSetOracleTaxOverride",
      "type": "event"
    },
    {
      "anonymous": false,
      "inputs": [
        {
          "indexed": false,
          "name": "eSender",
          "type": "address"
        },
        {
          "indexed": false,
          "name": "eQueryURL",
          "type": "string"
        }
      ],
      "name": "LogSetQueryURL",
      "type": "event"
    },
    {
      "anonymous": false,
      "inputs": [
        {
          "indexed": false,
          "name": "eSender",
          "type": "address"
        },
        {
          "indexed": false,
          "name": "eOraclizePriceType",
          "type": "string"
        }
      ],
      "name": "LogSetOraclizePriceType",
      "type": "event"
    },
    {
      "anonymous": false,
      "inputs": [
        {
          "indexed": false,
          "name": "eRecipient",
          "type": "address"
        },
        {
          "indexed": false,
          "name": "eSender",
          "type": "address"
        },
        {
          "indexed": false,
          "name": "eAmount",
          "type": "uint256"
        }
      ],
      "name": "LogApproveBurn",
      "type": "event"
    },
    {
      "anonymous": false,
      "inputs": [
        {
          "indexed": false,
          "name": "eSender",
          "type": "address"
        },
        {
          "indexed": false,
          "name": "eValue",
          "type": "uint256"
        }
      ],
      "name": "LogDeposit",
      "type": "event"
    },
    {
      "anonymous": false,
      "inputs": [
        {
          "indexed": false,
          "name": "eSender",
          "type": "address"
        },
        {
          "indexed": false,
          "name": "eValue",
          "type": "uint256"
        }
      ],
      "name": "LogWithdraw",
      "type": "event"
    },
    {
      "anonymous": false,
      "inputs": [
        {
          "indexed": false,
          "name": "eSender",
          "type": "address"
        },
        {
          "indexed": false,
          "name": "eETHXRate",
          "type": "string"
        }
      ],
      "name": "LogSetETHXUpdated",
      "type": "event"
    },
    {
      "anonymous": false,
      "inputs": [
        {
          "indexed": false,
          "name": "eOracleResponse",
          "type": "string"
        }
      ],
      "name": "LogNewOraclizeQuery",
      "type": "event"
    },
    {
      "anonymous": false,
      "inputs": [],
      "name": "Paused",
      "type": "event"
    },
    {
      "anonymous": false,
      "inputs": [],
      "name": "Unpaused",
      "type": "event"
    },
    {
      "anonymous": false,
      "inputs": [
        {
          "indexed": true,
          "name": "account",
          "type": "address"
        }
      ],
      "name": "PauserAdded",
      "type": "event"
    },
    {
      "anonymous": false,
      "inputs": [
        {
          "indexed": true,
          "name": "account",
          "type": "address"
        }
      ],
      "name": "PauserRemoved",
      "type": "event"
    },
    {
      "anonymous": false,
      "inputs": [
        {
          "indexed": true,
          "name": "previousOwner",
          "type": "address"
        }
      ],
      "name": "OwnershipRenounced",
      "type": "event"
    },
    {
      "anonymous": false,
      "inputs": [
        {
          "indexed": true,
          "name": "previousOwner",
          "type": "address"
        },
        {
          "indexed": true,
          "name": "newOwner",
          "type": "address"
        }
      ],
      "name": "OwnershipTransferred",
      "type": "event"
    },
    {
      "constant": true,
      "inputs": [],
      "name": "getTokenSupply",
      "outputs": [
        {
          "name": "",
          "type": "uint256"
        }
      ],
      "payable": false,
      "stateMutability": "view",
      "type": "function"
    },
    {
      "constant": true,
      "inputs": [
        {
          "name": "_account",
          "type": "address"
        }
      ],
      "name": "getTokenBalance",
      "outputs": [
        {
          "name": "",
          "type": "uint256"
        }
      ],
      "payable": false,
      "stateMutability": "view",
      "type": "function"
    },
    {
      "constant": true,
      "inputs": [],
      "name": "getTokenName",
      "outputs": [
        {
          "name": "",
          "type": "string"
        }
      ],
      "payable": false,
      "stateMutability": "view",
      "type": "function"
    },
    {
      "constant": true,
      "inputs": [],
      "name": "getTokenSymbol",
      "outputs": [
        {
          "name": "",
          "type": "string"
        }
      ],
      "payable": false,
      "stateMutability": "view",
      "type": "function"
    },
    {
      "constant": true,
      "inputs": [],
      "name": "getTokenDecimals",
      "outputs": [
        {
          "name": "",
          "type": "uint8"
        }
      ],
      "payable": false,
      "stateMutability": "view",
      "type": "function"
    },
    {
      "constant": false,
      "inputs": [],
      "name": "buyToken",
      "outputs": [
        {
          "name": "",
          "type": "bool"
        }
      ],
      "payable": true,
      "stateMutability": "payable",
      "type": "function"
    },
    {
      "constant": false,
      "inputs": [
        {
          "name": "myid",
          "type": "bytes32"
        },
        {
          "name": "result",
          "type": "string"
        }
      ],
      "name": "__callback",
      "outputs": [],
      "payable": false,
      "stateMutability": "nonpayable",
      "type": "function"
    },
    {
      "constant": false,
      "inputs": [
        {
          "name": "myid",
          "type": "bytes32"
        },
        {
          "name": "result",
          "type": "string"
        },
        {
          "name": "proof",
          "type": "bytes"
        }
      ],
      "name": "__callback",
      "outputs": [],
      "payable": false,
      "stateMutability": "nonpayable",
      "type": "function"
    },
    {
      "constant": false,
      "inputs": [],
      "name": "updatePrice",
      "outputs": [],
      "payable": true,
      "stateMutability": "payable",
      "type": "function"
    },
    {
      "constant": true,
      "inputs": [],
      "name": "getShopStock",
      "outputs": [
        {
          "name": "",
          "type": "uint256"
        }
      ],
      "payable": false,
      "stateMutability": "view",
      "type": "function"
    },
    {
      "constant": true,
      "inputs": [],
      "name": "getOracleTax",
      "outputs": [
        {
          "name": "",
          "type": "uint256"
        }
      ],
      "payable": false,
      "stateMutability": "view",
      "type": "function"
    },
    {
      "constant": false,
      "inputs": [
        {
          "name": "_dollars_per_token",
          "type": "uint256"
        }
      ],
      "name": "setExchangeRate",
      "outputs": [
        {
          "name": "",
          "type": "bool"
        }
      ],
      "payable": false,
      "stateMutability": "nonpayable",
      "type": "function"
    },
    {
      "constant": false,
      "inputs": [
        {
          "name": "_dollars_per_eth",
          "type": "uint256"
        }
      ],
      "name": "setETHXRateOverride",
      "outputs": [
        {
          "name": "",
          "type": "bool"
        }
      ],
      "payable": false,
      "stateMutability": "nonpayable",
      "type": "function"
    },
    {
      "constant": false,
      "inputs": [
        {
          "name": "_oracleTax",
          "type": "uint256"
        }
      ],
      "name": "setOracleTaxOverride",
      "outputs": [
        {
          "name": "",
          "type": "bool"
        }
      ],
      "payable": false,
      "stateMutability": "nonpayable",
      "type": "function"
    },
    {
      "constant": false,
      "inputs": [
        {
          "name": "_url",
          "type": "string"
        }
      ],
      "name": "setQueryURL",
      "outputs": [
        {
          "name": "",
          "type": "bool"
        }
      ],
      "payable": false,
      "stateMutability": "nonpayable",
      "type": "function"
    },
    {
      "constant": false,
      "inputs": [
        {
          "name": "_type",
          "type": "string"
        }
      ],
      "name": "setOraclizePriceType",
      "outputs": [
        {
          "name": "",
          "type": "bool"
        }
      ],
      "payable": false,
      "stateMutability": "nonpayable",
      "type": "function"
    },
    {
      "constant": false,
      "inputs": [
        {
          "name": "_recipient",
          "type": "address"
        },
        {
          "name": "_amount",
          "type": "uint256"
        }
      ],
      "name": "approveBurn",
      "outputs": [
        {
          "name": "",
          "type": "bool"
        }
      ],
      "payable": false,
      "stateMutability": "nonpayable",
      "type": "function"
    },
    {
      "constant": false,
      "inputs": [],
      "name": "deposit",
      "outputs": [
        {
          "name": "",
          "type": "bool"
        }
      ],
      "payable": true,
      "stateMutability": "payable",
      "type": "function"
    },
    {
      "constant": false,
      "inputs": [
        {
          "name": "_amount",
          "type": "uint256"
        }
      ],
      "name": "withdraw",
      "outputs": [
        {
          "name": "",
          "type": "bool"
        }
      ],
      "payable": false,
      "stateMutability": "nonpayable",
      "type": "function"
    },
    {
      "constant": false,
      "inputs": [],
      "name": "kill",
      "outputs": [],
      "payable": false,
      "stateMutability": "nonpayable",
      "type": "function"
    }
  ],
  "bytecode": "0x60806040526002805460ff191690553480156200001b57600080fd5b5060405160208062002a04833981016040525160008054600160a060020a03191633908117909155620000579064010000000062000089810204565b60078054600160a060020a031916600160a060020a0392909216919091179055670de0b6b3a764000060085562000116565b620000a460018264010000000062002442620000db82021704565b604051600160a060020a038216907f6719d08c1888103bea251a4ed56406bd0c3e69723c8a1686e017e7bbe159b6f890600090a250565b600160a060020a0381161515620000f157600080fd5b600160a060020a0316600090815260209190915260409020805460ff19166001179055565b6128de80620001266000396000f30060806040526004361061019d5763ffffffff60e060020a6000350416630363f8e781146101a25780630cfa03181461020f57806319d6172d1461023357806324f65ee71461028c57806327dc297e146102b75780632e1a7d4d146103175780633516e93a1461032f57806338bbfa50146103565780633aecd0e3146103f25780633ba0b9a9146104135780633f4ba83a1461042857806341c0e1b51461043d57806346fbf68e146104525780635c975abb1461047357806360c07e7414610488578063673a7e281461049d5780636ef8d66d146104a5578063715018a6146104ba57806382dc1ec4146104cf5780638456cb59146104f0578063862b092b146105055780638da5cb5b1461058f5780638f32d59b146105c057806393398487146105d5578063a4821719146105ea578063ad974f4c146105f2578063d0e30db014610607578063d87ac3391461060f578063db068e0e14610627578063e0eb576d1461063f578063e1d689c714610654578063e696fdf71461066c578063f1850af814610681578063f20489f814610696578063f2fde38b146106ab575b600080fd5b3480156101ae57600080fd5b506040805160206004803580820135601f81018490048402850184019095528484526101fb9436949293602493928401919081908401838280828437509497506106cc9650505050505050565b604080519115158252519081900360200190f35b34801561021b57600080fd5b506101fb600160a060020a0360043516602435610702565b34801561023f57600080fd5b506040805160206004803580820135601f81018490048402850184019095528484526101fb9436949293602493928401919081908401838280828437509497506108139650505050505050565b34801561029857600080fd5b506102a1610841565b6040805160ff9092168252519081900360200190f35b3480156102c357600080fd5b5060408051602060046024803582810135601f81018590048502860185019096528585526103159583359536956044949193909101919081908401838280828437509497506108d29650505050505050565b005b34801561032357600080fd5b506101fb6004356109b6565b34801561033b57600080fd5b50610344610a70565b60408051918252519081900360200190f35b34801561036257600080fd5b5060408051602060046024803582810135601f810185900485028601850190965285855261031595833595369560449491939091019190819084018382808284375050604080516020601f89358b018035918201839004830284018301909452808352979a999881019791965091820194509250829150840183828082843750949750610a769650505050505050565b3480156103fe57600080fd5b50610344600160a060020a0360043516610a7b565b34801561041f57600080fd5b50610344610b18565b34801561043457600080fd5b50610315610b1e565b34801561044957600080fd5b50610315610b78565b34801561045e57600080fd5b506101fb600160a060020a0360043516610b9e565b34801561047f57600080fd5b506101fb610bb7565b34801561049457600080fd5b50610344610bc0565b610315610c25565b3480156104b157600080fd5b50610315610de3565b3480156104c657600080fd5b50610315610dee565b3480156104db57600080fd5b50610315600160a060020a0360043516610e56565b3480156104fc57600080fd5b50610315610e73565b34801561051157600080fd5b5061051a610ecf565b6040805160208082528351818301528351919283929083019185019080838360005b8381101561055457818101518382015260200161053c565b50505050905090810190601f1680156105815780820380516001836020036101000a031916815260200191505b509250505060405180910390f35b34801561059b57600080fd5b506105a4610fbb565b60408051600160a060020a039092168252519081900360200190f35b3480156105cc57600080fd5b506101fb610fca565b3480156105e157600080fd5b50610344610fdb565b6101fb610fe1565b3480156105fe57600080fd5b5061034461134a565b6101fb6113a9565b34801561061b57600080fd5b506101fb60043561140e565b34801561063357600080fd5b506101fb60043561143c565b34801561064b57600080fd5b5061034461146a565b34801561066057600080fd5b506101fb600435611470565b34801561067857600080fd5b5061051a61149e565b34801561068d57600080fd5b5061051a61152c565b3480156106a257600080fd5b5061051a61158b565b3480156106b757600080fd5b50610315600160a060020a03600435166115e6565b60006106d6610fca565b15156106e157600080fd5b60025460ff16156106f157600080fd5b6106fa82611602565b506001919050565b600061070c610fca565b151561071757600080fd5b60025460ff161561072757600080fd5b60408051600160a060020a038516815233602082015280820184905290517f8f731d87c5a8652b66c4fdc516b1c197412655129c9a20230f99a568f05fa0d69181900360600190a1600754604080517f095ea7b3000000000000000000000000000000000000000000000000000000008152600160a060020a038681166004830152602482018690529151919092169163095ea7b39160448083019260209291908290030181600087803b1580156107de57600080fd5b505af11580156107f2573d6000803e3d6000fd5b505050506040513d602081101561080857600080fd5b506001949350505050565b600061081d610fca565b151561082857600080fd5b60025460ff161561083857600080fd5b6106fa826116cc565b600754604080517f313ce5670000000000000000000000000000000000000000000000000000000081529051600092600160a060020a03169163313ce56791600480830192602092919082900301818787803b1580156108a057600080fd5b505af11580156108b4573d6000803e3d6000fd5b505050506040513d60208110156108ca57600080fd5b505190505b90565b6108da611757565b600160a060020a031633146108ee57600080fd5b6108f9816000611932565b6009819055507f7cbfdd3eda751b1e5cdb1786e5bdc616ef015671f13eb23ae7e48bd03233da7e33826040518083600160a060020a0316600160a060020a0316815260200180602001828103825283818151815260200191508051906020019080838360005b8381101561097757818101518382015260200161095f565b50505050905090810190601f1680156109a45780820380516001836020036101000a031916815260200191505b50935050505060405180910390a15050565b6000806109c1610fca565b15156109cc57600080fd5b60025460ff16156109dc57600080fd5b30318311156109ea57600080fd5b6109f2610fbb565b604080513381526020810186905281519293507f4ce7033d118120e254016dccf195288400b28fc8936425acd5f17ce2df3ab708929081900390910190a1604051600160a060020a0382169084156108fc029085906000818181858888f19350505050158015610a66573d6000803e3d6000fd5b5060019392505050565b600a5490565b505050565b600754604080517f70a08231000000000000000000000000000000000000000000000000000000008152600160a060020a038481166004830152915160009392909216916370a082319160248082019260209290919082900301818787803b158015610ae657600080fd5b505af1158015610afa573d6000803e3d6000fd5b505050506040513d6020811015610b1057600080fd5b505192915050565b60085481565b610b2733610b9e565b1515610b3257600080fd5b60025460ff161515610b4357600080fd5b6002805460ff191690556040517fa45f47fdea8a1efdd9029a5691c7f759c32b7c698632b563573e155625d1693390600090a1565b610b80610fca565b1515610b8b57600080fd5b610b93610fbb565b600160a060020a0316ff5b6000610bb160018363ffffffff611aec16565b92915050565b60025460ff1690565b600754604080517f70a082310000000000000000000000000000000000000000000000000000000081523060048201529051600092600160a060020a0316916370a0823191602480830192602092919082900301818787803b1580156108a057600080fd5b60025460ff1615610c3557600080fd5b6040805160208082526036908201527f4f7261636c697a65207175657279207761732073656e742c207374616e64696e818301527f6720627920666f722074686520616e737765722e2e2e00000000000000000000606082015290517f621c2856e3b87f81235f8ac8a22bbb40a0142961960710d00b2b6c380902b57e9181900360800190a1600c8054604080516020601f60026000196101006001881615020190951694909404938401819004810282018101909252828152610de09390929091830182828015610d485780601f10610d1d57610100808354040283529160200191610d48565b820191906000526020600020905b815481529060010190602001808311610d2b57829003601f168201915b5050600b8054604080516020601f6002600019610100600188161502019095169490940493840181900481028201810190925282815295509193509150830182828015610dd65780601f10610dab57610100808354040283529160200191610dd6565b820191906000526020600020905b815481529060010190602001808311610db957829003601f168201915b5050505050611b23565b50565b610dec33611f31565b565b610df6610fca565b1515610e0157600080fd5b60008054604051600160a060020a03909116917ff8df31144d9c2f0f6b59d69b8b98abd5459d07f2742c4df920b25aae33c6482091a26000805473ffffffffffffffffffffffffffffffffffffffff19169055565b610e5f33610b9e565b1515610e6a57600080fd5b610de081611f79565b610e7c33610b9e565b1515610e8757600080fd5b60025460ff1615610e9757600080fd5b6002805460ff191660011790556040517f9e87fac88ff661f02d44f95383c817fece4bce600a3dab7a54406878b965e75290600090a1565b600754604080517f06fdde030000000000000000000000000000000000000000000000000000000081529051606092600160a060020a0316916306fdde0391600480830192600092919082900301818387803b158015610f2e57600080fd5b505af1158015610f42573d6000803e3d6000fd5b505050506040513d6000823e601f3d908101601f191682016040526020811015610f6b57600080fd5b810190808051640100000000811115610f8357600080fd5b82016020810184811115610f9657600080fd5b8151640100000000811182820187101715610fb057600080fd5b509094505050505090565b600054600160a060020a031690565b600054600160a060020a0316331490565b600a5481565b600254600090819060ff1615610ff657600080fd5b6000341161100357600080fd5b600754604080517f70a082310000000000000000000000000000000000000000000000000000000081523060048201529051600092600160a060020a0316916370a0823191602480830192602092919082900301818787803b15801561106857600080fd5b505af115801561107c573d6000803e3d6000fd5b505050506040513d602081101561109257600080fd5b50511161109e57600080fd5b600754604080517f70a0823100000000000000000000000000000000000000000000000000000000815230600482015290513492600160a060020a0316916370a082319160248083019260209291908290030181600087803b15801561110357600080fd5b505af1158015611117573d6000803e3d6000fd5b505050506040513d602081101561112d57600080fd5b5051101561113a57600080fd5b600c8054604080516020601f600260001961010060018816150201909516949094049384018190048102820181019092528281526111d193909290918301828280156111c75780601f1061119c576101008083540402835291602001916111c7565b820191906000526020600020905b8154815290600101906020018083116111aa57829003601f168201915b5050505050611fc1565b600a81905550611218600a5461120c670de0b6b3a764000061120060095460085461220e90919063ffffffff16565b9063ffffffff61224316565b9063ffffffff61226616565b34101561122457600080fd5b61122c610c25565b611265670de0b6b3a7640000611200600954611259600854611259600a543461227890919063ffffffff16565b9063ffffffff61220e16565b6040805133815234602082015280820183905290519192507f3bb720dcc9b5b2218b19a41ca92774fd6a9308760642254fcdb9c7ccc7a42e7e919081900360600190a1600754604080517fa9059cbb000000000000000000000000000000000000000000000000000000008152336004820152602481018490529051600160a060020a039092169163a9059cbb916044808201926020929091908290030181600087803b15801561131557600080fd5b505af1158015611329573d6000803e3d6000fd5b505050506040513d602081101561133f57600080fd5b5060019250505b5090565b600754604080517f18160ddd0000000000000000000000000000000000000000000000000000000081529051600092600160a060020a0316916318160ddd91600480830192602092919082900301818787803b1580156108a057600080fd5b60006113b3610fca565b15156113be57600080fd5b60025460ff16156113ce57600080fd5b6040805133815234602082015281517f1b851e1031ef35a238e6c67d0c7991162390df915f70eaf9098dbf0b175a6198929181900390910190a150600190565b6000611418610fca565b151561142357600080fd5b60025460ff161561143357600080fd5b6106fa8261228f565b6000611446610fca565b151561145157600080fd5b60025460ff161561146157600080fd5b6106fa826122d2565b60095481565b600061147a610fca565b151561148557600080fd5b60025460ff161561149557600080fd5b6106fa8261233d565b600b805460408051602060026001851615610100026000190190941693909304601f810184900484028201840190925281815292918301828280156115245780601f106114f957610100808354040283529160200191611524565b820191906000526020600020905b81548152906001019060200180831161150757829003601f168201915b505050505081565b600754604080517f95d89b410000000000000000000000000000000000000000000000000000000081529051606092600160a060020a0316916395d89b4191600480830192600092919082900301818387803b158015610f2e57600080fd5b600c805460408051602060026001851615610100026000190190941693909304601f810184900484028201840190925281815292918301828280156115245780601f106114f957610100808354040283529160200191611524565b6115ee610fca565b15156115f957600080fd5b610de081612380565b805161161590600b906020840190612824565b507f6323748ea0903b748f263a02c69f44e83a935eb5f60168a7355e63bbdadd0de933826040518083600160a060020a0316600160a060020a0316815260200180602001828103825283818151815260200191508051906020019080838360005b8381101561168e578181015183820152602001611676565b50505050905090810190601f1680156116bb5780820380516001836020036101000a031916815260200191505b50935050505060405180910390a150565b80516116df90600c906020840190612824565b507fcdb7d8b258e95d8cd2c6e2ad9b710bdc2b0058ab23a5cd7ac339e1b2269e897b33826040518083600160a060020a0316600160a060020a0316815260200180602001828103825283818151815260200191508051906020019080838360008381101561168e578181015183820152602001611676565b6002546000906101009004600160a060020a0316158061178e575060025461178c906101009004600160a060020a03166123fd565b155b1561179f5761179d6000612401565b505b600260019054906101000a9004600160a060020a0316600160a060020a03166338cc48316040518163ffffffff1660e060020a028152600401602060405180830381600087803b1580156117f257600080fd5b505af1158015611806573d6000803e3d6000fd5b505050506040513d602081101561181c57600080fd5b5051600354600160a060020a039081169116146118df57600260019054906101000a9004600160a060020a0316600160a060020a03166338cc48316040518163ffffffff1660e060020a028152600401602060405180830381600087803b15801561188657600080fd5b505af115801561189a573d6000803e3d6000fd5b505050506040513d60208110156118b057600080fd5b50516003805473ffffffffffffffffffffffffffffffffffffffff1916600160a060020a039092169190911790555b600360009054906101000a9004600160a060020a0316600160a060020a031663c281d19e6040518163ffffffff1660e060020a028152600401602060405180830381600087803b1580156108a057600080fd5b6000828180805b8351811015611acf5783517f30000000000000000000000000000000000000000000000000000000000000009085908390811061197257fe5b90602001015160f860020a900460f860020a027effffffffffffffffffffffffffffffffffffffffffffffffffffffffffffff191610158015611a18575083517f3900000000000000000000000000000000000000000000000000000000000000908590839081106119e057fe5b90602001015160f860020a900460f860020a027effffffffffffffffffffffffffffffffffffffffffffffffffffffffffffff191611155b15611a71578115611a3757851515611a2f57611acf565b600019909501945b600a8302925060308482815181101515611a4d57fe5b90602001015160f860020a900460f860020a0260f860020a90040383019250611ac7565b8381815181101515611a7f57fe5b90602001015160f860020a900460f860020a027effffffffffffffffffffffffffffffffffffffffffffffffffffffffffffff1916602e60f860020a021415611ac757600191505b600101611939565b6000861115611ae15785600a0a830292505b509095945050505050565b6000600160a060020a0382161515611b0357600080fd5b50600160a060020a03166000908152602091909152604090205460ff1690565b60025460009081906101009004600160a060020a03161580611b5c5750600254611b5a906101009004600160a060020a03166123fd565b155b15611b6d57611b6b6000612401565b505b600260019054906101000a9004600160a060020a0316600160a060020a03166338cc48316040518163ffffffff1660e060020a028152600401602060405180830381600087803b158015611bc057600080fd5b505af1158015611bd4573d6000803e3d6000fd5b505050506040513d6020811015611bea57600080fd5b5051600354600160a060020a03908116911614611cad57600260019054906101000a9004600160a060020a0316600160a060020a03166338cc48316040518163ffffffff1660e060020a028152600401602060405180830381600087803b158015611c5457600080fd5b505af1158015611c68573d6000803e3d6000fd5b505050506040513d6020811015611c7e57600080fd5b50516003805473ffffffffffffffffffffffffffffffffffffffff1916600160a060020a039092169190911790555b6003546040517f524f3889000000000000000000000000000000000000000000000000000000008152602060048201818152875160248401528751600160a060020a039094169363524f388993899383926044909201919085019080838360005b83811015611d26578181015183820152602001611d0e565b50505050905090810190601f168015611d535780820380516001836020036101000a031916815260200191505b5092505050602060405180830381600087803b158015611d7257600080fd5b505af1158015611d86573d6000803e3d6000fd5b505050506040513d6020811015611d9c57600080fd5b50519050670de0b6b3a764000062030d403a0201811115611dc05760009150611f2a565b6003546040517fadf59f99000000000000000000000000000000000000000000000000000000008152600060048201818152606060248401908152885160648501528851600160a060020a039095169463adf59f99948794938b938b939192909160448201916084019060208701908083838b5b83811015611e4c578181015183820152602001611e34565b50505050905090810190601f168015611e795780820380516001836020036101000a031916815260200191505b50838103825284518152845160209182019186019080838360005b83811015611eac578181015183820152602001611e94565b50505050905090810190601f168015611ed95780820380516001836020036101000a031916815260200191505b50955050505050506020604051808303818588803b158015611efa57600080fd5b505af1158015611f0e573d6000803e3d6000fd5b50505050506040513d6020811015611f2557600080fd5b505191505b5092915050565b611f4260018263ffffffff61240b16565b604051600160a060020a038216907fcd265ebaf09df2871cc7bd4133404a235ba12eff2041bb89d9c714a2621c7c7e90600090a250565b611f8a60018263ffffffff61244216565b604051600160a060020a038216907f6719d08c1888103bea251a4ed56406bd0c3e69723c8a1686e017e7bbe159b6f890600090a250565b6002546000906101009004600160a060020a03161580611ff85750600254611ff6906101009004600160a060020a03166123fd565b155b15612009576120076000612401565b505b600260019054906101000a9004600160a060020a0316600160a060020a03166338cc48316040518163ffffffff1660e060020a028152600401602060405180830381600087803b15801561205c57600080fd5b505af1158015612070573d6000803e3d6000fd5b505050506040513d602081101561208657600080fd5b5051600354600160a060020a0390811691161461214957600260019054906101000a9004600160a060020a0316600160a060020a03166338cc48316040518163ffffffff1660e060020a028152600401602060405180830381600087803b1580156120f057600080fd5b505af1158015612104573d6000803e3d6000fd5b505050506040513d602081101561211a57600080fd5b50516003805473ffffffffffffffffffffffffffffffffffffffff1916600160a060020a039092169190911790555b6003546040517f524f3889000000000000000000000000000000000000000000000000000000008152602060048201818152855160248401528551600160a060020a039094169363524f388993879383926044909201919085019080838360005b838110156121c25781810151838201526020016121aa565b50505050905090810190601f1680156121ef5780820380516001836020036101000a031916815260200191505b5092505050602060405180830381600087803b158015610ae657600080fd5b6000808315156122215760009150611f2a565b5082820282848281151561223157fe5b041461223c57600080fd5b9392505050565b60008080831161225257600080fd5b828481151561225d57fe5b04949350505050565b60008282018381101561223c57600080fd5b6000808383111561228857600080fd5b5050900390565b6009819055604080513381526020810183905281517f238879033f65fd36b707914746ca37d674a78c13b57f9910026410681991c889929181900390910190a150565b60006122dc610841565b60ff16600a0a90506122f4818363ffffffff61224316565b6008819055604080513381526020810185905280820192909252517f8e7e19c3c2da501e28433f232b7ab951190311c0f3b0a68c2467b9adb39a06e89181900360600190a15050565b600a819055604080513381526020810183905281517ff54418c9106b955e37b8f0994b7c8c325aad3c3ad503efc50a4ac10139c9e003929181900390910190a150565b600160a060020a038116151561239557600080fd5b60008054604051600160a060020a03808516939216917f8be0079c531659141344cd1fd0a4f28419497f9722a3daafe3b4186f6b6457e091a36000805473ffffffffffffffffffffffffffffffffffffffff1916600160a060020a0392909216919091179055565b3b90565b6000610bb161247c565b600160a060020a038116151561242057600080fd5b600160a060020a0316600090815260209190915260409020805460ff19169055565b600160a060020a038116151561245757600080fd5b600160a060020a0316600090815260209190915260409020805460ff19166001179055565b60008061249c731d3b2638a7cc9f2cb3d298a3da7a90b67e5506ed6123fd565b111561251c576002805474ffffffffffffffffffffffffffffffffffffffff001916741d3b2638a7cc9f2cb3d298a3da7a90b67e5506ed0017905560408051808201909152600b81527f6574685f6d61696e6e657400000000000000000000000000000000000000000060208201526125149061280d565b5060016108cf565b600061253b73c03a2615d5efaf5f49f60b7bb6583eaec212fdf16123fd565b11156125b3576002805474ffffffffffffffffffffffffffffffffffffffff00191674c03a2615d5efaf5f49f60b7bb6583eaec212fdf10017905560408051808201909152600c81527f6574685f726f707374656e33000000000000000000000000000000000000000060208201526125149061280d565b60006125d273b7a07bcf2ba2f2703b24c0691b5278999c59ac7e6123fd565b111561264a576002805474ffffffffffffffffffffffffffffffffffffffff00191674b7a07bcf2ba2f2703b24c0691b5278999c59ac7e0017905560408051808201909152600981527f6574685f6b6f76616e000000000000000000000000000000000000000000000060208201526125149061280d565b600061266973146500cfd35b22e4a392fe0adc06de1a1368ed486123fd565b11156126e1576002805474ffffffffffffffffffffffffffffffffffffffff00191674146500cfd35b22e4a392fe0adc06de1a1368ed480017905560408051808201909152600b81527f6574685f72696e6b65627900000000000000000000000000000000000000000060208201526125149061280d565b6000612700736f485c8bf6fc43ea212e93bbf8ce046c7f1cb4756123fd565b111561274357506002805474ffffffffffffffffffffffffffffffffffffffff001916746f485c8bf6fc43ea212e93bbf8ce046c7f1cb4750017905560016108cf565b60006127627320e12a1f859b3feae5fb2a0a32c18f5a65555bbf6123fd565b11156127a557506002805474ffffffffffffffffffffffffffffffffffffffff0019167420e12a1f859b3feae5fb2a0a32c18f5a65555bbf0017905560016108cf565b60006127c47351efaf4c8b3c9afbd5ab9f4bbc82784ab6ef8faa6123fd565b111561280757506002805474ffffffffffffffffffffffffffffffffffffffff0019167451efaf4c8b3c9afbd5ab9f4bbc82784ab6ef8faa0017905560016108cf565b50600090565b8051612820906004906020840190612824565b5050565b828054600181600116156101000203166002900490600052602060002090601f016020900481019282601f1061286557805160ff1916838001178555612892565b82800160010185558215612892579182015b82811115612892578251825591602001919060010190612877565b50611346926108cf9250905b80821115611346576000815560010161289e5600a165627a7a723058200e3638bbc5f496199255bb5c3982f5c0e4266a0a2ddaf27cb5d09898d9360cfe0029",
  "source": "pragma solidity ^0.4.24;\n\nimport '../openzeppelin-solidity/contracts/ownership/Ownable.sol';\nimport '../openzeppelin-solidity/contracts/lifecycle/Pausable.sol';\nimport '../openzeppelin-solidity/contracts/math/SafeMath.sol';\n\nimport \"../ethereum-api/oraclizeAPI_0.4.25.sol\";\n\ninterface Token {\n  function totalSupply() external view returns (uint256);\n\n  function balanceOf(address owner) external view returns (uint256);\n\n  function name() external view returns(string);\n\n  function symbol() external view returns(string);\n\n  function decimals() external view returns(uint8);\n\n  function allowance(address owner, address spender) external view returns (uint256);\n\n  function transfer(address to, uint256 value) external returns (bool);\n\n  function approve(address spender, uint256 value) external returns (bool);\n}\n\ncontract ERC20TokenShop is Ownable, Pausable, usingOraclize {\n  using SafeMath for uint256;\n\n  Token tokenContract;\n\n  uint256 public exchangeRate;\n  uint256 public USDTETH;\n  uint256 public oracleTax;\n  string public queryURL;\n  string public oraclizePriceType;\n\n  event LogBuyToken(address eSender, uint256 eValue, uint256 eTokenAmount);\n  event LogSetExchangeRate(address eSender, uint256 eRate, uint256 eExchangeRate);\n  event LogSetETHXRateOverride(address eSender, uint256 eETHXRate);\n  event LogSetOracleTaxOverride(address eSender, uint256 eOracleTax);\n  event LogSetQueryURL(address eSender, string eQueryURL);\n  event LogSetOraclizePriceType(address eSender, string eOraclizePriceType);\n  event LogApproveBurn(address eRecipient, address eSender, uint256 eAmount);\n  event LogDeposit(address eSender, uint256 eValue);\n  event LogWithdraw(address eSender, uint256 eValue);\n  event LogSetETHXUpdated(address eSender, string eETHXRate);\n  event LogNewOraclizeQuery(string eOracleResponse);\n\n  //Default exchange rate is $1/Token\n  constructor(address _instance) public {\n    tokenContract = Token(_instance);\n    exchangeRate = 1000000000000000000;\n  }\n\n  //Token functions\n  function getTokenSupply()\n    public\n    view\n    returns (uint256)\n  {\n    return tokenContract.totalSupply();\n  }\n\n  function getTokenBalance(address _account)\n    public\n    view\n    returns (uint256)\n  {\n    return tokenContract.balanceOf(_account);\n  }\n\n  function getTokenName()\n    public\n    view\n    returns (string)\n  {\n    return tokenContract.name();\n  }\n\n  function getTokenSymbol()\n    public\n    view\n    returns (string)\n  {\n    return tokenContract.symbol();\n  }\n\n  function getTokenDecimals()\n    public\n    view\n    returns (uint8)\n  {\n    return tokenContract.decimals();\n  }\n\n  //User functions\n  function buyToken()\n    whenNotPaused\n    public\n    payable\n    returns (bool)\n  {\n    require(msg.value > 0);\n    require(tokenContract.balanceOf(address(this)) > 0);\n    //check not asking for more than stock\n    require(tokenContract.balanceOf(address(this)) >= msg.value);\n    //set Oracle Tax\n    oracleTax = oraclize_getPrice(oraclizePriceType); //URL\n    //check value is at least 1 cross rate token bit unit per wei\n    require(msg.value >= exchangeRate.mul(USDTETH).div(10**18).add(oracleTax));\n    //get updated ETH USD cross rate\n    updatePrice();\n    //wei to token bit conversion via dollars\n    //$ per ETH * ETH per wei * (1 / $ per tokenbit) = tokenbit per wei\n    uint256 _amount;\n    _amount = msg.value.sub(oracleTax).mul(exchangeRate).mul(USDTETH).div(10**(18));\n    emit LogBuyToken(msg.sender, msg.value, _amount);\n    tokenContract.transfer(msg.sender, _amount);\n    return true;\n  }\n\n  //Oraclize implementation\n  function __callback(bytes32 myid, string result) {\n    require(msg.sender == oraclize_cbAddress());\n    USDTETH = parseInt(result, 0);\n    emit LogSetETHXUpdated(msg.sender, result);\n  }\n\n  //oraclize_query(\"URL\", \"json(https://api.gdax.com/products/ETH-USD/ticker).price\")\n  function updatePrice()\n    whenNotPaused\n    public\n    payable\n  {\n    emit LogNewOraclizeQuery(\"Oraclize query was sent, standing by for the answer...\");\n    oraclize_query(oraclizePriceType, queryURL);\n  }\n\n  //Shop functions\n  function getShopStock()\n    public\n    view\n    returns (uint256)\n  {\n    return tokenContract.balanceOf(address(this));\n  }\n\n  function getOracleTax()\n    public\n    view\n    returns (uint256)\n  {\n    return oracleTax;\n  }\n\n  //Exchange rate in Dollars (i.e. Tokens per dollar)\n  function setExchangeRate(uint256 _dollars_per_token)\n    onlyOwner\n    whenNotPaused\n    public\n    returns (bool)\n  {\n    _setExchangeRate(_dollars_per_token);\n    return true;\n  }\n\n  function setETHXRateOverride(uint256 _dollars_per_eth)\n    onlyOwner\n    whenNotPaused\n    public\n    returns (bool)\n  {\n    _setETHXRateOverride(_dollars_per_eth);\n    return true;\n  }\n\n  function setOracleTaxOverride(uint256 _oracleTax)\n    onlyOwner\n    whenNotPaused\n    public\n    returns (bool)\n  {\n      _setOracleTaxOverride(_oracleTax);\n      return true;\n  }\n\n  function setQueryURL(string _url)\n    onlyOwner\n    whenNotPaused\n    public\n    returns (bool)\n  {\n    _setQueryURL(_url);\n    return true;\n  }\n\n  function setOraclizePriceType(string _type)\n    onlyOwner\n    whenNotPaused\n    public\n    returns (bool)\n  {\n    _setOraclizePriceType(_type);\n    return true;\n  }\n\n  function approveBurn(address _recipient, uint256 _amount)\n    onlyOwner\n    whenNotPaused\n    public\n    returns (bool)\n {\n    emit LogApproveBurn(_recipient, msg.sender, _amount);\n    tokenContract.approve(_recipient, _amount);\n    return true;\n }\n\n  function deposit()\n    onlyOwner\n    whenNotPaused\n    payable\n    public\n    returns (bool)\n  {\n    emit LogDeposit(msg.sender, msg.value);\n    return true;\n  }\n\n  function withdraw(uint256 _amount)\n    onlyOwner\n    whenNotPaused\n    public\n    returns (bool)\n  {\n    require(address(this).balance >= _amount);\n    address _owner;\n    _owner = owner();\n    emit LogWithdraw(msg.sender, _amount);\n    _owner.transfer(_amount);\n    return true;\n  }\n\n  //Internal functions\n  function _setExchangeRate(uint256 _dollars_per_token)\n    internal\n  {\n    uint256 _decimals = getTokenDecimals();\n    _decimals = 10**(_decimals);\n    exchangeRate = _decimals.div(_dollars_per_token);\n    emit LogSetExchangeRate(msg.sender, _dollars_per_token, exchangeRate);\n  }\n\n  function _setETHXRateOverride(uint256 _dollars_per_eth)\n    internal\n  {\n    USDTETH = _dollars_per_eth;\n    emit LogSetETHXRateOverride(msg.sender, _dollars_per_eth);\n  }\n\n  function _setOracleTaxOverride(uint256 _oracleTax)\n    internal\n  {\n    oracleTax = _oracleTax;\n    emit LogSetOracleTaxOverride(msg.sender, _oracleTax);\n  }\n\n  function _setQueryURL(string _url)\n    internal\n  {\n    queryURL = _url;\n    emit LogSetQueryURL(msg.sender, _url);\n  }\n\n  function _setOraclizePriceType(string _type)\n    internal\n  {\n    oraclizePriceType = _type;\n    emit LogSetOraclizePriceType(msg.sender, _type);\n  }\n\n  function kill()\n    onlyOwner\n    public\n  {\n    selfdestruct(owner());\n  }\n\n\n}\n",
  "sourcePath": "/home/vagrant/DAPPS/tokenShopApp/contracts/ERC20TokenShop.sol",
  "compiler": {
    "name": "solc",
    "version": "0.4.24+commit.e67f0147.Emscripten.clang"
  },
  "schemaVersion": "2.0.1",
  "updatedAt": "2018-10-09T21:17:51.278Z"
}