{
  "contractName": "ERC20TokenStore",
  "abi": [
    {
      "constant": true,
      "inputs": [],
      "name": "storeStock",
      "outputs": [
        {
          "name": "",
          "type": "uint256"
        }
      ],
      "payable": false,
      "stateMutability": "view",
      "type": "function"
    },
    {
      "constant": true,
      "inputs": [],
      "name": "exchangeRate",
      "outputs": [
        {
          "name": "",
          "type": "uint256"
        }
      ],
      "payable": false,
      "stateMutability": "view",
      "type": "function"
    },
    {
      "constant": false,
      "inputs": [],
      "name": "unpause",
      "outputs": [],
      "payable": false,
      "stateMutability": "nonpayable",
      "type": "function"
    },
    {
      "constant": true,
      "inputs": [
        {
          "name": "account",
          "type": "address"
        }
      ],
      "name": "isPauser",
      "outputs": [
        {
          "name": "",
          "type": "bool"
        }
      ],
      "payable": false,
      "stateMutability": "view",
      "type": "function"
    },
    {
      "constant": true,
      "inputs": [],
      "name": "paused",
      "outputs": [
        {
          "name": "",
          "type": "bool"
        }
      ],
      "payable": false,
      "stateMutability": "view",
      "type": "function"
    },
    {
      "constant": false,
      "inputs": [],
      "name": "renouncePauser",
      "outputs": [],
      "payable": false,
      "stateMutability": "nonpayable",
      "type": "function"
    },
    {
      "constant": false,
      "inputs": [],
      "name": "renounceOwnership",
      "outputs": [],
      "payable": false,
      "stateMutability": "nonpayable",
      "type": "function"
    },
    {
      "constant": false,
      "inputs": [
        {
          "name": "account",
          "type": "address"
        }
      ],
      "name": "addPauser",
      "outputs": [],
      "payable": false,
      "stateMutability": "nonpayable",
      "type": "function"
    },
    {
      "constant": false,
      "inputs": [],
      "name": "pause",
      "outputs": [],
      "payable": false,
      "stateMutability": "nonpayable",
      "type": "function"
    },
    {
      "constant": true,
      "inputs": [],
      "name": "owner",
      "outputs": [
        {
          "name": "",
          "type": "address"
        }
      ],
      "payable": false,
      "stateMutability": "view",
      "type": "function"
    },
    {
      "constant": true,
      "inputs": [],
      "name": "isOwner",
      "outputs": [
        {
          "name": "",
          "type": "bool"
        }
      ],
      "payable": false,
      "stateMutability": "view",
      "type": "function"
    },
    {
      "constant": true,
      "inputs": [],
      "name": "USDTETH",
      "outputs": [
        {
          "name": "",
          "type": "uint256"
        }
      ],
      "payable": false,
      "stateMutability": "view",
      "type": "function"
    },
    {
      "constant": false,
      "inputs": [
        {
          "name": "newOwner",
          "type": "address"
        }
      ],
      "name": "transferOwnership",
      "outputs": [],
      "payable": false,
      "stateMutability": "nonpayable",
      "type": "function"
    },
    {
      "inputs": [
        {
          "name": "_instance",
          "type": "address"
        }
      ],
      "payable": false,
      "stateMutability": "nonpayable",
      "type": "constructor"
    },
    {
      "anonymous": false,
      "inputs": [
        {
          "indexed": false,
          "name": "eSender",
          "type": "address"
        },
        {
          "indexed": false,
          "name": "eValue",
          "type": "uint256"
        },
        {
          "indexed": false,
          "name": "eTokenAmount",
          "type": "uint256"
        }
      ],
      "name": "LogBuyToken",
      "type": "event"
    },
    {
      "anonymous": false,
      "inputs": [
        {
          "indexed": false,
          "name": "eSender",
          "type": "address"
        },
        {
          "indexed": false,
          "name": "eTokenStock",
          "type": "uint256"
        },
        {
          "indexed": false,
          "name": "eStoreStock",
          "type": "uint256"
        }
      ],
      "name": "LogSetStoreStock",
      "type": "event"
    },
    {
      "anonymous": false,
      "inputs": [
        {
          "indexed": false,
          "name": "eSender",
          "type": "address"
        },
        {
          "indexed": false,
          "name": "eRate",
          "type": "uint256"
        },
        {
          "indexed": false,
          "name": "eExchangeRate",
          "type": "uint256"
        }
      ],
      "name": "LogSetExchangeRate",
      "type": "event"
    },
    {
      "anonymous": false,
      "inputs": [
        {
          "indexed": false,
          "name": "eSender",
          "type": "address"
        },
        {
          "indexed": false,
          "name": "eETHXRate",
          "type": "uint256"
        }
      ],
      "name": "LogSetETHXRate",
      "type": "event"
    },
    {
      "anonymous": false,
      "inputs": [
        {
          "indexed": false,
          "name": "eSender",
          "type": "address"
        },
        {
          "indexed": false,
          "name": "eValue",
          "type": "uint256"
        }
      ],
      "name": "LogDeposit",
      "type": "event"
    },
    {
      "anonymous": false,
      "inputs": [
        {
          "indexed": false,
          "name": "eSender",
          "type": "address"
        },
        {
          "indexed": false,
          "name": "eValue",
          "type": "uint256"
        }
      ],
      "name": "LogWithdraw",
      "type": "event"
    },
    {
      "anonymous": false,
      "inputs": [],
      "name": "Paused",
      "type": "event"
    },
    {
      "anonymous": false,
      "inputs": [],
      "name": "Unpaused",
      "type": "event"
    },
    {
      "anonymous": false,
      "inputs": [
        {
          "indexed": true,
          "name": "account",
          "type": "address"
        }
      ],
      "name": "PauserAdded",
      "type": "event"
    },
    {
      "anonymous": false,
      "inputs": [
        {
          "indexed": true,
          "name": "account",
          "type": "address"
        }
      ],
      "name": "PauserRemoved",
      "type": "event"
    },
    {
      "anonymous": false,
      "inputs": [
        {
          "indexed": true,
          "name": "previousOwner",
          "type": "address"
        }
      ],
      "name": "OwnershipRenounced",
      "type": "event"
    },
    {
      "anonymous": false,
      "inputs": [
        {
          "indexed": true,
          "name": "previousOwner",
          "type": "address"
        },
        {
          "indexed": true,
          "name": "newOwner",
          "type": "address"
        }
      ],
      "name": "OwnershipTransferred",
      "type": "event"
    },
    {
      "constant": true,
      "inputs": [],
      "name": "getTokenSupply",
      "outputs": [
        {
          "name": "",
          "type": "uint256"
        }
      ],
      "payable": false,
      "stateMutability": "view",
      "type": "function"
    },
    {
      "constant": true,
      "inputs": [
        {
          "name": "_account",
          "type": "address"
        }
      ],
      "name": "getTokenBalance",
      "outputs": [
        {
          "name": "",
          "type": "uint256"
        }
      ],
      "payable": false,
      "stateMutability": "view",
      "type": "function"
    },
    {
      "constant": true,
      "inputs": [],
      "name": "getTokenName",
      "outputs": [
        {
          "name": "",
          "type": "string"
        }
      ],
      "payable": false,
      "stateMutability": "view",
      "type": "function"
    },
    {
      "constant": true,
      "inputs": [],
      "name": "getTokenSymbol",
      "outputs": [
        {
          "name": "",
          "type": "string"
        }
      ],
      "payable": false,
      "stateMutability": "view",
      "type": "function"
    },
    {
      "constant": true,
      "inputs": [],
      "name": "getTokenDecimals",
      "outputs": [
        {
          "name": "",
          "type": "uint8"
        }
      ],
      "payable": false,
      "stateMutability": "view",
      "type": "function"
    },
    {
      "constant": false,
      "inputs": [],
      "name": "buyToken",
      "outputs": [
        {
          "name": "",
          "type": "bool"
        }
      ],
      "payable": true,
      "stateMutability": "payable",
      "type": "function"
    },
    {
      "constant": true,
      "inputs": [],
      "name": "getStoreStock",
      "outputs": [
        {
          "name": "",
          "type": "uint256"
        }
      ],
      "payable": false,
      "stateMutability": "view",
      "type": "function"
    },
    {
      "constant": false,
      "inputs": [],
      "name": "setStoreStock",
      "outputs": [
        {
          "name": "",
          "type": "bool"
        }
      ],
      "payable": false,
      "stateMutability": "nonpayable",
      "type": "function"
    },
    {
      "constant": false,
      "inputs": [
        {
          "name": "_dollars_per_token",
          "type": "uint256"
        }
      ],
      "name": "setExchangeRate",
      "outputs": [
        {
          "name": "",
          "type": "bool"
        }
      ],
      "payable": false,
      "stateMutability": "nonpayable",
      "type": "function"
    },
    {
      "constant": false,
      "inputs": [
        {
          "name": "_dollars_per_eth",
          "type": "uint256"
        }
      ],
      "name": "setETHXRate",
      "outputs": [
        {
          "name": "",
          "type": "bool"
        }
      ],
      "payable": false,
      "stateMutability": "nonpayable",
      "type": "function"
    },
    {
      "constant": false,
      "inputs": [],
      "name": "deposit",
      "outputs": [
        {
          "name": "",
          "type": "bool"
        }
      ],
      "payable": true,
      "stateMutability": "payable",
      "type": "function"
    },
    {
      "constant": false,
      "inputs": [
        {
          "name": "_amount",
          "type": "uint256"
        }
      ],
      "name": "withdraw",
      "outputs": [
        {
          "name": "",
          "type": "bool"
        }
      ],
      "payable": false,
      "stateMutability": "nonpayable",
      "type": "function"
    }
  ],
  "bytecode": "0x60806040526002805460ff1916905534801561001a57600080fd5b506040516020806110fc833981016040525160008054600160a060020a0319163390811790915561005a90600190640100000000610df361009182021704565b60028054600160a060020a039092166101000261010060a860020a0319909216919091179055670de0b6b3a76400006003556100cb565b600160a060020a03811615156100a657600080fd5b600160a060020a0316600090815260209190915260409020805460ff19166001179055565b611022806100da6000396000f3006080604052600436106101485763ffffffff7c010000000000000000000000000000000000000000000000000000000060003504166315b13b76811461014d57806324f65ee714610174578063274876471461019f5780632e1a7d4d146101b45780633aecd0e3146101e05780633ba0b9a9146102015780633f4ba83a1461021657806346fbf68e1461022d5780635c975abb1461024e5780636ef8d66d14610263578063715018a61461027857806382dc1ec41461028d5780638456cb59146102ae578063862b092b146102c35780638da5cb5b1461034d5780638f32d59b1461037e5780638f6112d414610393578063a4821719146103a8578063ad974f4c146103b0578063bd01bc14146103c5578063d0e30db0146103dd578063db068e0e146103e5578063e0eb576d146103fd578063f1850af814610412578063f2fde38b14610427575b600080fd5b34801561015957600080fd5b50610162610448565b60408051918252519081900360200190f35b34801561018057600080fd5b5061018961044e565b6040805160ff9092168252519081900360200190f35b3480156101ab57600080fd5b506101626104ed565b3480156101c057600080fd5b506101cc6004356104f3565b604080519115158252519081900360200190f35b3480156101ec57600080fd5b50610162600160a060020a03600435166105ad565b34801561020d57600080fd5b5061016261064e565b34801561022257600080fd5b5061022b610654565b005b34801561023957600080fd5b506101cc600160a060020a03600435166106ae565b34801561025a57600080fd5b506101cc6106c7565b34801561026f57600080fd5b5061022b6106d0565b34801561028457600080fd5b5061022b6106e3565b34801561029957600080fd5b5061022b600160a060020a036004351661074b565b3480156102ba57600080fd5b5061022b6107a7565b3480156102cf57600080fd5b506102d8610803565b6040805160208082528351818301528351919283929083019185019080838360005b838110156103125781810151838201526020016102fa565b50505050905090810190601f16801561033f5780820380516001836020036101000a031916815260200191505b509250505060405180910390f35b34801561035957600080fd5b506103626108fe565b60408051600160a060020a039092168252519081900360200190f35b34801561038a57600080fd5b506101cc61090d565b34801561039f57600080fd5b506101cc61091e565b6101cc610a2c565b3480156103bc57600080fd5b50610162610bba565b3480156103d157600080fd5b506101cc600435610c28565b6101cc610c5f565b3480156103f157600080fd5b506101cc600435610cc4565b34801561040957600080fd5b50610162610cf2565b34801561041e57600080fd5b506102d8610cf8565b34801561043357600080fd5b5061022b600160a060020a0360043516610d66565b60055481565b6000600260019054906101000a9004600160a060020a0316600160a060020a031663313ce5676040518163ffffffff167c0100000000000000000000000000000000000000000000000000000000028152600401602060405180830381600087803b1580156104bc57600080fd5b505af11580156104d0573d6000803e3d6000fd5b505050506040513d60208110156104e657600080fd5b5051905090565b60055490565b6000806104fe61090d565b151561050957600080fd5b60025460ff161561051957600080fd5b303183111561052757600080fd5b61052f6108fe565b604080513381526020810186905281519293507f4ce7033d118120e254016dccf195288400b28fc8936425acd5f17ce2df3ab708929081900390910190a1604051600160a060020a0382169084156108fc029085906000818181858888f193505050501580156105a3573d6000803e3d6000fd5b5060019392505050565b600254604080517f70a08231000000000000000000000000000000000000000000000000000000008152600160a060020a03848116600483015291516000936101009004909216916370a082319160248082019260209290919082900301818787803b15801561061c57600080fd5b505af1158015610630573d6000803e3d6000fd5b505050506040513d602081101561064657600080fd5b505192915050565b60035481565b61065d336106ae565b151561066857600080fd5b60025460ff16151561067957600080fd5b6002805460ff191690556040517fa45f47fdea8a1efdd9029a5691c7f759c32b7c698632b563573e155625d1693390600090a1565b60006106c160018363ffffffff610d8516565b92915050565b60025460ff1690565b6106e160013363ffffffff610dbc16565b565b6106eb61090d565b15156106f657600080fd5b60008054604051600160a060020a03909116917ff8df31144d9c2f0f6b59d69b8b98abd5459d07f2742c4df920b25aae33c6482091a26000805473ffffffffffffffffffffffffffffffffffffffff19169055565b610754336106ae565b151561075f57600080fd5b61077060018263ffffffff610df316565b604051600160a060020a038216907f6719d08c1888103bea251a4ed56406bd0c3e69723c8a1686e017e7bbe159b6f890600090a250565b6107b0336106ae565b15156107bb57600080fd5b60025460ff16156107cb57600080fd5b6002805460ff191660011790556040517f9e87fac88ff661f02d44f95383c817fece4bce600a3dab7a54406878b965e75290600090a1565b6060600260019054906101000a9004600160a060020a0316600160a060020a03166306fdde036040518163ffffffff167c0100000000000000000000000000000000000000000000000000000000028152600401600060405180830381600087803b15801561087157600080fd5b505af1158015610885573d6000803e3d6000fd5b505050506040513d6000823e601f3d908101601f1916820160405260208110156108ae57600080fd5b8101908080516401000000008111156108c657600080fd5b820160208101848111156108d957600080fd5b81516401000000008111828201871017156108f357600080fd5b509094505050505090565b600054600160a060020a031690565b600054600160a060020a0316331490565b600254600090819060ff161561093357600080fd5b600254604080517f70a082310000000000000000000000000000000000000000000000000000000081523060048201529051610100909204600160a060020a0316916370a08231916024808201926020929091908290030181600087803b15801561099d57600080fd5b505af11580156109b1573d6000803e3d6000fd5b505050506040513d60208110156109c757600080fd5b50516005549091506109df908263ffffffff610e2d16565b6005819055604080513381526020810184905280820192909252517fc41ef085b5c6f3b67c50e7f4e99fe68389a096f2746df4fb6948c721bfc359ac9181900360600190a1600191505090565b600254600090819060ff1615610a4157600080fd5b60003411610a4e57600080fd5b600554600010610a5d57600080fd5b610a8c670de0b6b3a7640000610a80600454600354610e4a90919063ffffffff16565b9063ffffffff610e7816565b341015610a9857600080fd5b610acb670de0b6b3a7640000610a80600454610abf60035434610e4a90919063ffffffff16565b9063ffffffff610e4a16565b9050610ad561091e565b506040805133815234602082015280820183905290517f3bb720dcc9b5b2218b19a41ca92774fd6a9308760642254fcdb9c7ccc7a42e7e9181900360600190a1600254604080517fa9059cbb000000000000000000000000000000000000000000000000000000008152336004820152602481018490529051610100909204600160a060020a03169163a9059cbb916044808201926020929091908290030181600087803b158015610b8657600080fd5b505af1158015610b9a573d6000803e3d6000fd5b505050506040513d6020811015610bb057600080fd5b5060019250505090565b6000600260019054906101000a9004600160a060020a0316600160a060020a03166318160ddd6040518163ffffffff167c0100000000000000000000000000000000000000000000000000000000028152600401602060405180830381600087803b1580156104bc57600080fd5b6000610c3261090d565b1515610c3d57600080fd5b60025460ff1615610c4d57600080fd5b610c5682610e9b565b50600192915050565b6000610c6961090d565b1515610c7457600080fd5b60025460ff1615610c8457600080fd5b6040805133815234602082015281517f1b851e1031ef35a238e6c67d0c7991162390df915f70eaf9098dbf0b175a6198929181900390910190a150600190565b6000610cce61090d565b1515610cd957600080fd5b60025460ff1615610ce957600080fd5b610c5682610ef6565b60045481565b6060600260019054906101000a9004600160a060020a0316600160a060020a03166395d89b416040518163ffffffff167c0100000000000000000000000000000000000000000000000000000000028152600401600060405180830381600087803b15801561087157600080fd5b610d6e61090d565b1515610d7957600080fd5b610d8281610f79565b50565b6000600160a060020a0382161515610d9c57600080fd5b50600160a060020a03166000908152602091909152604090205460ff1690565b600160a060020a0381161515610dd157600080fd5b600160a060020a0316600090815260209190915260409020805460ff19169055565b600160a060020a0381161515610e0857600080fd5b600160a060020a0316600090815260209190915260409020805460ff19166001179055565b600082820183811015610e3f57600080fd5b8091505b5092915050565b600080831515610e5d5760009150610e43565b50828202828482811515610e6d57fe5b0414610e3f57600080fd5b600080808311610e8757600080fd5b8284811515610e9257fe5b04949350505050565b60025460009060ff1615610eae57600080fd5b6004829055604080513381526020810184905281517f62681e381a36267c9e75a4ca6f45f6854f1cfe05097763da36f01479c63e0631929181900390910190a1506001919050565b600254600090819060ff1615610f0b57600080fd5b610f1361044e565b60ff16600a0a9050610f2b818463ffffffff610e7816565b6003819055604080513381526020810186905280820192909252517f8e7e19c3c2da501e28433f232b7ab951190311c0f3b0a68c2467b9adb39a06e89181900360600190a150600192915050565b600160a060020a0381161515610f8e57600080fd5b60008054604051600160a060020a03808516939216917f8be0079c531659141344cd1fd0a4f28419497f9722a3daafe3b4186f6b6457e091a36000805473ffffffffffffffffffffffffffffffffffffffff1916600160a060020a03929092169190911790555600a165627a7a723058209d858431777d24ae9d65d05c4be85524559722061164c7b7b00b6a658bbda10c0029",
  "source": "pragma solidity ^0.4.24;\n\nimport 'openzeppelin-solidity/contracts/ownership/Ownable.sol';\nimport 'openzeppelin-solidity/contracts/lifecycle/Pausable.sol';\nimport 'openzeppelin-solidity/contracts/math/SafeMath.sol';\n\ninterface Token {\n  function totalSupply() external view returns (uint256);\n\n  function balanceOf(address owner) external view returns (uint256);\n\n  function name() external view returns(string);\n\n  function symbol() external view returns(string);\n\n  function decimals() external view returns(uint8);\n\n  function allowance(address owner, address spender) external view returns (uint256);\n\n  function transfer(address to, uint256 value) external returns (bool);\n\n  function approve(address spender, uint256 value) external returns (bool);\n}\n\ncontract ERC20TokenStore is Ownable, Pausable {\n  using SafeMath for uint256;\n\n  Token tokenContract;\n\n  uint256 public exchangeRate;\n  uint256 public USDTETH;\n  uint256 public storeStock;\n\n  event LogBuyToken(address eSender, uint256 eValue, uint256 eTokenAmount);\n  event LogSetStoreStock(address eSender, uint256 eTokenStock, uint256 eStoreStock);\n  event LogSetExchangeRate(address eSender, uint256 eRate, uint256 eExchangeRate);\n  event LogSetETHXRate(address eSender, uint256 eETHXRate);\n  event LogDeposit(address eSender, uint256 eValue);\n  event LogWithdraw(address eSender, uint256 eValue);\n\n  //Default exchange rate is $1/Token\n  constructor(address _instance) public {\n    tokenContract = Token(_instance);\n    exchangeRate = 1000000000000000000;\n  }\n\n  //Token functions\n  function getTokenSupply() public view returns (uint256) {\n    return tokenContract.totalSupply();\n  }\n\n  function getTokenBalance(address _account) public view returns (uint256) {\n    return tokenContract.balanceOf(_account);\n  }\n\n  function getTokenName() public view returns (string) {\n    return tokenContract.name();\n  }\n\n  function getTokenSymbol() public view returns (string) {\n    return tokenContract.symbol();\n  }\n\n  function getTokenDecimals() public view returns (uint8) {\n    return tokenContract.decimals();\n  }\n\n  //User functions\n  function buyToken()\n  whenNotPaused\n  public\n  payable\n  returns (bool)\n  {\n    require(msg.value > 0);\n    require(storeStock > 0);\n    require(msg.value >= exchangeRate.mul(USDTETH).div(10**18));\n    //wei to token bit conversion via dollars\n    //$ per ETH * ETH per wei * (1 / $ per tokenbit) = tokenbit per wei\n    uint256 _amount;\n    _amount = msg.value.mul(exchangeRate).mul(USDTETH).div(10**(18));\n    setStoreStock();\n    emit LogBuyToken(msg.sender, msg.value, _amount);\n    tokenContract.transfer(msg.sender, _amount);\n    return true;\n  }\n\n  //Store functions\n  function getStoreStock() public view returns (uint256) {\n    return storeStock;\n  }\n\n  function setStoreStock()\n  whenNotPaused\n  public\n  returns (bool)\n  {\n    uint256 _stock;\n    _stock =  tokenContract.balanceOf(address(this));\n    storeStock = storeStock.add(_stock);\n    emit LogSetStoreStock(msg.sender, _stock, storeStock);\n    return true;\n  }\n\n  //Exchange rate in Dollars (i.e. Tokens per dollar)\n  function setExchangeRate(uint256 _dollars_per_token)\n  onlyOwner\n  whenNotPaused\n  public\n  returns (bool)\n  {\n    _setExchangeRate(_dollars_per_token);\n    return true;\n  }\n\n  function setETHXRate(uint256 _dollars_per_eth)\n  onlyOwner\n  whenNotPaused\n  public\n  returns (bool)\n  {\n    _setETHXRate(_dollars_per_eth);\n    return true;\n  }\n\n  function deposit()\n  onlyOwner\n  whenNotPaused\n  payable\n  public\n  returns (bool)\n  {\n    emit LogDeposit(msg.sender, msg.value);\n    return true;\n  }\n\n  function withdraw(uint256 _amount)\n  onlyOwner\n  whenNotPaused\n  public\n  returns (bool)\n  {\n    require(address(this).balance >= _amount);\n    address _owner;\n    _owner = owner();\n    emit LogWithdraw(msg.sender, _amount);\n    _owner.transfer(_amount);\n    return true;\n  }\n\n  //Internal functions\n  function _setExchangeRate(uint256 _dollars_per_token)\n  whenNotPaused\n  internal\n  returns (bool)\n  {\n    uint256 _decimals = getTokenDecimals();\n    _decimals = 10**(_decimals);\n    exchangeRate = _decimals.div(_dollars_per_token);\n    emit LogSetExchangeRate(msg.sender, _dollars_per_token, exchangeRate);\n    return true;\n  }\n\n  function _setETHXRate(uint256 _dollars_per_eth)\n  whenNotPaused\n  internal\n  returns (bool)\n  {\n    USDTETH = _dollars_per_eth;\n    emit LogSetETHXRate(msg.sender, _dollars_per_eth);\n    return true;\n  }\n\n\n}\n",
  "sourcePath": "/home/vagrant/DAPPS/tokenShopApp/contracts/ERC20TokenStore.sol",
  "compiler": {
    "name": "solc",
    "version": "0.4.24+commit.e67f0147.Emscripten.clang"
  },
  "schemaVersion": "2.0.1",
  "updatedAt": "2018-09-26T05:15:55.016Z"
}