{
  "contractName": "ERC20TokenShop",
  "abi": [
    {
      "constant": true,
      "inputs": [],
      "name": "exchangeRate",
      "outputs": [
        {
          "name": "",
          "type": "uint256"
        }
      ],
      "payable": false,
      "stateMutability": "view",
      "type": "function"
    },
    {
      "constant": false,
      "inputs": [],
      "name": "unpause",
      "outputs": [],
      "payable": false,
      "stateMutability": "nonpayable",
      "type": "function"
    },
    {
      "constant": true,
      "inputs": [
        {
          "name": "account",
          "type": "address"
        }
      ],
      "name": "isPauser",
      "outputs": [
        {
          "name": "",
          "type": "bool"
        }
      ],
      "payable": false,
      "stateMutability": "view",
      "type": "function"
    },
    {
      "constant": true,
      "inputs": [],
      "name": "paused",
      "outputs": [
        {
          "name": "",
          "type": "bool"
        }
      ],
      "payable": false,
      "stateMutability": "view",
      "type": "function"
    },
    {
      "constant": false,
      "inputs": [],
      "name": "renouncePauser",
      "outputs": [],
      "payable": false,
      "stateMutability": "nonpayable",
      "type": "function"
    },
    {
      "constant": false,
      "inputs": [],
      "name": "renounceOwnership",
      "outputs": [],
      "payable": false,
      "stateMutability": "nonpayable",
      "type": "function"
    },
    {
      "constant": false,
      "inputs": [
        {
          "name": "account",
          "type": "address"
        }
      ],
      "name": "addPauser",
      "outputs": [],
      "payable": false,
      "stateMutability": "nonpayable",
      "type": "function"
    },
    {
      "constant": false,
      "inputs": [],
      "name": "pause",
      "outputs": [],
      "payable": false,
      "stateMutability": "nonpayable",
      "type": "function"
    },
    {
      "constant": true,
      "inputs": [],
      "name": "owner",
      "outputs": [
        {
          "name": "",
          "type": "address"
        }
      ],
      "payable": false,
      "stateMutability": "view",
      "type": "function"
    },
    {
      "constant": true,
      "inputs": [],
      "name": "isOwner",
      "outputs": [
        {
          "name": "",
          "type": "bool"
        }
      ],
      "payable": false,
      "stateMutability": "view",
      "type": "function"
    },
    {
      "constant": true,
      "inputs": [],
      "name": "USDTETH",
      "outputs": [
        {
          "name": "",
          "type": "uint256"
        }
      ],
      "payable": false,
      "stateMutability": "view",
      "type": "function"
    },
    {
      "constant": false,
      "inputs": [
        {
          "name": "newOwner",
          "type": "address"
        }
      ],
      "name": "transferOwnership",
      "outputs": [],
      "payable": false,
      "stateMutability": "nonpayable",
      "type": "function"
    },
    {
      "inputs": [
        {
          "name": "_instance",
          "type": "address"
        }
      ],
      "payable": false,
      "stateMutability": "nonpayable",
      "type": "constructor"
    },
    {
      "anonymous": false,
      "inputs": [
        {
          "indexed": false,
          "name": "eSender",
          "type": "address"
        },
        {
          "indexed": false,
          "name": "eValue",
          "type": "uint256"
        },
        {
          "indexed": false,
          "name": "eTokenAmount",
          "type": "uint256"
        }
      ],
      "name": "LogBuyToken",
      "type": "event"
    },
    {
      "anonymous": false,
      "inputs": [
        {
          "indexed": false,
          "name": "eSender",
          "type": "address"
        },
        {
          "indexed": false,
          "name": "eRate",
          "type": "uint256"
        },
        {
          "indexed": false,
          "name": "eExchangeRate",
          "type": "uint256"
        }
      ],
      "name": "LogSetExchangeRate",
      "type": "event"
    },
    {
      "anonymous": false,
      "inputs": [
        {
          "indexed": false,
          "name": "eSender",
          "type": "address"
        },
        {
          "indexed": false,
          "name": "eETHXRate",
          "type": "uint256"
        }
      ],
      "name": "LogSetETHXRate",
      "type": "event"
    },
    {
      "anonymous": false,
      "inputs": [
        {
          "indexed": false,
          "name": "eSender",
          "type": "address"
        },
        {
          "indexed": false,
          "name": "eValue",
          "type": "uint256"
        }
      ],
      "name": "LogDeposit",
      "type": "event"
    },
    {
      "anonymous": false,
      "inputs": [
        {
          "indexed": false,
          "name": "eSender",
          "type": "address"
        },
        {
          "indexed": false,
          "name": "eValue",
          "type": "uint256"
        }
      ],
      "name": "LogWithdraw",
      "type": "event"
    },
    {
      "anonymous": false,
      "inputs": [],
      "name": "Paused",
      "type": "event"
    },
    {
      "anonymous": false,
      "inputs": [],
      "name": "Unpaused",
      "type": "event"
    },
    {
      "anonymous": false,
      "inputs": [
        {
          "indexed": true,
          "name": "account",
          "type": "address"
        }
      ],
      "name": "PauserAdded",
      "type": "event"
    },
    {
      "anonymous": false,
      "inputs": [
        {
          "indexed": true,
          "name": "account",
          "type": "address"
        }
      ],
      "name": "PauserRemoved",
      "type": "event"
    },
    {
      "anonymous": false,
      "inputs": [
        {
          "indexed": true,
          "name": "previousOwner",
          "type": "address"
        }
      ],
      "name": "OwnershipRenounced",
      "type": "event"
    },
    {
      "anonymous": false,
      "inputs": [
        {
          "indexed": true,
          "name": "previousOwner",
          "type": "address"
        },
        {
          "indexed": true,
          "name": "newOwner",
          "type": "address"
        }
      ],
      "name": "OwnershipTransferred",
      "type": "event"
    },
    {
      "constant": true,
      "inputs": [],
      "name": "getTokenSupply",
      "outputs": [
        {
          "name": "",
          "type": "uint256"
        }
      ],
      "payable": false,
      "stateMutability": "view",
      "type": "function"
    },
    {
      "constant": true,
      "inputs": [
        {
          "name": "_account",
          "type": "address"
        }
      ],
      "name": "getTokenBalance",
      "outputs": [
        {
          "name": "",
          "type": "uint256"
        }
      ],
      "payable": false,
      "stateMutability": "view",
      "type": "function"
    },
    {
      "constant": true,
      "inputs": [],
      "name": "getTokenName",
      "outputs": [
        {
          "name": "",
          "type": "string"
        }
      ],
      "payable": false,
      "stateMutability": "view",
      "type": "function"
    },
    {
      "constant": true,
      "inputs": [],
      "name": "getTokenSymbol",
      "outputs": [
        {
          "name": "",
          "type": "string"
        }
      ],
      "payable": false,
      "stateMutability": "view",
      "type": "function"
    },
    {
      "constant": true,
      "inputs": [],
      "name": "getTokenDecimals",
      "outputs": [
        {
          "name": "",
          "type": "uint8"
        }
      ],
      "payable": false,
      "stateMutability": "view",
      "type": "function"
    },
    {
      "constant": false,
      "inputs": [],
      "name": "buyToken",
      "outputs": [
        {
          "name": "",
          "type": "bool"
        }
      ],
      "payable": true,
      "stateMutability": "payable",
      "type": "function"
    },
    {
      "constant": true,
      "inputs": [],
      "name": "getShopStock",
      "outputs": [
        {
          "name": "",
          "type": "uint256"
        }
      ],
      "payable": false,
      "stateMutability": "view",
      "type": "function"
    },
    {
      "constant": false,
      "inputs": [
        {
          "name": "_dollars_per_token",
          "type": "uint256"
        }
      ],
      "name": "setExchangeRate",
      "outputs": [
        {
          "name": "",
          "type": "bool"
        }
      ],
      "payable": false,
      "stateMutability": "nonpayable",
      "type": "function"
    },
    {
      "constant": false,
      "inputs": [
        {
          "name": "_dollars_per_eth",
          "type": "uint256"
        }
      ],
      "name": "setETHXRate",
      "outputs": [
        {
          "name": "",
          "type": "bool"
        }
      ],
      "payable": false,
      "stateMutability": "nonpayable",
      "type": "function"
    },
    {
      "constant": false,
      "inputs": [],
      "name": "deposit",
      "outputs": [
        {
          "name": "",
          "type": "bool"
        }
      ],
      "payable": true,
      "stateMutability": "payable",
      "type": "function"
    },
    {
      "constant": false,
      "inputs": [
        {
          "name": "_amount",
          "type": "uint256"
        }
      ],
      "name": "withdraw",
      "outputs": [
        {
          "name": "",
          "type": "bool"
        }
      ],
      "payable": false,
      "stateMutability": "nonpayable",
      "type": "function"
    },
    {
      "constant": false,
      "inputs": [],
      "name": "kill",
      "outputs": [],
      "payable": false,
      "stateMutability": "nonpayable",
      "type": "function"
    }
  ],
  "bytecode": "0x60806040526002805460ff1916905534801561001a57600080fd5b506040516020806111fc833981016040525160008054600160a060020a031916339081179091556100539064010000000061008a810204565b60028054600160a060020a039092166101000261010060a860020a0319909216919091179055670de0b6b3a7640000600355610113565b6100a26001826401000000006110746100d982021704565b604051600160a060020a038216907f6719d08c1888103bea251a4ed56406bd0c3e69723c8a1686e017e7bbe159b6f890600090a250565b600160a060020a03811615156100ee57600080fd5b600160a060020a0316600090815260209190915260409020805460ff19166001179055565b6110da806101226000396000f30060806040526004361061013d5763ffffffff7c010000000000000000000000000000000000000000000000000000000060003504166324f65ee781146101425780632e1a7d4d1461016d5780633aecd0e3146101995780633ba0b9a9146101cc5780633f4ba83a146101e157806341c0e1b5146101f857806346fbf68e1461020d5780635c975abb1461022e57806360c07e74146102435780636ef8d66d14610258578063715018a61461026d57806382dc1ec4146102825780638456cb59146102a3578063862b092b146102b85780638da5cb5b146103425780638f32d59b14610373578063a482171914610388578063ad974f4c14610390578063bd01bc14146103a5578063d0e30db0146103bd578063db068e0e146103c5578063e0eb576d146103dd578063f1850af8146103f2578063f2fde38b14610407575b600080fd5b34801561014e57600080fd5b50610157610428565b6040805160ff9092168252519081900360200190f35b34801561017957600080fd5b506101856004356104c7565b604080519115158252519081900360200190f35b3480156101a557600080fd5b506101ba600160a060020a0360043516610581565b60408051918252519081900360200190f35b3480156101d857600080fd5b506101ba610622565b3480156101ed57600080fd5b506101f6610628565b005b34801561020457600080fd5b506101f6610682565b34801561021957600080fd5b50610185600160a060020a03600435166106a8565b34801561023a57600080fd5b506101856106c1565b34801561024f57600080fd5b506101ba6106ca565b34801561026457600080fd5b506101f6610734565b34801561027957600080fd5b506101f661073f565b34801561028e57600080fd5b506101f6600160a060020a03600435166107a7565b3480156102af57600080fd5b506101f66107c7565b3480156102c457600080fd5b506102cd610823565b6040805160208082528351818301528351919283929083019185019080838360005b838110156103075781810151838201526020016102ef565b50505050905090810190601f1680156103345780820380516001836020036101000a031916815260200191505b509250505060405180910390f35b34801561034e57600080fd5b5061035761091e565b60408051600160a060020a039092168252519081900360200190f35b34801561037f57600080fd5b5061018561092d565b61018561093e565b34801561039c57600080fd5b506101ba610bf7565b3480156103b157600080fd5b50610185600435610c65565b610185610c9c565b3480156103d157600080fd5b50610185600435610d01565b3480156103e957600080fd5b506101ba610d2f565b3480156103fe57600080fd5b506102cd610d35565b34801561041357600080fd5b506101f6600160a060020a0360043516610da3565b6000600260019054906101000a9004600160a060020a0316600160a060020a031663313ce5676040518163ffffffff167c0100000000000000000000000000000000000000000000000000000000028152600401602060405180830381600087803b15801561049657600080fd5b505af11580156104aa573d6000803e3d6000fd5b505050506040513d60208110156104c057600080fd5b5051905090565b6000806104d261092d565b15156104dd57600080fd5b60025460ff16156104ed57600080fd5b30318311156104fb57600080fd5b61050361091e565b604080513381526020810186905281519293507f4ce7033d118120e254016dccf195288400b28fc8936425acd5f17ce2df3ab708929081900390910190a1604051600160a060020a0382169084156108fc029085906000818181858888f19350505050158015610577573d6000803e3d6000fd5b5060019392505050565b600254604080517f70a08231000000000000000000000000000000000000000000000000000000008152600160a060020a03848116600483015291516000936101009004909216916370a082319160248082019260209290919082900301818787803b1580156105f057600080fd5b505af1158015610604573d6000803e3d6000fd5b505050506040513d602081101561061a57600080fd5b505192915050565b60035481565b610631336106a8565b151561063c57600080fd5b60025460ff16151561064d57600080fd5b6002805460ff191690556040517fa45f47fdea8a1efdd9029a5691c7f759c32b7c698632b563573e155625d1693390600090a1565b61068a61092d565b151561069557600080fd5b61069d61091e565b600160a060020a0316ff5b60006106bb60018363ffffffff610dbf16565b92915050565b60025460ff1690565b600254604080517f70a0823100000000000000000000000000000000000000000000000000000000815230600482015290516000926101009004600160a060020a0316916370a0823191602480830192602092919082900301818787803b15801561049657600080fd5b61073d33610df6565b565b61074761092d565b151561075257600080fd5b60008054604051600160a060020a03909116917ff8df31144d9c2f0f6b59d69b8b98abd5459d07f2742c4df920b25aae33c6482091a26000805473ffffffffffffffffffffffffffffffffffffffff19169055565b6107b0336106a8565b15156107bb57600080fd5b6107c481610e3e565b50565b6107d0336106a8565b15156107db57600080fd5b60025460ff16156107eb57600080fd5b6002805460ff191660011790556040517f9e87fac88ff661f02d44f95383c817fece4bce600a3dab7a54406878b965e75290600090a1565b6060600260019054906101000a9004600160a060020a0316600160a060020a03166306fdde036040518163ffffffff167c0100000000000000000000000000000000000000000000000000000000028152600401600060405180830381600087803b15801561089157600080fd5b505af11580156108a5573d6000803e3d6000fd5b505050506040513d6000823e601f3d908101601f1916820160405260208110156108ce57600080fd5b8101908080516401000000008111156108e657600080fd5b820160208101848111156108f957600080fd5b815164010000000081118282018710171561091357600080fd5b509094505050505090565b600054600160a060020a031690565b600054600160a060020a0316331490565b600254600090819060ff161561095357600080fd5b6000341161096057600080fd5b600254604080517f70a0823100000000000000000000000000000000000000000000000000000000815230600482015290516000926101009004600160a060020a0316916370a0823191602480830192602092919082900301818787803b1580156109ca57600080fd5b505af11580156109de573d6000803e3d6000fd5b505050506040513d60208110156109f457600080fd5b505111610a0057600080fd5b600254604080517f70a08231000000000000000000000000000000000000000000000000000000008152306004820152905134926101009004600160a060020a0316916370a082319160248083019260209291908290030181600087803b158015610a6a57600080fd5b505af1158015610a7e573d6000803e3d6000fd5b505050506040513d6020811015610a9457600080fd5b50511015610aa157600080fd5b610ad0670de0b6b3a7640000610ac4600454600354610e8690919063ffffffff16565b9063ffffffff610ebf16565b341015610adc57600080fd5b610b0f670de0b6b3a7640000610ac4600454610b0360035434610e8690919063ffffffff16565b9063ffffffff610e8616565b6040805133815234602082015280820183905290519192507f3bb720dcc9b5b2218b19a41ca92774fd6a9308760642254fcdb9c7ccc7a42e7e919081900360600190a1600254604080517fa9059cbb000000000000000000000000000000000000000000000000000000008152336004820152602481018490529051610100909204600160a060020a03169163a9059cbb916044808201926020929091908290030181600087803b158015610bc357600080fd5b505af1158015610bd7573d6000803e3d6000fd5b505050506040513d6020811015610bed57600080fd5b5060019250505090565b6000600260019054906101000a9004600160a060020a0316600160a060020a03166318160ddd6040518163ffffffff167c0100000000000000000000000000000000000000000000000000000000028152600401602060405180830381600087803b15801561049657600080fd5b6000610c6f61092d565b1515610c7a57600080fd5b60025460ff1615610c8a57600080fd5b610c9382610ee2565b50600192915050565b6000610ca661092d565b1515610cb157600080fd5b60025460ff1615610cc157600080fd5b6040805133815234602082015281517f1b851e1031ef35a238e6c67d0c7991162390df915f70eaf9098dbf0b175a6198929181900390910190a150600190565b6000610d0b61092d565b1515610d1657600080fd5b60025460ff1615610d2657600080fd5b610c9382610f3d565b60045481565b6060600260019054906101000a9004600160a060020a0316600160a060020a03166395d89b416040518163ffffffff167c0100000000000000000000000000000000000000000000000000000000028152600401600060405180830381600087803b15801561089157600080fd5b610dab61092d565b1515610db657600080fd5b6107c481610fc0565b6000600160a060020a0382161515610dd657600080fd5b50600160a060020a03166000908152602091909152604090205460ff1690565b610e0760018263ffffffff61103d16565b604051600160a060020a038216907fcd265ebaf09df2871cc7bd4133404a235ba12eff2041bb89d9c714a2621c7c7e90600090a250565b610e4f60018263ffffffff61107416565b604051600160a060020a038216907f6719d08c1888103bea251a4ed56406bd0c3e69723c8a1686e017e7bbe159b6f890600090a250565b600080831515610e995760009150610eb8565b50828202828482811515610ea957fe5b0414610eb457600080fd5b8091505b5092915050565b600080808311610ece57600080fd5b8284811515610ed957fe5b04949350505050565b60025460009060ff1615610ef557600080fd5b6004829055604080513381526020810184905281517f62681e381a36267c9e75a4ca6f45f6854f1cfe05097763da36f01479c63e0631929181900390910190a1506001919050565b600254600090819060ff1615610f5257600080fd5b610f5a610428565b60ff16600a0a9050610f72818463ffffffff610ebf16565b6003819055604080513381526020810186905280820192909252517f8e7e19c3c2da501e28433f232b7ab951190311c0f3b0a68c2467b9adb39a06e89181900360600190a150600192915050565b600160a060020a0381161515610fd557600080fd5b60008054604051600160a060020a03808516939216917f8be0079c531659141344cd1fd0a4f28419497f9722a3daafe3b4186f6b6457e091a36000805473ffffffffffffffffffffffffffffffffffffffff1916600160a060020a0392909216919091179055565b600160a060020a038116151561105257600080fd5b600160a060020a0316600090815260209190915260409020805460ff19169055565b600160a060020a038116151561108957600080fd5b600160a060020a0316600090815260209190915260409020805460ff191660011790555600a165627a7a72305820940c9457784aaaff4faf996a2a5fef97ed9b32ef34050e9dddf4f965e79964d50029",
  "source": "pragma solidity ^0.4.24;\n\nimport '../openzeppelin-solidity/contracts/ownership/Ownable.sol';\nimport '../openzeppelin-solidity/contracts/lifecycle/Pausable.sol';\nimport '../openzeppelin-solidity/contracts/math/SafeMath.sol';\n\ninterface Token {\n  function totalSupply() external view returns (uint256);\n\n  function balanceOf(address owner) external view returns (uint256);\n\n  function name() external view returns(string);\n\n  function symbol() external view returns(string);\n\n  function decimals() external view returns(uint8);\n\n  function allowance(address owner, address spender) external view returns (uint256);\n\n  function transfer(address to, uint256 value) external returns (bool);\n\n  function approve(address spender, uint256 value) external returns (bool);\n}\n\ncontract ERC20TokenShop is Ownable, Pausable {\n  using SafeMath for uint256;\n\n  Token tokenContract;\n\n  uint256 public exchangeRate;\n  uint256 public USDTETH;\n\n  event LogBuyToken(address eSender, uint256 eValue, uint256 eTokenAmount);\n  event LogSetExchangeRate(address eSender, uint256 eRate, uint256 eExchangeRate);\n  event LogSetETHXRate(address eSender, uint256 eETHXRate);\n  event LogDeposit(address eSender, uint256 eValue);\n  event LogWithdraw(address eSender, uint256 eValue);\n\n  //Default exchange rate is $1/Token\n  constructor(address _instance) public {\n    tokenContract = Token(_instance);\n    exchangeRate = 1000000000000000000;\n  }\n\n  //Token functions\n  function getTokenSupply()\n    public\n    view\n    returns (uint256)\n  {\n    return tokenContract.totalSupply();\n  }\n\n  function getTokenBalance(address _account)\n    public\n    view\n    returns (uint256)\n  {\n    return tokenContract.balanceOf(_account);\n  }\n\n  function getTokenName()\n    public\n    view\n    returns (string)\n  {\n    return tokenContract.name();\n  }\n\n  function getTokenSymbol()\n    public\n    view\n    returns (string)\n  {\n    return tokenContract.symbol();\n  }\n\n  function getTokenDecimals()\n    public\n    view\n    returns (uint8)\n  {\n    return tokenContract.decimals();\n  }\n\n  //User functions\n  function buyToken()\n    whenNotPaused\n    public\n    payable\n    returns (bool)\n  {\n    require(msg.value > 0);\n    require(tokenContract.balanceOf(address(this)) > 0);\n    //check not asking for more than stock\n    require(tokenContract.balanceOf(address(this)) >= msg.value);\n    //check value is at least 1 cross rate token bit unit per wei\n    require(msg.value >= exchangeRate.mul(USDTETH).div(10**18));\n    //wei to token bit conversion via dollars\n    //$ per ETH * ETH per wei * (1 / $ per tokenbit) = tokenbit per wei\n    uint256 _amount;\n    _amount = msg.value.mul(exchangeRate).mul(USDTETH).div(10**(18));\n    emit LogBuyToken(msg.sender, msg.value, _amount);\n    tokenContract.transfer(msg.sender, _amount);\n    return true;\n  }\n\n  //Shop functions\n  function getShopStock()\n    public\n    view\n    returns (uint256)\n  {\n    return tokenContract.balanceOf(address(this));\n  }\n\n  //Exchange rate in Dollars (i.e. Tokens per dollar)\n  function setExchangeRate(uint256 _dollars_per_token)\n    onlyOwner\n    whenNotPaused\n    public\n    returns (bool)\n  {\n    _setExchangeRate(_dollars_per_token);\n    return true;\n  }\n\n  function setETHXRate(uint256 _dollars_per_eth)\n    onlyOwner\n    whenNotPaused\n    public\n    returns (bool)\n  {\n    _setETHXRate(_dollars_per_eth);\n    return true;\n  }\n\n  function deposit()\n    onlyOwner\n    whenNotPaused\n    payable\n    public\n    returns (bool)\n  {\n    emit LogDeposit(msg.sender, msg.value);\n    return true;\n  }\n\n  function withdraw(uint256 _amount)\n    onlyOwner\n    whenNotPaused\n    public\n    returns (bool)\n  {\n    require(address(this).balance >= _amount);\n    address _owner;\n    _owner = owner();\n    emit LogWithdraw(msg.sender, _amount);\n    _owner.transfer(_amount);\n    return true;\n  }\n\n  //Internal functions\n  function _setExchangeRate(uint256 _dollars_per_token)\n    whenNotPaused\n    internal\n    returns (bool)\n  {\n    uint256 _decimals = getTokenDecimals();\n    _decimals = 10**(_decimals);\n    exchangeRate = _decimals.div(_dollars_per_token);\n    emit LogSetExchangeRate(msg.sender, _dollars_per_token, exchangeRate);\n    return true;\n  }\n\n  function _setETHXRate(uint256 _dollars_per_eth)\n    whenNotPaused\n    internal\n    returns (bool)\n  {\n    USDTETH = _dollars_per_eth;\n    emit LogSetETHXRate(msg.sender, _dollars_per_eth);\n    return true;\n  }\n\n  function kill()\n    public\n    onlyOwner\n  {\n    selfdestruct(owner());\n  }\n\n\n}\n",
  "sourcePath": "/home/vagrant/DAPPS/tokenShopApp/contracts/ERC20TokenShop.sol",
  "compiler": {
    "name": "solc",
    "version": "0.4.24+commit.e67f0147.Emscripten.clang"
  },
  "schemaVersion": "2.0.1",
  "updatedAt": "2018-09-30T01:25:21.381Z"
}