{
  "contractName": "ERC20Pausable",
  "abi": [
    {
      "constant": true,
      "inputs": [],
      "name": "totalSupply",
      "outputs": [
        {
          "name": "",
          "type": "uint256"
        }
      ],
      "payable": false,
      "stateMutability": "view",
      "type": "function"
    },
    {
      "constant": false,
      "inputs": [],
      "name": "unpause",
      "outputs": [],
      "payable": false,
      "stateMutability": "nonpayable",
      "type": "function"
    },
    {
      "constant": true,
      "inputs": [
        {
          "name": "account",
          "type": "address"
        }
      ],
      "name": "isPauser",
      "outputs": [
        {
          "name": "",
          "type": "bool"
        }
      ],
      "payable": false,
      "stateMutability": "view",
      "type": "function"
    },
    {
      "constant": true,
      "inputs": [],
      "name": "paused",
      "outputs": [
        {
          "name": "",
          "type": "bool"
        }
      ],
      "payable": false,
      "stateMutability": "view",
      "type": "function"
    },
    {
      "constant": false,
      "inputs": [],
      "name": "renouncePauser",
      "outputs": [],
      "payable": false,
      "stateMutability": "nonpayable",
      "type": "function"
    },
    {
      "constant": true,
      "inputs": [
        {
          "name": "owner",
          "type": "address"
        }
      ],
      "name": "balanceOf",
      "outputs": [
        {
          "name": "",
          "type": "uint256"
        }
      ],
      "payable": false,
      "stateMutability": "view",
      "type": "function"
    },
    {
      "constant": false,
      "inputs": [
        {
          "name": "account",
          "type": "address"
        }
      ],
      "name": "addPauser",
      "outputs": [],
      "payable": false,
      "stateMutability": "nonpayable",
      "type": "function"
    },
    {
      "constant": false,
      "inputs": [],
      "name": "pause",
      "outputs": [],
      "payable": false,
      "stateMutability": "nonpayable",
      "type": "function"
    },
    {
      "constant": true,
      "inputs": [
        {
          "name": "owner",
          "type": "address"
        },
        {
          "name": "spender",
          "type": "address"
        }
      ],
      "name": "allowance",
      "outputs": [
        {
          "name": "",
          "type": "uint256"
        }
      ],
      "payable": false,
      "stateMutability": "view",
      "type": "function"
    },
    {
      "anonymous": false,
      "inputs": [],
      "name": "Paused",
      "type": "event"
    },
    {
      "anonymous": false,
      "inputs": [],
      "name": "Unpaused",
      "type": "event"
    },
    {
      "anonymous": false,
      "inputs": [
        {
          "indexed": true,
          "name": "account",
          "type": "address"
        }
      ],
      "name": "PauserAdded",
      "type": "event"
    },
    {
      "anonymous": false,
      "inputs": [
        {
          "indexed": true,
          "name": "account",
          "type": "address"
        }
      ],
      "name": "PauserRemoved",
      "type": "event"
    },
    {
      "anonymous": false,
      "inputs": [
        {
          "indexed": true,
          "name": "from",
          "type": "address"
        },
        {
          "indexed": true,
          "name": "to",
          "type": "address"
        },
        {
          "indexed": false,
          "name": "value",
          "type": "uint256"
        }
      ],
      "name": "Transfer",
      "type": "event"
    },
    {
      "anonymous": false,
      "inputs": [
        {
          "indexed": true,
          "name": "owner",
          "type": "address"
        },
        {
          "indexed": true,
          "name": "spender",
          "type": "address"
        },
        {
          "indexed": false,
          "name": "value",
          "type": "uint256"
        }
      ],
      "name": "Approval",
      "type": "event"
    },
    {
      "constant": false,
      "inputs": [
        {
          "name": "to",
          "type": "address"
        },
        {
          "name": "value",
          "type": "uint256"
        }
      ],
      "name": "transfer",
      "outputs": [
        {
          "name": "",
          "type": "bool"
        }
      ],
      "payable": false,
      "stateMutability": "nonpayable",
      "type": "function"
    },
    {
      "constant": false,
      "inputs": [
        {
          "name": "from",
          "type": "address"
        },
        {
          "name": "to",
          "type": "address"
        },
        {
          "name": "value",
          "type": "uint256"
        }
      ],
      "name": "transferFrom",
      "outputs": [
        {
          "name": "",
          "type": "bool"
        }
      ],
      "payable": false,
      "stateMutability": "nonpayable",
      "type": "function"
    },
    {
      "constant": false,
      "inputs": [
        {
          "name": "spender",
          "type": "address"
        },
        {
          "name": "value",
          "type": "uint256"
        }
      ],
      "name": "approve",
      "outputs": [
        {
          "name": "",
          "type": "bool"
        }
      ],
      "payable": false,
      "stateMutability": "nonpayable",
      "type": "function"
    },
    {
      "constant": false,
      "inputs": [
        {
          "name": "spender",
          "type": "address"
        },
        {
          "name": "addedValue",
          "type": "uint256"
        }
      ],
      "name": "increaseAllowance",
      "outputs": [
        {
          "name": "success",
          "type": "bool"
        }
      ],
      "payable": false,
      "stateMutability": "nonpayable",
      "type": "function"
    },
    {
      "constant": false,
      "inputs": [
        {
          "name": "spender",
          "type": "address"
        },
        {
          "name": "subtractedValue",
          "type": "uint256"
        }
      ],
      "name": "decreaseAllowance",
      "outputs": [
        {
          "name": "success",
          "type": "bool"
        }
      ],
      "payable": false,
      "stateMutability": "nonpayable",
      "type": "function"
    }
  ],
  "bytecode": "0x60806040526004805460ff1916905561002033640100000000610025810204565b6100ae565b61003d60038264010000000061098d61007482021704565b604051600160a060020a038216907f6719d08c1888103bea251a4ed56406bd0c3e69723c8a1686e017e7bbe159b6f890600090a250565b600160a060020a038116151561008957600080fd5b600160a060020a0316600090815260209190915260409020805460ff19166001179055565b6109f3806100bd6000396000f3006080604052600436106100cf5763ffffffff7c0100000000000000000000000000000000000000000000000000000000600035041663095ea7b381146100d457806318160ddd1461010c57806323b872dd14610133578063395093511461015d5780633f4ba83a1461018157806346fbf68e146101985780635c975abb146101b95780636ef8d66d146101ce57806370a08231146101e357806382dc1ec4146102045780638456cb5914610225578063a457c2d71461023a578063a9059cbb1461025e578063dd62ed3e14610282575b600080fd5b3480156100e057600080fd5b506100f8600160a060020a03600435166024356102a9565b604080519115158252519081900360200190f35b34801561011857600080fd5b506101216102cd565b60408051918252519081900360200190f35b34801561013f57600080fd5b506100f8600160a060020a03600435811690602435166044356102d3565b34801561016957600080fd5b506100f8600160a060020a03600435166024356102f9565b34801561018d57600080fd5b50610196610316565b005b3480156101a457600080fd5b506100f8600160a060020a0360043516610370565b3480156101c557600080fd5b506100f8610389565b3480156101da57600080fd5b50610196610392565b3480156101ef57600080fd5b50610121600160a060020a036004351661039d565b34801561021057600080fd5b50610196600160a060020a03600435166103b8565b34801561023157600080fd5b506101966103d8565b34801561024657600080fd5b506100f8600160a060020a0360043516602435610434565b34801561026a57600080fd5b506100f8600160a060020a0360043516602435610451565b34801561028e57600080fd5b50610121600160a060020a036004358116906024351661046e565b60045460009060ff16156102bc57600080fd5b6102c68383610499565b9392505050565b60025490565b60045460009060ff16156102e657600080fd5b6102f1848484610517565b949350505050565b60045460009060ff161561030c57600080fd5b6102c6838361068c565b61031f33610370565b151561032a57600080fd5b60045460ff16151561033b57600080fd5b6004805460ff191690556040517fa45f47fdea8a1efdd9029a5691c7f759c32b7c698632b563573e155625d1693390600090a1565b600061038360038363ffffffff61073c16565b92915050565b60045460ff1690565b61039b33610773565b565b600160a060020a031660009081526020819052604090205490565b6103c133610370565b15156103cc57600080fd5b6103d5816107bb565b50565b6103e133610370565b15156103ec57600080fd5b60045460ff16156103fc57600080fd5b6004805460ff191660011790556040517f9e87fac88ff661f02d44f95383c817fece4bce600a3dab7a54406878b965e75290600090a1565b60045460009060ff161561044757600080fd5b6102c68383610803565b60045460009060ff161561046457600080fd5b6102c6838361084e565b600160a060020a03918216600090815260016020908152604080832093909416825291909152205490565b6000600160a060020a03831615156104b057600080fd5b336000818152600160209081526040808320600160a060020a03881680855290835292819020869055805186815290519293927f8c5be1e5ebec7d5bd14f71427d1e84f3dd0314c0f7b2291e5b200ac8c7c3b925929181900390910190a350600192915050565b600160a060020a03831660009081526020819052604081205482111561053c57600080fd5b600160a060020a038416600090815260016020908152604080832033845290915290205482111561056c57600080fd5b600160a060020a038316151561058157600080fd5b600160a060020a0384166000908152602081905260409020546105aa908363ffffffff61092d16565b600160a060020a0380861660009081526020819052604080822093909355908516815220546105df908363ffffffff61094416565b600160a060020a03808516600090815260208181526040808320949094559187168152600182528281203382529091522054610621908363ffffffff61092d16565b600160a060020a03808616600081815260016020908152604080832033845282529182902094909455805186815290519287169391927fddf252ad1be2c89b69c2b068fc378daa952ba7f163c4a11628f55a4df523b3ef929181900390910190a35060019392505050565b6000600160a060020a03831615156106a357600080fd5b336000908152600160209081526040808320600160a060020a03871684529091529020546106d7908363ffffffff61094416565b336000818152600160209081526040808320600160a060020a0389168085529083529281902085905580519485525191937f8c5be1e5ebec7d5bd14f71427d1e84f3dd0314c0f7b2291e5b200ac8c7c3b925929081900390910190a350600192915050565b6000600160a060020a038216151561075357600080fd5b50600160a060020a03166000908152602091909152604090205460ff1690565b61078460038263ffffffff61095616565b604051600160a060020a038216907fcd265ebaf09df2871cc7bd4133404a235ba12eff2041bb89d9c714a2621c7c7e90600090a250565b6107cc60038263ffffffff61098d16565b604051600160a060020a038216907f6719d08c1888103bea251a4ed56406bd0c3e69723c8a1686e017e7bbe159b6f890600090a250565b6000600160a060020a038316151561081a57600080fd5b336000908152600160209081526040808320600160a060020a03871684529091529020546106d7908363ffffffff61092d16565b3360009081526020819052604081205482111561086a57600080fd5b600160a060020a038316151561087f57600080fd5b3360009081526020819052604090205461089f908363ffffffff61092d16565b3360009081526020819052604080822092909255600160a060020a038516815220546108d1908363ffffffff61094416565b600160a060020a038416600081815260208181526040918290209390935580518581529051919233927fddf252ad1be2c89b69c2b068fc378daa952ba7f163c4a11628f55a4df523b3ef9281900390910190a350600192915050565b6000808383111561093d57600080fd5b5050900390565b6000828201838110156102c657600080fd5b600160a060020a038116151561096b57600080fd5b600160a060020a0316600090815260209190915260409020805460ff19169055565b600160a060020a03811615156109a257600080fd5b600160a060020a0316600090815260209190915260409020805460ff191660011790555600a165627a7a72305820ada38557f71e239f8cf2ee31eb466952f6473656b32bd577d1bee7a0b7b150350029",
  "source": "pragma solidity ^0.4.24;\n\nimport \"./ERC20.sol\";\nimport \"../../lifecycle/Pausable.sol\";\n\n/**\n * @title Pausable token\n * @dev ERC20 modified with pausable transfers.\n **/\ncontract ERC20Pausable is ERC20, Pausable {\n\n  function transfer(\n    address to,\n    uint256 value\n  )\n    public\n    whenNotPaused\n    returns (bool)\n  {\n    return super.transfer(to, value);\n  }\n\n  function transferFrom(\n    address from,\n    address to,\n    uint256 value\n  )\n    public\n    whenNotPaused\n    returns (bool)\n  {\n    return super.transferFrom(from, to, value);\n  }\n\n  function approve(\n    address spender,\n    uint256 value\n  )\n    public\n    whenNotPaused\n    returns (bool)\n  {\n    return super.approve(spender, value);\n  }\n\n  function increaseAllowance(\n    address spender,\n    uint addedValue\n  )\n    public\n    whenNotPaused\n    returns (bool success)\n  {\n    return super.increaseAllowance(spender, addedValue);\n  }\n\n  function decreaseAllowance(\n    address spender,\n    uint subtractedValue\n  )\n    public\n    whenNotPaused\n    returns (bool success)\n  {\n    return super.decreaseAllowance(spender, subtractedValue);\n  }\n}\n",
  "sourcePath": "/home/vagrant/DAPPS/tokenShopApp/openzeppelin-solidity/contracts/token/ERC20/ERC20Pausable.sol",
  "compiler": {
    "name": "solc",
    "version": "0.4.24+commit.e67f0147.Emscripten.clang"
  },
  "schemaVersion": "2.0.1",
  "updatedAt": "2018-10-03T02:04:20.092Z"
}