{
  "contractName": "ERC20TobyToken",
  "abi": [
    {
      "constant": true,
      "inputs": [],
      "name": "name",
      "outputs": [
        {
          "name": "",
          "type": "string"
        }
      ],
      "payable": false,
      "stateMutability": "view",
      "type": "function"
    },
    {
      "constant": false,
      "inputs": [
        {
          "name": "spender",
          "type": "address"
        },
        {
          "name": "value",
          "type": "uint256"
        }
      ],
      "name": "approve",
      "outputs": [
        {
          "name": "",
          "type": "bool"
        }
      ],
      "payable": false,
      "stateMutability": "nonpayable",
      "type": "function"
    },
    {
      "constant": true,
      "inputs": [],
      "name": "totalSupply",
      "outputs": [
        {
          "name": "",
          "type": "uint256"
        }
      ],
      "payable": false,
      "stateMutability": "view",
      "type": "function"
    },
    {
      "constant": false,
      "inputs": [
        {
          "name": "from",
          "type": "address"
        },
        {
          "name": "to",
          "type": "address"
        },
        {
          "name": "value",
          "type": "uint256"
        }
      ],
      "name": "transferFrom",
      "outputs": [
        {
          "name": "",
          "type": "bool"
        }
      ],
      "payable": false,
      "stateMutability": "nonpayable",
      "type": "function"
    },
    {
      "constant": true,
      "inputs": [],
      "name": "decimals",
      "outputs": [
        {
          "name": "",
          "type": "uint8"
        }
      ],
      "payable": false,
      "stateMutability": "view",
      "type": "function"
    },
    {
      "constant": false,
      "inputs": [
        {
          "name": "spender",
          "type": "address"
        },
        {
          "name": "addedValue",
          "type": "uint256"
        }
      ],
      "name": "increaseAllowance",
      "outputs": [
        {
          "name": "success",
          "type": "bool"
        }
      ],
      "payable": false,
      "stateMutability": "nonpayable",
      "type": "function"
    },
    {
      "constant": false,
      "inputs": [],
      "name": "unpause",
      "outputs": [],
      "payable": false,
      "stateMutability": "nonpayable",
      "type": "function"
    },
    {
      "constant": false,
      "inputs": [
        {
          "name": "to",
          "type": "address"
        },
        {
          "name": "amount",
          "type": "uint256"
        }
      ],
      "name": "mint",
      "outputs": [
        {
          "name": "",
          "type": "bool"
        }
      ],
      "payable": false,
      "stateMutability": "nonpayable",
      "type": "function"
    },
    {
      "constant": false,
      "inputs": [
        {
          "name": "value",
          "type": "uint256"
        }
      ],
      "name": "burn",
      "outputs": [],
      "payable": false,
      "stateMutability": "nonpayable",
      "type": "function"
    },
    {
      "constant": true,
      "inputs": [
        {
          "name": "account",
          "type": "address"
        }
      ],
      "name": "isPauser",
      "outputs": [
        {
          "name": "",
          "type": "bool"
        }
      ],
      "payable": false,
      "stateMutability": "view",
      "type": "function"
    },
    {
      "constant": true,
      "inputs": [],
      "name": "paused",
      "outputs": [
        {
          "name": "",
          "type": "bool"
        }
      ],
      "payable": false,
      "stateMutability": "view",
      "type": "function"
    },
    {
      "constant": false,
      "inputs": [],
      "name": "renouncePauser",
      "outputs": [],
      "payable": false,
      "stateMutability": "nonpayable",
      "type": "function"
    },
    {
      "constant": true,
      "inputs": [
        {
          "name": "owner",
          "type": "address"
        }
      ],
      "name": "balanceOf",
      "outputs": [
        {
          "name": "",
          "type": "uint256"
        }
      ],
      "payable": false,
      "stateMutability": "view",
      "type": "function"
    },
    {
      "constant": false,
      "inputs": [
        {
          "name": "from",
          "type": "address"
        },
        {
          "name": "value",
          "type": "uint256"
        }
      ],
      "name": "burnFrom",
      "outputs": [],
      "payable": false,
      "stateMutability": "nonpayable",
      "type": "function"
    },
    {
      "constant": false,
      "inputs": [
        {
          "name": "account",
          "type": "address"
        }
      ],
      "name": "addPauser",
      "outputs": [],
      "payable": false,
      "stateMutability": "nonpayable",
      "type": "function"
    },
    {
      "constant": false,
      "inputs": [],
      "name": "pause",
      "outputs": [],
      "payable": false,
      "stateMutability": "nonpayable",
      "type": "function"
    },
    {
      "constant": true,
      "inputs": [],
      "name": "owner",
      "outputs": [
        {
          "name": "",
          "type": "address"
        }
      ],
      "payable": false,
      "stateMutability": "view",
      "type": "function"
    },
    {
      "constant": true,
      "inputs": [],
      "name": "symbol",
      "outputs": [
        {
          "name": "",
          "type": "string"
        }
      ],
      "payable": false,
      "stateMutability": "view",
      "type": "function"
    },
    {
      "constant": false,
      "inputs": [
        {
          "name": "account",
          "type": "address"
        }
      ],
      "name": "addMinter",
      "outputs": [],
      "payable": false,
      "stateMutability": "nonpayable",
      "type": "function"
    },
    {
      "constant": false,
      "inputs": [],
      "name": "renounceMinter",
      "outputs": [],
      "payable": false,
      "stateMutability": "nonpayable",
      "type": "function"
    },
    {
      "constant": false,
      "inputs": [
        {
          "name": "spender",
          "type": "address"
        },
        {
          "name": "subtractedValue",
          "type": "uint256"
        }
      ],
      "name": "decreaseAllowance",
      "outputs": [
        {
          "name": "success",
          "type": "bool"
        }
      ],
      "payable": false,
      "stateMutability": "nonpayable",
      "type": "function"
    },
    {
      "constant": false,
      "inputs": [
        {
          "name": "to",
          "type": "address"
        },
        {
          "name": "value",
          "type": "uint256"
        }
      ],
      "name": "transfer",
      "outputs": [
        {
          "name": "",
          "type": "bool"
        }
      ],
      "payable": false,
      "stateMutability": "nonpayable",
      "type": "function"
    },
    {
      "constant": true,
      "inputs": [
        {
          "name": "account",
          "type": "address"
        }
      ],
      "name": "isMinter",
      "outputs": [
        {
          "name": "",
          "type": "bool"
        }
      ],
      "payable": false,
      "stateMutability": "view",
      "type": "function"
    },
    {
      "constant": true,
      "inputs": [
        {
          "name": "owner",
          "type": "address"
        },
        {
          "name": "spender",
          "type": "address"
        }
      ],
      "name": "allowance",
      "outputs": [
        {
          "name": "",
          "type": "uint256"
        }
      ],
      "payable": false,
      "stateMutability": "view",
      "type": "function"
    },
    {
      "inputs": [
        {
          "name": "name",
          "type": "string"
        },
        {
          "name": "symbol",
          "type": "string"
        },
        {
          "name": "decimals",
          "type": "uint8"
        }
      ],
      "payable": false,
      "stateMutability": "nonpayable",
      "type": "constructor"
    },
    {
      "anonymous": false,
      "inputs": [
        {
          "indexed": true,
          "name": "account",
          "type": "address"
        }
      ],
      "name": "MinterAdded",
      "type": "event"
    },
    {
      "anonymous": false,
      "inputs": [
        {
          "indexed": true,
          "name": "account",
          "type": "address"
        }
      ],
      "name": "MinterRemoved",
      "type": "event"
    },
    {
      "anonymous": false,
      "inputs": [],
      "name": "Paused",
      "type": "event"
    },
    {
      "anonymous": false,
      "inputs": [],
      "name": "Unpaused",
      "type": "event"
    },
    {
      "anonymous": false,
      "inputs": [
        {
          "indexed": true,
          "name": "account",
          "type": "address"
        }
      ],
      "name": "PauserAdded",
      "type": "event"
    },
    {
      "anonymous": false,
      "inputs": [
        {
          "indexed": true,
          "name": "account",
          "type": "address"
        }
      ],
      "name": "PauserRemoved",
      "type": "event"
    },
    {
      "anonymous": false,
      "inputs": [
        {
          "indexed": true,
          "name": "from",
          "type": "address"
        },
        {
          "indexed": true,
          "name": "to",
          "type": "address"
        },
        {
          "indexed": false,
          "name": "value",
          "type": "uint256"
        }
      ],
      "name": "Transfer",
      "type": "event"
    },
    {
      "anonymous": false,
      "inputs": [
        {
          "indexed": true,
          "name": "owner",
          "type": "address"
        },
        {
          "indexed": true,
          "name": "spender",
          "type": "address"
        },
        {
          "indexed": false,
          "name": "value",
          "type": "uint256"
        }
      ],
      "name": "Approval",
      "type": "event"
    },
    {
      "constant": false,
      "inputs": [],
      "name": "kill",
      "outputs": [],
      "payable": false,
      "stateMutability": "nonpayable",
      "type": "function"
    }
  ],
  "bytecode": "0x60806040526007805460ff191690553480156200001b57600080fd5b50604051620012ec380380620012ec8339810160409081528151602080840151928401519184018051909493909301928491849184916200006291600391860190620001b2565b50815162000078906004906020850190620001b2565b506005805460ff191660ff9290921691909117905550620000a4905033640100000000620000d3810204565b620000b83364010000000062000125810204565b505060098054600160a060020a031916331790555062000257565b620000ee6006826401000000006200101f6200017782021704565b604051600160a060020a038216907f6719d08c1888103bea251a4ed56406bd0c3e69723c8a1686e017e7bbe159b6f890600090a250565b620001406008826401000000006200101f6200017782021704565b604051600160a060020a038216907f6ae172837ea30b801fbfcdd4108aa1d5bf8ff775444fd70256b44e6bf3dfc3f690600090a250565b600160a060020a03811615156200018d57600080fd5b600160a060020a0316600090815260209190915260409020805460ff19166001179055565b828054600181600116156101000203166002900490600052602060002090601f016020900481019282601f10620001f557805160ff191683800117855562000225565b8280016001018555821562000225579182015b828111156200022557825182559160200191906001019062000208565b506200023392915062000237565b5090565b6200025491905b808211156200023357600081556001016200023e565b90565b61108580620002676000396000f3006080604052600436106101485763ffffffff7c010000000000000000000000000000000000000000000000000000000060003504166306fdde03811461014d578063095ea7b3146101d757806318160ddd1461020f57806323b872dd14610236578063313ce56714610260578063395093511461028b5780633f4ba83a146102af57806340c10f19146102c657806341c0e1b5146102ea57806342966c68146102ff57806346fbf68e146103175780635c975abb146103385780636ef8d66d1461034d57806370a082311461036257806379cc67901461038357806382dc1ec4146103a75780638456cb59146103c85780638da5cb5b146103dd57806395d89b411461040e578063983b2d56146104235780639865027514610444578063a457c2d714610459578063a9059cbb1461047d578063aa271e1a146104a1578063dd62ed3e146104c2575b600080fd5b34801561015957600080fd5b506101626104e9565b6040805160208082528351818301528351919283929083019185019080838360005b8381101561019c578181015183820152602001610184565b50505050905090810190601f1680156101c95780820380516001836020036101000a031916815260200191505b509250505060405180910390f35b3480156101e357600080fd5b506101fb600160a060020a036004351660243561057f565b604080519115158252519081900360200190f35b34801561021b57600080fd5b506102246105a3565b60408051918252519081900360200190f35b34801561024257600080fd5b506101fb600160a060020a03600435811690602435166044356105a9565b34801561026c57600080fd5b506102756105cf565b6040805160ff9092168252519081900360200190f35b34801561029757600080fd5b506101fb600160a060020a03600435166024356105d8565b3480156102bb57600080fd5b506102c46105f5565b005b3480156102d257600080fd5b506101fb600160a060020a036004351660243561064f565b3480156102f657600080fd5b506102c4610678565b34801561030b57600080fd5b506102c460043561069d565b34801561032357600080fd5b506101fb600160a060020a03600435166106aa565b34801561034457600080fd5b506101fb6106c3565b34801561035957600080fd5b506102c46106cc565b34801561036e57600080fd5b50610224600160a060020a03600435166106d7565b34801561038f57600080fd5b506102c4600160a060020a03600435166024356106f2565b3480156103b357600080fd5b506102c4600160a060020a0360043516610700565b3480156103d457600080fd5b506102c461071d565b3480156103e957600080fd5b506103f2610779565b60408051600160a060020a039092168252519081900360200190f35b34801561041a57600080fd5b50610162610788565b34801561042f57600080fd5b506102c4600160a060020a03600435166107e9565b34801561045057600080fd5b506102c4610806565b34801561046557600080fd5b506101fb600160a060020a036004351660243561080f565b34801561048957600080fd5b506101fb600160a060020a036004351660243561082c565b3480156104ad57600080fd5b506101fb600160a060020a0360043516610849565b3480156104ce57600080fd5b50610224600160a060020a036004358116906024351661085c565b60038054604080516020601f60026000196101006001881615020190951694909404938401819004810282018101909252828152606093909290918301828280156105755780601f1061054a57610100808354040283529160200191610575565b820191906000526020600020905b81548152906001019060200180831161055857829003601f168201915b5050505050905090565b60075460009060ff161561059257600080fd5b61059c8383610887565b9392505050565b60025490565b60075460009060ff16156105bc57600080fd5b6105c7848484610905565b949350505050565b60055460ff1690565b60075460009060ff16156105eb57600080fd5b61059c8383610a7a565b6105fe336106aa565b151561060957600080fd5b60075460ff16151561061a57600080fd5b6007805460ff191690556040517fa45f47fdea8a1efdd9029a5691c7f759c32b7c698632b563573e155625d1693390600090a1565b600061065a33610849565b151561066557600080fd5b61066f8383610b2a565b50600192915050565b600954600160a060020a0316331461068f57600080fd5b600954600160a060020a0316ff5b6106a73382610bd4565b50565b60006106bd60068363ffffffff610bde16565b92915050565b60075460ff1690565b6106d533610c15565b565b600160a060020a031660009081526020819052604090205490565b6106fc8282610c5d565b5050565b610709336106aa565b151561071457600080fd5b6106a781610cef565b610726336106aa565b151561073157600080fd5b60075460ff161561074157600080fd5b6007805460ff191660011790556040517f9e87fac88ff661f02d44f95383c817fece4bce600a3dab7a54406878b965e75290600090a1565b600954600160a060020a031681565b60048054604080516020601f60026000196101006001881615020190951694909404938401819004810282018101909252828152606093909290918301828280156105755780601f1061054a57610100808354040283529160200191610575565b6107f233610849565b15156107fd57600080fd5b6106a781610d37565b6106d533610d7f565b60075460009060ff161561082257600080fd5b61059c8383610dc7565b60075460009060ff161561083f57600080fd5b61059c8383610e12565b60006106bd60088363ffffffff610bde16565b600160a060020a03918216600090815260016020908152604080832093909416825291909152205490565b6000600160a060020a038316151561089e57600080fd5b336000818152600160209081526040808320600160a060020a03881680855290835292819020869055805186815290519293927f8c5be1e5ebec7d5bd14f71427d1e84f3dd0314c0f7b2291e5b200ac8c7c3b925929181900390910190a350600192915050565b600160a060020a03831660009081526020819052604081205482111561092a57600080fd5b600160a060020a038416600090815260016020908152604080832033845290915290205482111561095a57600080fd5b600160a060020a038316151561096f57600080fd5b600160a060020a038416600090815260208190526040902054610998908363ffffffff610ef116565b600160a060020a0380861660009081526020819052604080822093909355908516815220546109cd908363ffffffff610f0816565b600160a060020a03808516600090815260208181526040808320949094559187168152600182528281203382529091522054610a0f908363ffffffff610ef116565b600160a060020a03808616600081815260016020908152604080832033845282529182902094909455805186815290519287169391927fddf252ad1be2c89b69c2b068fc378daa952ba7f163c4a11628f55a4df523b3ef929181900390910190a35060019392505050565b6000600160a060020a0383161515610a9157600080fd5b336000908152600160209081526040808320600160a060020a0387168452909152902054610ac5908363ffffffff610f0816565b336000818152600160209081526040808320600160a060020a0389168085529083529281902085905580519485525191937f8c5be1e5ebec7d5bd14f71427d1e84f3dd0314c0f7b2291e5b200ac8c7c3b925929081900390910190a350600192915050565b600160a060020a0382161515610b3f57600080fd5b600254610b52908263ffffffff610f0816565b600255600160a060020a038216600090815260208190526040902054610b7e908263ffffffff610f0816565b600160a060020a0383166000818152602081815260408083209490945583518581529351929391927fddf252ad1be2c89b69c2b068fc378daa952ba7f163c4a11628f55a4df523b3ef9281900390910190a35050565b6106fc8282610f1a565b6000600160a060020a0382161515610bf557600080fd5b50600160a060020a03166000908152602091909152604090205460ff1690565b610c2660068263ffffffff610fe816565b604051600160a060020a038216907fcd265ebaf09df2871cc7bd4133404a235ba12eff2041bb89d9c714a2621c7c7e90600090a250565b600160a060020a0382166000908152600160209081526040808320338452909152902054811115610c8d57600080fd5b600160a060020a0382166000908152600160209081526040808320338452909152902054610cc1908263ffffffff610ef116565b600160a060020a03831660009081526001602090815260408083203384529091529020556106fc8282610bd4565b610d0060068263ffffffff61101f16565b604051600160a060020a038216907f6719d08c1888103bea251a4ed56406bd0c3e69723c8a1686e017e7bbe159b6f890600090a250565b610d4860088263ffffffff61101f16565b604051600160a060020a038216907f6ae172837ea30b801fbfcdd4108aa1d5bf8ff775444fd70256b44e6bf3dfc3f690600090a250565b610d9060088263ffffffff610fe816565b604051600160a060020a038216907fe94479a9f7e1952cc78f2d6baab678adc1b772d936c6583def489e524cb6669290600090a250565b6000600160a060020a0383161515610dde57600080fd5b336000908152600160209081526040808320600160a060020a0387168452909152902054610ac5908363ffffffff610ef116565b33600090815260208190526040812054821115610e2e57600080fd5b600160a060020a0383161515610e4357600080fd5b33600090815260208190526040902054610e63908363ffffffff610ef116565b3360009081526020819052604080822092909255600160a060020a03851681522054610e95908363ffffffff610f0816565b600160a060020a038416600081815260208181526040918290209390935580518581529051919233927fddf252ad1be2c89b69c2b068fc378daa952ba7f163c4a11628f55a4df523b3ef9281900390910190a350600192915050565b60008083831115610f0157600080fd5b5050900390565b60008282018381101561059c57600080fd5b600160a060020a0382161515610f2f57600080fd5b600160a060020a038216600090815260208190526040902054811115610f5457600080fd5b600254610f67908263ffffffff610ef116565b600255600160a060020a038216600090815260208190526040902054610f93908263ffffffff610ef116565b600160a060020a038316600081815260208181526040808320949094558351858152935191937fddf252ad1be2c89b69c2b068fc378daa952ba7f163c4a11628f55a4df523b3ef929081900390910190a35050565b600160a060020a0381161515610ffd57600080fd5b600160a060020a0316600090815260209190915260409020805460ff19169055565b600160a060020a038116151561103457600080fd5b600160a060020a0316600090815260209190915260409020805460ff191660011790555600a165627a7a72305820c5134119b5023e958adaff3a4d42eab370c2951c6ef9e247580fd030b9feb1a30029",
  "source": "pragma solidity ^0.4.24;\n\nimport '../openzeppelin-solidity/contracts/token/ERC20/ERC20.sol';\nimport '../openzeppelin-solidity/contracts/token/ERC20/ERC20Detailed.sol';\nimport '../openzeppelin-solidity/contracts/token/ERC20/ERC20Burnable.sol';\nimport '../openzeppelin-solidity/contracts/token/ERC20/ERC20Mintable.sol';\nimport '../openzeppelin-solidity/contracts/token/ERC20/ERC20Pausable.sol';\n\ncontract ERC20TobyToken is ERC20, ERC20Detailed, ERC20Pausable, ERC20Mintable, ERC20Burnable {\n  address public owner;\n\n  constructor(\n    string name,\n    string symbol,\n    uint8 decimals\n  )\n    ERC20Burnable()\n    ERC20Mintable()\n    ERC20Detailed(name,symbol,decimals)\n    ERC20()\n    public\n  {\n    owner = msg.sender;\n  }\n\n  function kill() public {\n    require(owner == msg.sender);\n    selfdestruct(owner);\n  }\n}\n",
  "sourcePath": "/home/vagrant/DAPPS/tokenShopApp/contracts/ERC20TobyToken.sol",
  "compiler": {
    "name": "solc",
    "version": "0.4.24+commit.e67f0147.Emscripten.clang"
  },
  "schemaVersion": "2.0.1",
  "updatedAt": "2018-10-09T21:17:51.268Z"
}