{
  "contractName": "ERC20TokenStore",
  "abi": [
    {
      "constant": true,
      "inputs": [],
      "name": "exchangeRate",
      "outputs": [
        {
          "name": "",
          "type": "uint256"
        }
      ],
      "payable": false,
      "stateMutability": "view",
      "type": "function"
    },
    {
      "constant": false,
      "inputs": [],
      "name": "unpause",
      "outputs": [],
      "payable": false,
      "stateMutability": "nonpayable",
      "type": "function"
    },
    {
      "constant": true,
      "inputs": [
        {
          "name": "account",
          "type": "address"
        }
      ],
      "name": "isPauser",
      "outputs": [
        {
          "name": "",
          "type": "bool"
        }
      ],
      "payable": false,
      "stateMutability": "view",
      "type": "function"
    },
    {
      "constant": true,
      "inputs": [],
      "name": "paused",
      "outputs": [
        {
          "name": "",
          "type": "bool"
        }
      ],
      "payable": false,
      "stateMutability": "view",
      "type": "function"
    },
    {
      "constant": false,
      "inputs": [],
      "name": "renouncePauser",
      "outputs": [],
      "payable": false,
      "stateMutability": "nonpayable",
      "type": "function"
    },
    {
      "constant": false,
      "inputs": [],
      "name": "renounceOwnership",
      "outputs": [],
      "payable": false,
      "stateMutability": "nonpayable",
      "type": "function"
    },
    {
      "constant": false,
      "inputs": [
        {
          "name": "account",
          "type": "address"
        }
      ],
      "name": "addPauser",
      "outputs": [],
      "payable": false,
      "stateMutability": "nonpayable",
      "type": "function"
    },
    {
      "constant": false,
      "inputs": [],
      "name": "pause",
      "outputs": [],
      "payable": false,
      "stateMutability": "nonpayable",
      "type": "function"
    },
    {
      "constant": true,
      "inputs": [],
      "name": "owner",
      "outputs": [
        {
          "name": "",
          "type": "address"
        }
      ],
      "payable": false,
      "stateMutability": "view",
      "type": "function"
    },
    {
      "constant": true,
      "inputs": [],
      "name": "isOwner",
      "outputs": [
        {
          "name": "",
          "type": "bool"
        }
      ],
      "payable": false,
      "stateMutability": "view",
      "type": "function"
    },
    {
      "constant": true,
      "inputs": [],
      "name": "USDTETH",
      "outputs": [
        {
          "name": "",
          "type": "uint256"
        }
      ],
      "payable": false,
      "stateMutability": "view",
      "type": "function"
    },
    {
      "constant": false,
      "inputs": [
        {
          "name": "newOwner",
          "type": "address"
        }
      ],
      "name": "transferOwnership",
      "outputs": [],
      "payable": false,
      "stateMutability": "nonpayable",
      "type": "function"
    },
    {
      "inputs": [
        {
          "name": "_instance",
          "type": "address"
        }
      ],
      "payable": false,
      "stateMutability": "nonpayable",
      "type": "constructor"
    },
    {
      "anonymous": false,
      "inputs": [
        {
          "indexed": false,
          "name": "eSender",
          "type": "address"
        },
        {
          "indexed": false,
          "name": "eValue",
          "type": "uint256"
        },
        {
          "indexed": false,
          "name": "eTokenAmount",
          "type": "uint256"
        }
      ],
      "name": "LogBuyToken",
      "type": "event"
    },
    {
      "anonymous": false,
      "inputs": [
        {
          "indexed": false,
          "name": "eSender",
          "type": "address"
        },
        {
          "indexed": false,
          "name": "eRate",
          "type": "uint256"
        },
        {
          "indexed": false,
          "name": "eExchangeRate",
          "type": "uint256"
        }
      ],
      "name": "LogSetExchangeRate",
      "type": "event"
    },
    {
      "anonymous": false,
      "inputs": [
        {
          "indexed": false,
          "name": "eSender",
          "type": "address"
        },
        {
          "indexed": false,
          "name": "eETHXRate",
          "type": "uint256"
        }
      ],
      "name": "LogSetETHXRate",
      "type": "event"
    },
    {
      "anonymous": false,
      "inputs": [
        {
          "indexed": false,
          "name": "eSender",
          "type": "address"
        },
        {
          "indexed": false,
          "name": "eValue",
          "type": "uint256"
        }
      ],
      "name": "LogDeposit",
      "type": "event"
    },
    {
      "anonymous": false,
      "inputs": [
        {
          "indexed": false,
          "name": "eSender",
          "type": "address"
        },
        {
          "indexed": false,
          "name": "eValue",
          "type": "uint256"
        }
      ],
      "name": "LogWithdraw",
      "type": "event"
    },
    {
      "anonymous": false,
      "inputs": [],
      "name": "Paused",
      "type": "event"
    },
    {
      "anonymous": false,
      "inputs": [],
      "name": "Unpaused",
      "type": "event"
    },
    {
      "anonymous": false,
      "inputs": [
        {
          "indexed": true,
          "name": "account",
          "type": "address"
        }
      ],
      "name": "PauserAdded",
      "type": "event"
    },
    {
      "anonymous": false,
      "inputs": [
        {
          "indexed": true,
          "name": "account",
          "type": "address"
        }
      ],
      "name": "PauserRemoved",
      "type": "event"
    },
    {
      "anonymous": false,
      "inputs": [
        {
          "indexed": true,
          "name": "previousOwner",
          "type": "address"
        }
      ],
      "name": "OwnershipRenounced",
      "type": "event"
    },
    {
      "anonymous": false,
      "inputs": [
        {
          "indexed": true,
          "name": "previousOwner",
          "type": "address"
        },
        {
          "indexed": true,
          "name": "newOwner",
          "type": "address"
        }
      ],
      "name": "OwnershipTransferred",
      "type": "event"
    },
    {
      "constant": true,
      "inputs": [],
      "name": "getTokenSupply",
      "outputs": [
        {
          "name": "",
          "type": "uint256"
        }
      ],
      "payable": false,
      "stateMutability": "view",
      "type": "function"
    },
    {
      "constant": true,
      "inputs": [
        {
          "name": "_account",
          "type": "address"
        }
      ],
      "name": "getTokenBalance",
      "outputs": [
        {
          "name": "",
          "type": "uint256"
        }
      ],
      "payable": false,
      "stateMutability": "view",
      "type": "function"
    },
    {
      "constant": true,
      "inputs": [],
      "name": "getTokenName",
      "outputs": [
        {
          "name": "",
          "type": "string"
        }
      ],
      "payable": false,
      "stateMutability": "view",
      "type": "function"
    },
    {
      "constant": true,
      "inputs": [],
      "name": "getTokenSymbol",
      "outputs": [
        {
          "name": "",
          "type": "string"
        }
      ],
      "payable": false,
      "stateMutability": "view",
      "type": "function"
    },
    {
      "constant": true,
      "inputs": [],
      "name": "getTokenDecimals",
      "outputs": [
        {
          "name": "",
          "type": "uint8"
        }
      ],
      "payable": false,
      "stateMutability": "view",
      "type": "function"
    },
    {
      "constant": false,
      "inputs": [],
      "name": "buyToken",
      "outputs": [
        {
          "name": "",
          "type": "bool"
        }
      ],
      "payable": true,
      "stateMutability": "payable",
      "type": "function"
    },
    {
      "constant": true,
      "inputs": [],
      "name": "getStoreStock",
      "outputs": [
        {
          "name": "",
          "type": "uint256"
        }
      ],
      "payable": false,
      "stateMutability": "view",
      "type": "function"
    },
    {
      "constant": false,
      "inputs": [
        {
          "name": "_dollars_per_token",
          "type": "uint256"
        }
      ],
      "name": "setExchangeRate",
      "outputs": [
        {
          "name": "",
          "type": "bool"
        }
      ],
      "payable": false,
      "stateMutability": "nonpayable",
      "type": "function"
    },
    {
      "constant": false,
      "inputs": [
        {
          "name": "_dollars_per_eth",
          "type": "uint256"
        }
      ],
      "name": "setETHXRate",
      "outputs": [
        {
          "name": "",
          "type": "bool"
        }
      ],
      "payable": false,
      "stateMutability": "nonpayable",
      "type": "function"
    },
    {
      "constant": false,
      "inputs": [],
      "name": "deposit",
      "outputs": [
        {
          "name": "",
          "type": "bool"
        }
      ],
      "payable": true,
      "stateMutability": "payable",
      "type": "function"
    },
    {
      "constant": false,
      "inputs": [
        {
          "name": "_amount",
          "type": "uint256"
        }
      ],
      "name": "withdraw",
      "outputs": [
        {
          "name": "",
          "type": "bool"
        }
      ],
      "payable": false,
      "stateMutability": "nonpayable",
      "type": "function"
    }
  ],
  "bytecode": "0x60806040526002805460ff1916905534801561001a57600080fd5b50604051602080611125833981016040525160008054600160a060020a0319163390811790915561005a90600190640100000000610e2e61009182021704565b60028054600160a060020a039092166101000261010060a860020a0319909216919091179055670de0b6b3a76400006003556100cb565b600160a060020a03811615156100a657600080fd5b600160a060020a0316600090815260209190915260409020805460ff19166001179055565b61104b806100da6000396000f3006080604052600436106101325763ffffffff7c010000000000000000000000000000000000000000000000000000000060003504166324f65ee7811461013757806327487647146101625780632e1a7d4d146101895780633aecd0e3146101b55780633ba0b9a9146101d65780633f4ba83a146101eb57806346fbf68e146102025780635c975abb146102235780636ef8d66d14610238578063715018a61461024d57806382dc1ec4146102625780638456cb5914610283578063862b092b146102985780638da5cb5b146103225780638f32d59b14610353578063a482171914610368578063ad974f4c14610370578063bd01bc1414610385578063d0e30db01461039d578063db068e0e146103a5578063e0eb576d146103bd578063f1850af8146103d2578063f2fde38b146103e7575b600080fd5b34801561014357600080fd5b5061014c610408565b6040805160ff9092168252519081900360200190f35b34801561016e57600080fd5b506101776104a7565b60408051918252519081900360200190f35b34801561019557600080fd5b506101a1600435610511565b604080519115158252519081900360200190f35b3480156101c157600080fd5b50610177600160a060020a03600435166105cb565b3480156101e257600080fd5b5061017761066c565b3480156101f757600080fd5b50610200610672565b005b34801561020e57600080fd5b506101a1600160a060020a03600435166106cc565b34801561022f57600080fd5b506101a16106e5565b34801561024457600080fd5b506102006106ee565b34801561025957600080fd5b50610200610701565b34801561026e57600080fd5b50610200600160a060020a0360043516610769565b34801561028f57600080fd5b506102006107c5565b3480156102a457600080fd5b506102ad610821565b6040805160208082528351818301528351919283929083019185019080838360005b838110156102e75781810151838201526020016102cf565b50505050905090810190601f1680156103145780820380516001836020036101000a031916815260200191505b509250505060405180910390f35b34801561032e57600080fd5b5061033761091c565b60408051600160a060020a039092168252519081900360200190f35b34801561035f57600080fd5b506101a161092b565b6101a161093c565b34801561037c57600080fd5b50610177610bf5565b34801561039157600080fd5b506101a1600435610c63565b6101a1610c9a565b3480156103b157600080fd5b506101a1600435610cff565b3480156103c957600080fd5b50610177610d2d565b3480156103de57600080fd5b506102ad610d33565b3480156103f357600080fd5b50610200600160a060020a0360043516610da1565b6000600260019054906101000a9004600160a060020a0316600160a060020a031663313ce5676040518163ffffffff167c0100000000000000000000000000000000000000000000000000000000028152600401602060405180830381600087803b15801561047657600080fd5b505af115801561048a573d6000803e3d6000fd5b505050506040513d60208110156104a057600080fd5b5051905090565b600254604080517f70a0823100000000000000000000000000000000000000000000000000000000815230600482015290516000926101009004600160a060020a0316916370a0823191602480830192602092919082900301818787803b15801561047657600080fd5b60008061051c61092b565b151561052757600080fd5b60025460ff161561053757600080fd5b303183111561054557600080fd5b61054d61091c565b604080513381526020810186905281519293507f4ce7033d118120e254016dccf195288400b28fc8936425acd5f17ce2df3ab708929081900390910190a1604051600160a060020a0382169084156108fc029085906000818181858888f193505050501580156105c1573d6000803e3d6000fd5b5060019392505050565b600254604080517f70a08231000000000000000000000000000000000000000000000000000000008152600160a060020a03848116600483015291516000936101009004909216916370a082319160248082019260209290919082900301818787803b15801561063a57600080fd5b505af115801561064e573d6000803e3d6000fd5b505050506040513d602081101561066457600080fd5b505192915050565b60035481565b61067b336106cc565b151561068657600080fd5b60025460ff16151561069757600080fd5b6002805460ff191690556040517fa45f47fdea8a1efdd9029a5691c7f759c32b7c698632b563573e155625d1693390600090a1565b60006106df60018363ffffffff610dc016565b92915050565b60025460ff1690565b6106ff60013363ffffffff610df716565b565b61070961092b565b151561071457600080fd5b60008054604051600160a060020a03909116917ff8df31144d9c2f0f6b59d69b8b98abd5459d07f2742c4df920b25aae33c6482091a26000805473ffffffffffffffffffffffffffffffffffffffff19169055565b610772336106cc565b151561077d57600080fd5b61078e60018263ffffffff610e2e16565b604051600160a060020a038216907f6719d08c1888103bea251a4ed56406bd0c3e69723c8a1686e017e7bbe159b6f890600090a250565b6107ce336106cc565b15156107d957600080fd5b60025460ff16156107e957600080fd5b6002805460ff191660011790556040517f9e87fac88ff661f02d44f95383c817fece4bce600a3dab7a54406878b965e75290600090a1565b6060600260019054906101000a9004600160a060020a0316600160a060020a03166306fdde036040518163ffffffff167c0100000000000000000000000000000000000000000000000000000000028152600401600060405180830381600087803b15801561088f57600080fd5b505af11580156108a3573d6000803e3d6000fd5b505050506040513d6000823e601f3d908101601f1916820160405260208110156108cc57600080fd5b8101908080516401000000008111156108e457600080fd5b820160208101848111156108f757600080fd5b815164010000000081118282018710171561091157600080fd5b509094505050505090565b600054600160a060020a031690565b600054600160a060020a0316331490565b600254600090819060ff161561095157600080fd5b6000341161095e57600080fd5b600254604080517f70a0823100000000000000000000000000000000000000000000000000000000815230600482015290516000926101009004600160a060020a0316916370a0823191602480830192602092919082900301818787803b1580156109c857600080fd5b505af11580156109dc573d6000803e3d6000fd5b505050506040513d60208110156109f257600080fd5b5051116109fe57600080fd5b600254604080517f70a08231000000000000000000000000000000000000000000000000000000008152306004820152905134926101009004600160a060020a0316916370a082319160248083019260209291908290030181600087803b158015610a6857600080fd5b505af1158015610a7c573d6000803e3d6000fd5b505050506040513d6020811015610a9257600080fd5b50511015610a9f57600080fd5b610ace670de0b6b3a7640000610ac2600454600354610e6890919063ffffffff16565b9063ffffffff610ea116565b341015610ada57600080fd5b610b0d670de0b6b3a7640000610ac2600454610b0160035434610e6890919063ffffffff16565b9063ffffffff610e6816565b6040805133815234602082015280820183905290519192507f3bb720dcc9b5b2218b19a41ca92774fd6a9308760642254fcdb9c7ccc7a42e7e919081900360600190a1600254604080517fa9059cbb000000000000000000000000000000000000000000000000000000008152336004820152602481018490529051610100909204600160a060020a03169163a9059cbb916044808201926020929091908290030181600087803b158015610bc157600080fd5b505af1158015610bd5573d6000803e3d6000fd5b505050506040513d6020811015610beb57600080fd5b5060019250505090565b6000600260019054906101000a9004600160a060020a0316600160a060020a03166318160ddd6040518163ffffffff167c0100000000000000000000000000000000000000000000000000000000028152600401602060405180830381600087803b15801561047657600080fd5b6000610c6d61092b565b1515610c7857600080fd5b60025460ff1615610c8857600080fd5b610c9182610ec4565b50600192915050565b6000610ca461092b565b1515610caf57600080fd5b60025460ff1615610cbf57600080fd5b6040805133815234602082015281517f1b851e1031ef35a238e6c67d0c7991162390df915f70eaf9098dbf0b175a6198929181900390910190a150600190565b6000610d0961092b565b1515610d1457600080fd5b60025460ff1615610d2457600080fd5b610c9182610f1f565b60045481565b6060600260019054906101000a9004600160a060020a0316600160a060020a03166395d89b416040518163ffffffff167c0100000000000000000000000000000000000000000000000000000000028152600401600060405180830381600087803b15801561088f57600080fd5b610da961092b565b1515610db457600080fd5b610dbd81610fa2565b50565b6000600160a060020a0382161515610dd757600080fd5b50600160a060020a03166000908152602091909152604090205460ff1690565b600160a060020a0381161515610e0c57600080fd5b600160a060020a0316600090815260209190915260409020805460ff19169055565b600160a060020a0381161515610e4357600080fd5b600160a060020a0316600090815260209190915260409020805460ff19166001179055565b600080831515610e7b5760009150610e9a565b50828202828482811515610e8b57fe5b0414610e9657600080fd5b8091505b5092915050565b600080808311610eb057600080fd5b8284811515610ebb57fe5b04949350505050565b60025460009060ff1615610ed757600080fd5b6004829055604080513381526020810184905281517f62681e381a36267c9e75a4ca6f45f6854f1cfe05097763da36f01479c63e0631929181900390910190a1506001919050565b600254600090819060ff1615610f3457600080fd5b610f3c610408565b60ff16600a0a9050610f54818463ffffffff610ea116565b6003819055604080513381526020810186905280820192909252517f8e7e19c3c2da501e28433f232b7ab951190311c0f3b0a68c2467b9adb39a06e89181900360600190a150600192915050565b600160a060020a0381161515610fb757600080fd5b60008054604051600160a060020a03808516939216917f8be0079c531659141344cd1fd0a4f28419497f9722a3daafe3b4186f6b6457e091a36000805473ffffffffffffffffffffffffffffffffffffffff1916600160a060020a03929092169190911790555600a165627a7a72305820758b1dbc8e7b34a65ae58052a92aa30987295ce2fb7340fbfb7f0ef947ad10a40029",
  "source": "pragma solidity ^0.4.24;\n\nimport 'openzeppelin-solidity/contracts/ownership/Ownable.sol';\nimport 'openzeppelin-solidity/contracts/lifecycle/Pausable.sol';\nimport 'openzeppelin-solidity/contracts/math/SafeMath.sol';\n\ninterface Token {\n  function totalSupply() external view returns (uint256);\n\n  function balanceOf(address owner) external view returns (uint256);\n\n  function name() external view returns(string);\n\n  function symbol() external view returns(string);\n\n  function decimals() external view returns(uint8);\n\n  function allowance(address owner, address spender) external view returns (uint256);\n\n  function transfer(address to, uint256 value) external returns (bool);\n\n  function approve(address spender, uint256 value) external returns (bool);\n}\n\ncontract ERC20TokenStore is Ownable, Pausable {\n  using SafeMath for uint256;\n\n  Token tokenContract;\n\n  uint256 public exchangeRate;\n  uint256 public USDTETH;\n\n  event LogBuyToken(address eSender, uint256 eValue, uint256 eTokenAmount);\n  event LogSetExchangeRate(address eSender, uint256 eRate, uint256 eExchangeRate);\n  event LogSetETHXRate(address eSender, uint256 eETHXRate);\n  event LogDeposit(address eSender, uint256 eValue);\n  event LogWithdraw(address eSender, uint256 eValue);\n\n  //Default exchange rate is $1/Token\n  constructor(address _instance) public {\n    tokenContract = Token(_instance);\n    exchangeRate = 1000000000000000000;\n  }\n\n  //Token functions\n  function getTokenSupply() public view returns (uint256) {\n    return tokenContract.totalSupply();\n  }\n\n  function getTokenBalance(address _account) public view returns (uint256) {\n    return tokenContract.balanceOf(_account);\n  }\n\n  function getTokenName() public view returns (string) {\n    return tokenContract.name();\n  }\n\n  function getTokenSymbol() public view returns (string) {\n    return tokenContract.symbol();\n  }\n\n  function getTokenDecimals() public view returns (uint8) {\n    return tokenContract.decimals();\n  }\n\n  //User functions\n  function buyToken()\n  whenNotPaused\n  public\n  payable\n  returns (bool)\n  {\n    require(msg.value > 0);\n    require(tokenContract.balanceOf(address(this)) > 0);\n    //check not asking for more than stock\n    require(tokenContract.balanceOf(address(this)) >= msg.value);\n    //check value is at least 1 cross rate token bit unit per wei\n    require(msg.value >= exchangeRate.mul(USDTETH).div(10**18));\n    //wei to token bit conversion via dollars\n    //$ per ETH * ETH per wei * (1 / $ per tokenbit) = tokenbit per wei\n    uint256 _amount;\n    _amount = msg.value.mul(exchangeRate).mul(USDTETH).div(10**(18));\n    emit LogBuyToken(msg.sender, msg.value, _amount);\n    tokenContract.transfer(msg.sender, _amount);\n    return true;\n  }\n\n  //Store functions\n  function getStoreStock() public view returns (uint256) {\n    return tokenContract.balanceOf(address(this));\n  }\n\n  //Exchange rate in Dollars (i.e. Tokens per dollar)\n  function setExchangeRate(uint256 _dollars_per_token)\n  onlyOwner\n  whenNotPaused\n  public\n  returns (bool)\n  {\n    _setExchangeRate(_dollars_per_token);\n    return true;\n  }\n\n  function setETHXRate(uint256 _dollars_per_eth)\n  onlyOwner\n  whenNotPaused\n  public\n  returns (bool)\n  {\n    _setETHXRate(_dollars_per_eth);\n    return true;\n  }\n\n  function deposit()\n  onlyOwner\n  whenNotPaused\n  payable\n  public\n  returns (bool)\n  {\n    emit LogDeposit(msg.sender, msg.value);\n    return true;\n  }\n\n  function withdraw(uint256 _amount)\n  onlyOwner\n  whenNotPaused\n  public\n  returns (bool)\n  {\n    require(address(this).balance >= _amount);\n    address _owner;\n    _owner = owner();\n    emit LogWithdraw(msg.sender, _amount);\n    _owner.transfer(_amount);\n    return true;\n  }\n\n  //Internal functions\n  function _setExchangeRate(uint256 _dollars_per_token)\n  whenNotPaused\n  internal\n  returns (bool)\n  {\n    uint256 _decimals = getTokenDecimals();\n    _decimals = 10**(_decimals);\n    exchangeRate = _decimals.div(_dollars_per_token);\n    emit LogSetExchangeRate(msg.sender, _dollars_per_token, exchangeRate);\n    return true;\n  }\n\n  function _setETHXRate(uint256 _dollars_per_eth)\n  whenNotPaused\n  internal\n  returns (bool)\n  {\n    USDTETH = _dollars_per_eth;\n    emit LogSetETHXRate(msg.sender, _dollars_per_eth);\n    return true;\n  }\n\n\n}\n",
  "sourcePath": "/home/vagrant/DAPPS/tokenShopApp/contracts/ERC20TokenStore.sol",
  "compiler": {
    "name": "solc",
    "version": "0.4.24+commit.e67f0147.Emscripten.clang"
  },
  "schemaVersion": "2.0.1",
  "updatedAt": "2018-09-28T01:53:28.048Z"
}