{
  "contractName": "ERC20TokenShop",
  "abi": [
    {
      "constant": true,
      "inputs": [],
      "name": "exchangeRate",
      "outputs": [
        {
          "name": "",
          "type": "uint256"
        }
      ],
      "payable": false,
      "stateMutability": "view",
      "type": "function"
    },
    {
      "constant": false,
      "inputs": [],
      "name": "unpause",
      "outputs": [],
      "payable": false,
      "stateMutability": "nonpayable",
      "type": "function"
    },
    {
      "constant": true,
      "inputs": [
        {
          "name": "account",
          "type": "address"
        }
      ],
      "name": "isPauser",
      "outputs": [
        {
          "name": "",
          "type": "bool"
        }
      ],
      "payable": false,
      "stateMutability": "view",
      "type": "function"
    },
    {
      "constant": true,
      "inputs": [],
      "name": "paused",
      "outputs": [
        {
          "name": "",
          "type": "bool"
        }
      ],
      "payable": false,
      "stateMutability": "view",
      "type": "function"
    },
    {
      "constant": false,
      "inputs": [],
      "name": "renouncePauser",
      "outputs": [],
      "payable": false,
      "stateMutability": "nonpayable",
      "type": "function"
    },
    {
      "constant": false,
      "inputs": [],
      "name": "renounceOwnership",
      "outputs": [],
      "payable": false,
      "stateMutability": "nonpayable",
      "type": "function"
    },
    {
      "constant": false,
      "inputs": [
        {
          "name": "account",
          "type": "address"
        }
      ],
      "name": "addPauser",
      "outputs": [],
      "payable": false,
      "stateMutability": "nonpayable",
      "type": "function"
    },
    {
      "constant": false,
      "inputs": [],
      "name": "pause",
      "outputs": [],
      "payable": false,
      "stateMutability": "nonpayable",
      "type": "function"
    },
    {
      "constant": true,
      "inputs": [],
      "name": "owner",
      "outputs": [
        {
          "name": "",
          "type": "address"
        }
      ],
      "payable": false,
      "stateMutability": "view",
      "type": "function"
    },
    {
      "constant": true,
      "inputs": [],
      "name": "isOwner",
      "outputs": [
        {
          "name": "",
          "type": "bool"
        }
      ],
      "payable": false,
      "stateMutability": "view",
      "type": "function"
    },
    {
      "constant": true,
      "inputs": [],
      "name": "oracleTax",
      "outputs": [
        {
          "name": "",
          "type": "uint256"
        }
      ],
      "payable": false,
      "stateMutability": "view",
      "type": "function"
    },
    {
      "constant": true,
      "inputs": [],
      "name": "customGasLimit",
      "outputs": [
        {
          "name": "",
          "type": "uint256"
        }
      ],
      "payable": false,
      "stateMutability": "view",
      "type": "function"
    },
    {
      "constant": true,
      "inputs": [],
      "name": "USDTETH",
      "outputs": [
        {
          "name": "",
          "type": "uint256"
        }
      ],
      "payable": false,
      "stateMutability": "view",
      "type": "function"
    },
    {
      "constant": true,
      "inputs": [],
      "name": "queryURL",
      "outputs": [
        {
          "name": "",
          "type": "string"
        }
      ],
      "payable": false,
      "stateMutability": "view",
      "type": "function"
    },
    {
      "constant": true,
      "inputs": [],
      "name": "oraclizePriceType",
      "outputs": [
        {
          "name": "",
          "type": "string"
        }
      ],
      "payable": false,
      "stateMutability": "view",
      "type": "function"
    },
    {
      "constant": false,
      "inputs": [
        {
          "name": "newOwner",
          "type": "address"
        }
      ],
      "name": "transferOwnership",
      "outputs": [],
      "payable": false,
      "stateMutability": "nonpayable",
      "type": "function"
    },
    {
      "inputs": [
        {
          "name": "_instance",
          "type": "address"
        }
      ],
      "payable": false,
      "stateMutability": "nonpayable",
      "type": "constructor"
    },
    {
      "anonymous": false,
      "inputs": [
        {
          "indexed": false,
          "name": "eSender",
          "type": "address"
        },
        {
          "indexed": false,
          "name": "eValue",
          "type": "uint256"
        },
        {
          "indexed": false,
          "name": "eTokenAmount",
          "type": "uint256"
        }
      ],
      "name": "LogBuyToken",
      "type": "event"
    },
    {
      "anonymous": false,
      "inputs": [
        {
          "indexed": false,
          "name": "eSender",
          "type": "address"
        },
        {
          "indexed": false,
          "name": "eRate",
          "type": "uint256"
        },
        {
          "indexed": false,
          "name": "eExchangeRate",
          "type": "uint256"
        }
      ],
      "name": "LogSetExchangeRate",
      "type": "event"
    },
    {
      "anonymous": false,
      "inputs": [
        {
          "indexed": false,
          "name": "eSender",
          "type": "address"
        },
        {
          "indexed": false,
          "name": "eETHXRate",
          "type": "uint256"
        }
      ],
      "name": "LogSetETHXRateOverride",
      "type": "event"
    },
    {
      "anonymous": false,
      "inputs": [
        {
          "indexed": false,
          "name": "eSender",
          "type": "address"
        },
        {
          "indexed": false,
          "name": "eOracleTax",
          "type": "uint256"
        }
      ],
      "name": "LogSetOracleTaxOverride",
      "type": "event"
    },
    {
      "anonymous": false,
      "inputs": [
        {
          "indexed": false,
          "name": "eSender",
          "type": "address"
        },
        {
          "indexed": false,
          "name": "eQueryURL",
          "type": "string"
        }
      ],
      "name": "LogSetQueryURL",
      "type": "event"
    },
    {
      "anonymous": false,
      "inputs": [
        {
          "indexed": false,
          "name": "eSender",
          "type": "address"
        },
        {
          "indexed": false,
          "name": "eOraclizePriceType",
          "type": "string"
        }
      ],
      "name": "LogSetOraclizePriceType",
      "type": "event"
    },
    {
      "anonymous": false,
      "inputs": [
        {
          "indexed": false,
          "name": "eSender",
          "type": "address"
        },
        {
          "indexed": false,
          "name": "eGasLimit",
          "type": "uint256"
        }
      ],
      "name": "LogSetGasLimit",
      "type": "event"
    },
    {
      "anonymous": false,
      "inputs": [
        {
          "indexed": false,
          "name": "eRecipient",
          "type": "address"
        },
        {
          "indexed": false,
          "name": "eSender",
          "type": "address"
        },
        {
          "indexed": false,
          "name": "eAmount",
          "type": "uint256"
        }
      ],
      "name": "LogApproveBurn",
      "type": "event"
    },
    {
      "anonymous": false,
      "inputs": [
        {
          "indexed": false,
          "name": "eSender",
          "type": "address"
        },
        {
          "indexed": false,
          "name": "eValue",
          "type": "uint256"
        }
      ],
      "name": "LogDeposit",
      "type": "event"
    },
    {
      "anonymous": false,
      "inputs": [
        {
          "indexed": false,
          "name": "eSender",
          "type": "address"
        },
        {
          "indexed": false,
          "name": "eValue",
          "type": "uint256"
        }
      ],
      "name": "LogWithdraw",
      "type": "event"
    },
    {
      "anonymous": false,
      "inputs": [
        {
          "indexed": false,
          "name": "eSender",
          "type": "address"
        },
        {
          "indexed": false,
          "name": "eETHXRate",
          "type": "string"
        }
      ],
      "name": "LogSetETHXUpdated",
      "type": "event"
    },
    {
      "anonymous": false,
      "inputs": [
        {
          "indexed": false,
          "name": "eOracleResponse",
          "type": "string"
        }
      ],
      "name": "LogNewOraclizeQuery",
      "type": "event"
    },
    {
      "anonymous": false,
      "inputs": [],
      "name": "Paused",
      "type": "event"
    },
    {
      "anonymous": false,
      "inputs": [],
      "name": "Unpaused",
      "type": "event"
    },
    {
      "anonymous": false,
      "inputs": [
        {
          "indexed": true,
          "name": "account",
          "type": "address"
        }
      ],
      "name": "PauserAdded",
      "type": "event"
    },
    {
      "anonymous": false,
      "inputs": [
        {
          "indexed": true,
          "name": "account",
          "type": "address"
        }
      ],
      "name": "PauserRemoved",
      "type": "event"
    },
    {
      "anonymous": false,
      "inputs": [
        {
          "indexed": true,
          "name": "previousOwner",
          "type": "address"
        }
      ],
      "name": "OwnershipRenounced",
      "type": "event"
    },
    {
      "anonymous": false,
      "inputs": [
        {
          "indexed": true,
          "name": "previousOwner",
          "type": "address"
        },
        {
          "indexed": true,
          "name": "newOwner",
          "type": "address"
        }
      ],
      "name": "OwnershipTransferred",
      "type": "event"
    },
    {
      "constant": true,
      "inputs": [],
      "name": "getTokenSupply",
      "outputs": [
        {
          "name": "",
          "type": "uint256"
        }
      ],
      "payable": false,
      "stateMutability": "view",
      "type": "function"
    },
    {
      "constant": true,
      "inputs": [
        {
          "name": "_account",
          "type": "address"
        }
      ],
      "name": "getTokenBalance",
      "outputs": [
        {
          "name": "",
          "type": "uint256"
        }
      ],
      "payable": false,
      "stateMutability": "view",
      "type": "function"
    },
    {
      "constant": true,
      "inputs": [],
      "name": "getTokenName",
      "outputs": [
        {
          "name": "",
          "type": "string"
        }
      ],
      "payable": false,
      "stateMutability": "view",
      "type": "function"
    },
    {
      "constant": true,
      "inputs": [],
      "name": "getTokenSymbol",
      "outputs": [
        {
          "name": "",
          "type": "string"
        }
      ],
      "payable": false,
      "stateMutability": "view",
      "type": "function"
    },
    {
      "constant": true,
      "inputs": [],
      "name": "getTokenDecimals",
      "outputs": [
        {
          "name": "",
          "type": "uint8"
        }
      ],
      "payable": false,
      "stateMutability": "view",
      "type": "function"
    },
    {
      "constant": false,
      "inputs": [],
      "name": "buyToken",
      "outputs": [
        {
          "name": "",
          "type": "bool"
        }
      ],
      "payable": true,
      "stateMutability": "payable",
      "type": "function"
    },
    {
      "constant": false,
      "inputs": [
        {
          "name": "myid",
          "type": "bytes32"
        },
        {
          "name": "result",
          "type": "string"
        }
      ],
      "name": "__callback",
      "outputs": [],
      "payable": false,
      "stateMutability": "nonpayable",
      "type": "function"
    },
    {
      "constant": false,
      "inputs": [
        {
          "name": "myid",
          "type": "bytes32"
        },
        {
          "name": "result",
          "type": "string"
        },
        {
          "name": "proof",
          "type": "bytes"
        }
      ],
      "name": "__callback",
      "outputs": [],
      "payable": false,
      "stateMutability": "nonpayable",
      "type": "function"
    },
    {
      "constant": false,
      "inputs": [],
      "name": "updatePrice",
      "outputs": [],
      "payable": true,
      "stateMutability": "payable",
      "type": "function"
    },
    {
      "constant": true,
      "inputs": [],
      "name": "getShopStock",
      "outputs": [
        {
          "name": "",
          "type": "uint256"
        }
      ],
      "payable": false,
      "stateMutability": "view",
      "type": "function"
    },
    {
      "constant": true,
      "inputs": [],
      "name": "getOracleTax",
      "outputs": [
        {
          "name": "",
          "type": "uint256"
        }
      ],
      "payable": false,
      "stateMutability": "view",
      "type": "function"
    },
    {
      "constant": false,
      "inputs": [
        {
          "name": "_dollars_per_token",
          "type": "uint256"
        }
      ],
      "name": "setExchangeRate",
      "outputs": [
        {
          "name": "",
          "type": "bool"
        }
      ],
      "payable": false,
      "stateMutability": "nonpayable",
      "type": "function"
    },
    {
      "constant": false,
      "inputs": [
        {
          "name": "_dollars_per_eth",
          "type": "uint256"
        }
      ],
      "name": "setETHXRateOverride",
      "outputs": [
        {
          "name": "",
          "type": "bool"
        }
      ],
      "payable": false,
      "stateMutability": "nonpayable",
      "type": "function"
    },
    {
      "constant": false,
      "inputs": [
        {
          "name": "_oracleTax",
          "type": "uint256"
        }
      ],
      "name": "setOracleTaxOverride",
      "outputs": [
        {
          "name": "",
          "type": "bool"
        }
      ],
      "payable": false,
      "stateMutability": "nonpayable",
      "type": "function"
    },
    {
      "constant": false,
      "inputs": [
        {
          "name": "_url",
          "type": "string"
        }
      ],
      "name": "setQueryURL",
      "outputs": [
        {
          "name": "",
          "type": "bool"
        }
      ],
      "payable": false,
      "stateMutability": "nonpayable",
      "type": "function"
    },
    {
      "constant": false,
      "inputs": [
        {
          "name": "_type",
          "type": "string"
        }
      ],
      "name": "setOraclizePriceType",
      "outputs": [
        {
          "name": "",
          "type": "bool"
        }
      ],
      "payable": false,
      "stateMutability": "nonpayable",
      "type": "function"
    },
    {
      "constant": false,
      "inputs": [
        {
          "name": "_newGasLimit",
          "type": "uint256"
        }
      ],
      "name": "setGasLimit",
      "outputs": [
        {
          "name": "",
          "type": "bool"
        }
      ],
      "payable": false,
      "stateMutability": "nonpayable",
      "type": "function"
    },
    {
      "constant": false,
      "inputs": [
        {
          "name": "_recipient",
          "type": "address"
        },
        {
          "name": "_amount",
          "type": "uint256"
        }
      ],
      "name": "approveBurn",
      "outputs": [
        {
          "name": "",
          "type": "bool"
        }
      ],
      "payable": false,
      "stateMutability": "nonpayable",
      "type": "function"
    },
    {
      "constant": false,
      "inputs": [],
      "name": "deposit",
      "outputs": [
        {
          "name": "",
          "type": "bool"
        }
      ],
      "payable": true,
      "stateMutability": "payable",
      "type": "function"
    },
    {
      "constant": false,
      "inputs": [
        {
          "name": "_amount",
          "type": "uint256"
        }
      ],
      "name": "withdraw",
      "outputs": [
        {
          "name": "",
          "type": "bool"
        }
      ],
      "payable": false,
      "stateMutability": "nonpayable",
      "type": "function"
    },
    {
      "constant": false,
      "inputs": [],
      "name": "kill",
      "outputs": [],
      "payable": false,
      "stateMutability": "nonpayable",
      "type": "function"
    }
  ],
  "bytecode": "0x60806040526002805460ff191690553480156200001b57600080fd5b5060405160208062002c66833981016040525160008054600160a060020a03191633908117909155620000579064010000000062000147810204565b60078054600160a060020a031916600160a060020a03831617905560c8600a55670de0b6b3a7640000600955620186a06008556040805180820190915260038082527f55524c00000000000000000000000000000000000000000000000000000000006020909201918252620000d091600d91620001d4565b506040805160608101825260388082527f6a736f6e2868747470733a2f2f6170692e676461782e636f6d2f70726f647563602083019081527f74732f4554482d5553442f7469636b6572292e7072696365000000000000000092909301919091526200013f91600c91620001d4565b505062000279565b62000162600182640100000000620025416200019982021704565b604051600160a060020a038216907f6719d08c1888103bea251a4ed56406bd0c3e69723c8a1686e017e7bbe159b6f890600090a250565b600160a060020a0381161515620001af57600080fd5b600160a060020a0316600090815260209190915260409020805460ff19166001179055565b828054600181600116156101000203166002900490600052602060002090601f016020900481019282601f106200021757805160ff191683800117855562000247565b8280016001018555821562000247579182015b82811115620002475782518255916020019190600101906200022a565b506200025592915062000259565b5090565b6200027691905b8082111562000255576000815560010162000260565b90565b6129dd80620002896000396000f3006080604052600436106101b35763ffffffff60e060020a6000350416630363f8e781146101b85780630cfa03181461022557806319d6172d1461024957806324f65ee7146102a257806327dc297e146102cd5780632e1a7d4d1461032d5780633516e93a1461034557806338bbfa501461036c5780633aecd0e3146104085780633ba0b9a9146104295780633f4ba83a1461043e57806341c0e1b51461045357806346fbf68e146104685780635c975abb1461048957806360c07e741461049e578063673a7e28146104b35780636ef8d66d146104bb578063715018a6146104d057806382dc1ec4146104e55780638456cb5914610506578063862b092b1461051b5780638da5cb5b146105a55780638f32d59b146105d657806393398487146105eb578063a482171914610600578063ad974f4c14610608578063caa122fd1461061d578063d0e30db014610632578063d87ac3391461063a578063db068e0e14610652578063e0eb576d1461066a578063e1d689c71461067f578063e696fdf714610697578063ee7d72b4146106ac578063f1850af8146106c4578063f20489f8146106d9578063f2fde38b146106ee575b600080fd5b3480156101c457600080fd5b506040805160206004803580820135601f810184900484028501840190955284845261021194369492936024939284019190819084018382808284375094975061070f9650505050505050565b604080519115158252519081900360200190f35b34801561023157600080fd5b50610211600160a060020a0360043516602435610803565b34801561025557600080fd5b506040805160206004803580820135601f81018490048402850184019095528484526102119436949293602493928401919081908401838280828437509497506109149650505050505050565b3480156102ae57600080fd5b506102b76109c4565b6040805160ff9092168252519081900360200190f35b3480156102d957600080fd5b5060408051602060046024803582810135601f810185900485028601850190965285855261032b958335953695604494919390910191908190840183828082843750949750610a559650505050505050565b005b34801561033957600080fd5b50610211600435610b39565b34801561035157600080fd5b5061035a610bf3565b60408051918252519081900360200190f35b34801561037857600080fd5b5060408051602060046024803582810135601f810185900485028601850190965285855261032b95833595369560449491939091019190819084018382808284375050604080516020601f89358b018035918201839004830284018301909452808352979a999881019791965091820194509250829150840183828082843750949750610bf99650505050505050565b34801561041457600080fd5b5061035a600160a060020a0360043516610bfe565b34801561043557600080fd5b5061035a610c9b565b34801561044a57600080fd5b5061032b610ca1565b34801561045f57600080fd5b5061032b610cfb565b34801561047457600080fd5b50610211600160a060020a0360043516610d21565b34801561049557600080fd5b50610211610d3a565b3480156104aa57600080fd5b5061035a610d43565b61032b610da8565b3480156104c757600080fd5b5061032b610f69565b3480156104dc57600080fd5b5061032b610f74565b3480156104f157600080fd5b5061032b600160a060020a0360043516610fdc565b34801561051257600080fd5b5061032b610ff9565b34801561052757600080fd5b50610530611055565b6040805160208082528351818301528351919283929083019185019080838360005b8381101561056a578181015183820152602001610552565b50505050905090810190601f1680156105975780820380516001836020036101000a031916815260200191505b509250505060405180910390f35b3480156105b157600080fd5b506105ba611141565b60408051600160a060020a039092168252519081900360200190f35b3480156105e257600080fd5b50610211611150565b3480156105f757600080fd5b5061035a611161565b610211611167565b34801561061457600080fd5b5061035a6114e8565b34801561062957600080fd5b5061035a611547565b61021161154d565b34801561064657600080fd5b506102116004356115b2565b34801561065e57600080fd5b5061021160043561161f565b34801561067657600080fd5b5061035a6116b3565b34801561068b57600080fd5b506102116004356116b9565b3480156106a357600080fd5b50610530611726565b3480156106b857600080fd5b506102116004356117b4565b3480156106d057600080fd5b50610530611821565b3480156106e557600080fd5b50610530611880565b3480156106fa57600080fd5b5061032b600160a060020a03600435166118db565b6000610719611150565b151561072457600080fd5b60025460ff161561073457600080fd5b815161074790600c906020850190612923565b507f6323748ea0903b748f263a02c69f44e83a935eb5f60168a7355e63bbdadd0de933836040518083600160a060020a0316600160a060020a0316815260200180602001828103825283818151815260200191508051906020019080838360005b838110156107c05781810151838201526020016107a8565b50505050905090810190601f1680156107ed5780820380516001836020036101000a031916815260200191505b50935050505060405180910390a1506001919050565b600061080d611150565b151561081857600080fd5b60025460ff161561082857600080fd5b60408051600160a060020a038516815233602082015280820184905290517f8f731d87c5a8652b66c4fdc516b1c197412655129c9a20230f99a568f05fa0d69181900360600190a1600754604080517f095ea7b3000000000000000000000000000000000000000000000000000000008152600160a060020a038681166004830152602482018690529151919092169163095ea7b39160448083019260209291908290030181600087803b1580156108df57600080fd5b505af11580156108f3573d6000803e3d6000fd5b505050506040513d602081101561090957600080fd5b506001949350505050565b600061091e611150565b151561092957600080fd5b60025460ff161561093957600080fd5b815161094c90600d906020850190612923565b507fcdb7d8b258e95d8cd2c6e2ad9b710bdc2b0058ab23a5cd7ac339e1b2269e897b33836040518083600160a060020a0316600160a060020a031681526020018060200182810382528381815181526020019150805190602001908083836000838110156107c05781810151838201526020016107a8565b600754604080517f313ce5670000000000000000000000000000000000000000000000000000000081529051600092600160a060020a03169163313ce56791600480830192602092919082900301818787803b158015610a2357600080fd5b505af1158015610a37573d6000803e3d6000fd5b505050506040513d6020811015610a4d57600080fd5b505190505b90565b610a5d6118f7565b600160a060020a03163314610a7157600080fd5b610a7c816000611ad2565b600a819055507f7cbfdd3eda751b1e5cdb1786e5bdc616ef015671f13eb23ae7e48bd03233da7e33826040518083600160a060020a0316600160a060020a0316815260200180602001828103825283818151815260200191508051906020019080838360005b83811015610afa578181015183820152602001610ae2565b50505050905090810190601f168015610b275780820380516001836020036101000a031916815260200191505b50935050505060405180910390a15050565b600080610b44611150565b1515610b4f57600080fd5b60025460ff1615610b5f57600080fd5b3031831115610b6d57600080fd5b610b75611141565b604080513381526020810186905281519293507f4ce7033d118120e254016dccf195288400b28fc8936425acd5f17ce2df3ab708929081900390910190a1604051600160a060020a0382169084156108fc029085906000818181858888f19350505050158015610be9573d6000803e3d6000fd5b5060019392505050565b600b5490565b505050565b600754604080517f70a08231000000000000000000000000000000000000000000000000000000008152600160a060020a038481166004830152915160009392909216916370a082319160248082019260209290919082900301818787803b158015610c6957600080fd5b505af1158015610c7d573d6000803e3d6000fd5b505050506040513d6020811015610c9357600080fd5b505192915050565b60095481565b610caa33610d21565b1515610cb557600080fd5b60025460ff161515610cc657600080fd5b6002805460ff191690556040517fa45f47fdea8a1efdd9029a5691c7f759c32b7c698632b563573e155625d1693390600090a1565b610d03611150565b1515610d0e57600080fd5b610d16611141565b600160a060020a0316ff5b6000610d3460018363ffffffff611c8c16565b92915050565b60025460ff1690565b600754604080517f70a082310000000000000000000000000000000000000000000000000000000081523060048201529051600092600160a060020a0316916370a0823191602480830192602092919082900301818787803b158015610a2357600080fd5b60025460ff1615610db857600080fd5b6040805160208082526036908201527f4f7261636c697a65207175657279207761732073656e742c207374616e64696e818301527f6720627920666f722074686520616e737765722e2e2e00000000000000000000606082015290517f621c2856e3b87f81235f8ac8a22bbb40a0142961960710d00b2b6c380902b57e9181900360800190a1600d8054604080516020601f60026000196101006001881615020190951694909404938401819004810282018101909252828152610f669390929091830182828015610ecb5780601f10610ea057610100808354040283529160200191610ecb565b820191906000526020600020905b815481529060010190602001808311610eae57829003601f168201915b5050600c8054604080516020601f6002600019610100600188161502019095169490940493840181900481028201810190925282815295509193509150830182828015610f595780601f10610f2e57610100808354040283529160200191610f59565b820191906000526020600020905b815481529060010190602001808311610f3c57829003601f168201915b5050505050600854611cc3565b50565b610f72336120df565b565b610f7c611150565b1515610f8757600080fd5b60008054604051600160a060020a03909116917ff8df31144d9c2f0f6b59d69b8b98abd5459d07f2742c4df920b25aae33c6482091a26000805473ffffffffffffffffffffffffffffffffffffffff19169055565b610fe533610d21565b1515610ff057600080fd5b610f6681612127565b61100233610d21565b151561100d57600080fd5b60025460ff161561101d57600080fd5b6002805460ff191660011790556040517f9e87fac88ff661f02d44f95383c817fece4bce600a3dab7a54406878b965e75290600090a1565b600754604080517f06fdde030000000000000000000000000000000000000000000000000000000081529051606092600160a060020a0316916306fdde0391600480830192600092919082900301818387803b1580156110b457600080fd5b505af11580156110c8573d6000803e3d6000fd5b505050506040513d6000823e601f3d908101601f1916820160405260208110156110f157600080fd5b81019080805164010000000081111561110957600080fd5b8201602081018481111561111c57600080fd5b815164010000000081118282018710171561113657600080fd5b509094505050505090565b600054600160a060020a031690565b600054600160a060020a0316331490565b600b5481565b600254600090819060ff161561117c57600080fd5b6000341161118957600080fd5b600754604080517f70a082310000000000000000000000000000000000000000000000000000000081523060048201529051600092600160a060020a0316916370a0823191602480830192602092919082900301818787803b1580156111ee57600080fd5b505af1158015611202573d6000803e3d6000fd5b505050506040513d602081101561121857600080fd5b50511161122457600080fd5b600b5461123890349063ffffffff61216f16565b600754604080517f70a082310000000000000000000000000000000000000000000000000000000081523060048201529051600160a060020a03909216916370a08231916024808201926020929091908290030181600087803b15801561129e57600080fd5b505af11580156112b2573d6000803e3d6000fd5b505050506040513d60208110156112c857600080fd5b505110156112d557600080fd5b600d8054604080516020601f6002600019610100600188161502019095169490940493840181900481028201810190925282815261136f93909290918301828280156113625780601f1061133757610100808354040283529160200191611362565b820191906000526020600020905b81548152906001019060200180831161134557829003601f168201915b505050505060085461218d565b600b819055506113b6600b546113aa670de0b6b3a764000061139e600a5460095461241590919063ffffffff16565b9063ffffffff61244a16565b9063ffffffff61246d16565b3410156113c257600080fd5b6113ca610da8565b611403670de0b6b3a764000061139e600a546113f76009546113f7600b543461216f90919063ffffffff16565b9063ffffffff61241516565b6040805133815234602082015280820183905290519192507f3bb720dcc9b5b2218b19a41ca92774fd6a9308760642254fcdb9c7ccc7a42e7e919081900360600190a1600754604080517fa9059cbb000000000000000000000000000000000000000000000000000000008152336004820152602481018490529051600160a060020a039092169163a9059cbb916044808201926020929091908290030181600087803b1580156114b357600080fd5b505af11580156114c7573d6000803e3d6000fd5b505050506040513d60208110156114dd57600080fd5b5060019250505b5090565b600754604080517f18160ddd0000000000000000000000000000000000000000000000000000000081529051600092600160a060020a0316916318160ddd91600480830192602092919082900301818787803b158015610a2357600080fd5b60085481565b6000611557611150565b151561156257600080fd5b60025460ff161561157257600080fd5b6040805133815234602082015281517f1b851e1031ef35a238e6c67d0c7991162390df915f70eaf9098dbf0b175a6198929181900390910190a150600190565b60006115bc611150565b15156115c757600080fd5b60025460ff16156115d757600080fd5b600a829055604080513381526020810184905281517f238879033f65fd36b707914746ca37d674a78c13b57f9910026410681991c889929181900390910190a1506001919050565b60008061162a611150565b151561163557600080fd5b60025460ff161561164557600080fd5b61164d6109c4565b60ff16600a0a9050611665818463ffffffff61244a16565b6009819055604080513381526020810186905280820192909252517f8e7e19c3c2da501e28433f232b7ab951190311c0f3b0a68c2467b9adb39a06e89181900360600190a150600192915050565b600a5481565b60006116c3611150565b15156116ce57600080fd5b60025460ff16156116de57600080fd5b600b829055604080513381526020810184905281517ff54418c9106b955e37b8f0994b7c8c325aad3c3ad503efc50a4ac10139c9e003929181900390910190a1506001919050565b600c805460408051602060026001851615610100026000190190941693909304601f810184900484028201840190925281815292918301828280156117ac5780601f10611781576101008083540402835291602001916117ac565b820191906000526020600020905b81548152906001019060200180831161178f57829003601f168201915b505050505081565b60006117be611150565b15156117c957600080fd5b60025460ff16156117d957600080fd5b6008829055604080513381526020810184905281517feec39e649d5b148d8da8158c012f5fc1b1762b173751d9884260f52ceac10293929181900390910190a1506001919050565b600754604080517f95d89b410000000000000000000000000000000000000000000000000000000081529051606092600160a060020a0316916395d89b4191600480830192600092919082900301818387803b1580156110b457600080fd5b600d805460408051602060026001851615610100026000190190941693909304601f810184900484028201840190925281815292918301828280156117ac5780601f10611781576101008083540402835291602001916117ac565b6118e3611150565b15156118ee57600080fd5b610f668161247f565b6002546000906101009004600160a060020a0316158061192e575060025461192c906101009004600160a060020a03166124fc565b155b1561193f5761193d6000612500565b505b600260019054906101000a9004600160a060020a0316600160a060020a03166338cc48316040518163ffffffff1660e060020a028152600401602060405180830381600087803b15801561199257600080fd5b505af11580156119a6573d6000803e3d6000fd5b505050506040513d60208110156119bc57600080fd5b5051600354600160a060020a03908116911614611a7f57600260019054906101000a9004600160a060020a0316600160a060020a03166338cc48316040518163ffffffff1660e060020a028152600401602060405180830381600087803b158015611a2657600080fd5b505af1158015611a3a573d6000803e3d6000fd5b505050506040513d6020811015611a5057600080fd5b50516003805473ffffffffffffffffffffffffffffffffffffffff1916600160a060020a039092169190911790555b600360009054906101000a9004600160a060020a0316600160a060020a031663c281d19e6040518163ffffffff1660e060020a028152600401602060405180830381600087803b158015610a2357600080fd5b6000828180805b8351811015611c6f5783517f300000000000000000000000000000000000000000000000000000000000000090859083908110611b1257fe5b90602001015160f860020a900460f860020a027effffffffffffffffffffffffffffffffffffffffffffffffffffffffffffff191610158015611bb8575083517f390000000000000000000000000000000000000000000000000000000000000090859083908110611b8057fe5b90602001015160f860020a900460f860020a027effffffffffffffffffffffffffffffffffffffffffffffffffffffffffffff191611155b15611c11578115611bd757851515611bcf57611c6f565b600019909501945b600a8302925060308482815181101515611bed57fe5b90602001015160f860020a900460f860020a0260f860020a90040383019250611c67565b8381815181101515611c1f57fe5b90602001015160f860020a900460f860020a027effffffffffffffffffffffffffffffffffffffffffffffffffffffffffffff1916602e60f860020a021415611c6757600191505b600101611ad9565b6000861115611c815785600a0a830292505b509095945050505050565b6000600160a060020a0382161515611ca357600080fd5b50600160a060020a03166000908152602091909152604090205460ff1690565b60025460009081906101009004600160a060020a03161580611cfc5750600254611cfa906101009004600160a060020a03166124fc565b155b15611d0d57611d0b6000612500565b505b600260019054906101000a9004600160a060020a0316600160a060020a03166338cc48316040518163ffffffff1660e060020a028152600401602060405180830381600087803b158015611d6057600080fd5b505af1158015611d74573d6000803e3d6000fd5b505050506040513d6020811015611d8a57600080fd5b5051600354600160a060020a03908116911614611e4d57600260019054906101000a9004600160a060020a0316600160a060020a03166338cc48316040518163ffffffff1660e060020a028152600401602060405180830381600087803b158015611df457600080fd5b505af1158015611e08573d6000803e3d6000fd5b505050506040513d6020811015611e1e57600080fd5b50516003805473ffffffffffffffffffffffffffffffffffffffff1916600160a060020a039092169190911790555b600354604080517f2ef3accc0000000000000000000000000000000000000000000000000000000081526024810186905260048101918252875160448201528751600160a060020a0390931692632ef3accc9289928892829160640190602086019080838360005b83811015611ecd578181015183820152602001611eb5565b50505050905090810190601f168015611efa5780820380516001836020036101000a031916815260200191505b509350505050602060405180830381600087803b158015611f1a57600080fd5b505af1158015611f2e573d6000803e3d6000fd5b505050506040513d6020811015611f4457600080fd5b50519050670de0b6b3a76400003a840201811115611f6557600091506120d7565b6003546040517fc51be90f00000000000000000000000000000000000000000000000000000000815260006004820181815260648301879052608060248401908152895160848501528951600160a060020a039095169463c51be90f948794938c938c938c93604481019160a49091019060208801908083838c5b83811015611ff8578181015183820152602001611fe0565b50505050905090810190601f1680156120255780820380516001836020036101000a031916815260200191505b50838103825285518152855160209182019187019080838360005b83811015612058578181015183820152602001612040565b50505050905090810190601f1680156120855780820380516001836020036101000a031916815260200191505b5096505050505050506020604051808303818588803b1580156120a757600080fd5b505af11580156120bb573d6000803e3d6000fd5b50505050506040513d60208110156120d257600080fd5b505191505b509392505050565b6120f060018263ffffffff61250a16565b604051600160a060020a038216907fcd265ebaf09df2871cc7bd4133404a235ba12eff2041bb89d9c714a2621c7c7e90600090a250565b61213860018263ffffffff61254116565b604051600160a060020a038216907f6719d08c1888103bea251a4ed56406bd0c3e69723c8a1686e017e7bbe159b6f890600090a250565b6000808383111561217f57600080fd5b5050808203805b5092915050565b6002546000906101009004600160a060020a031615806121c457506002546121c2906101009004600160a060020a03166124fc565b155b156121d5576121d36000612500565b505b600260019054906101000a9004600160a060020a0316600160a060020a03166338cc48316040518163ffffffff1660e060020a028152600401602060405180830381600087803b15801561222857600080fd5b505af115801561223c573d6000803e3d6000fd5b505050506040513d602081101561225257600080fd5b5051600354600160a060020a0390811691161461231557600260019054906101000a9004600160a060020a0316600160a060020a03166338cc48316040518163ffffffff1660e060020a028152600401602060405180830381600087803b1580156122bc57600080fd5b505af11580156122d0573d6000803e3d6000fd5b505050506040513d60208110156122e657600080fd5b50516003805473ffffffffffffffffffffffffffffffffffffffff1916600160a060020a039092169190911790555b600354604080517f2ef3accc0000000000000000000000000000000000000000000000000000000081526024810185905260048101918252855160448201528551600160a060020a0390931692632ef3accc9287928792829160640190602086019080838360005b8381101561239557818101518382015260200161237d565b50505050905090810190601f1680156123c25780820380516001836020036101000a031916815260200191505b509350505050602060405180830381600087803b1580156123e257600080fd5b505af11580156123f6573d6000803e3d6000fd5b505050506040513d602081101561240c57600080fd5b50519392505050565b6000808315156124285760009150612186565b5082820282848281151561243857fe5b041461244357600080fd5b9392505050565b60008080831161245957600080fd5b828481151561246457fe5b04949350505050565b60008282018381101561244357600080fd5b600160a060020a038116151561249457600080fd5b60008054604051600160a060020a03808516939216917f8be0079c531659141344cd1fd0a4f28419497f9722a3daafe3b4186f6b6457e091a36000805473ffffffffffffffffffffffffffffffffffffffff1916600160a060020a0392909216919091179055565b3b90565b6000610d3461257b565b600160a060020a038116151561251f57600080fd5b600160a060020a0316600090815260209190915260409020805460ff19169055565b600160a060020a038116151561255657600080fd5b600160a060020a0316600090815260209190915260409020805460ff19166001179055565b60008061259b731d3b2638a7cc9f2cb3d298a3da7a90b67e5506ed6124fc565b111561261b576002805474ffffffffffffffffffffffffffffffffffffffff001916741d3b2638a7cc9f2cb3d298a3da7a90b67e5506ed0017905560408051808201909152600b81527f6574685f6d61696e6e657400000000000000000000000000000000000000000060208201526126139061290c565b506001610a52565b600061263a73c03a2615d5efaf5f49f60b7bb6583eaec212fdf16124fc565b11156126b2576002805474ffffffffffffffffffffffffffffffffffffffff00191674c03a2615d5efaf5f49f60b7bb6583eaec212fdf10017905560408051808201909152600c81527f6574685f726f707374656e33000000000000000000000000000000000000000060208201526126139061290c565b60006126d173b7a07bcf2ba2f2703b24c0691b5278999c59ac7e6124fc565b1115612749576002805474ffffffffffffffffffffffffffffffffffffffff00191674b7a07bcf2ba2f2703b24c0691b5278999c59ac7e0017905560408051808201909152600981527f6574685f6b6f76616e000000000000000000000000000000000000000000000060208201526126139061290c565b600061276873146500cfd35b22e4a392fe0adc06de1a1368ed486124fc565b11156127e0576002805474ffffffffffffffffffffffffffffffffffffffff00191674146500cfd35b22e4a392fe0adc06de1a1368ed480017905560408051808201909152600b81527f6574685f72696e6b65627900000000000000000000000000000000000000000060208201526126139061290c565b60006127ff736f485c8bf6fc43ea212e93bbf8ce046c7f1cb4756124fc565b111561284257506002805474ffffffffffffffffffffffffffffffffffffffff001916746f485c8bf6fc43ea212e93bbf8ce046c7f1cb475001790556001610a52565b60006128617320e12a1f859b3feae5fb2a0a32c18f5a65555bbf6124fc565b11156128a457506002805474ffffffffffffffffffffffffffffffffffffffff0019167420e12a1f859b3feae5fb2a0a32c18f5a65555bbf001790556001610a52565b60006128c37351efaf4c8b3c9afbd5ab9f4bbc82784ab6ef8faa6124fc565b111561290657506002805474ffffffffffffffffffffffffffffffffffffffff0019167451efaf4c8b3c9afbd5ab9f4bbc82784ab6ef8faa001790556001610a52565b50600090565b805161291f906004906020840190612923565b5050565b828054600181600116156101000203166002900490600052602060002090601f016020900481019282601f1061296457805160ff1916838001178555612991565b82800160010185558215612991579182015b82811115612991578251825591602001919060010190612976565b506114e492610a529250905b808211156114e4576000815560010161299d5600a165627a7a72305820726615cb0da469a05b880a7476e6ac2f1bef13d403c6520696caca52baf356b70029",
  "source": "pragma solidity ^0.4.24;\n\nimport '../openzeppelin-solidity/contracts/ownership/Ownable.sol';\nimport '../openzeppelin-solidity/contracts/lifecycle/Pausable.sol';\nimport '../openzeppelin-solidity/contracts/math/SafeMath.sol';\n\nimport \"../ethereum-api/oraclizeAPI_0.4.25.sol\";\n\ninterface Token {\n  function totalSupply() external view returns (uint256);\n\n  function balanceOf(address owner) external view returns (uint256);\n\n  function name() external view returns(string);\n\n  function symbol() external view returns(string);\n\n  function decimals() external view returns(uint8);\n\n  function allowance(address owner, address spender) external view returns (uint256);\n\n  function transfer(address to, uint256 value) external returns (bool);\n\n  function approve(address spender, uint256 value) external returns (bool);\n}\n\ncontract ERC20TokenShop is Ownable, Pausable, usingOraclize {\n  using SafeMath for uint256;\n\n  Token tokenContract;\n\n  uint256 public customGasLimit;\n  uint256 public exchangeRate;\n  uint256 public USDTETH;\n  uint256 public oracleTax;\n\n  string public queryURL;\n  string public oraclizePriceType;\n\n  event LogBuyToken(address eSender, uint256 eValue, uint256 eTokenAmount);\n  event LogSetExchangeRate(address eSender, uint256 eRate, uint256 eExchangeRate);\n  event LogSetETHXRateOverride(address eSender, uint256 eETHXRate);\n  event LogSetOracleTaxOverride(address eSender, uint256 eOracleTax);\n  event LogSetQueryURL(address eSender, string eQueryURL);\n  event LogSetOraclizePriceType(address eSender, string eOraclizePriceType);\n  event LogSetGasLimit(address eSender, uint256 eGasLimit);\n  event LogApproveBurn(address eRecipient, address eSender, uint256 eAmount);\n  event LogDeposit(address eSender, uint256 eValue);\n  event LogWithdraw(address eSender, uint256 eValue);\n  event LogSetETHXUpdated(address eSender, string eETHXRate);\n  event LogNewOraclizeQuery(string eOracleResponse);\n\n  //Default exchange rate is $1/Token\n  constructor(address _instance) public {\n    tokenContract = Token(_instance);\n    USDTETH = 200;\n    exchangeRate = 1000000000000000000;\n    customGasLimit = 100000;\n    oraclizePriceType = \"URL\";\n    queryURL = \"json(https://api.gdax.com/products/ETH-USD/ticker).price\";\n  }\n\n  //Token functions\n  function getTokenSupply()\n    public\n    view\n    returns (uint256)\n  {\n    return tokenContract.totalSupply();\n  }\n\n  function getTokenBalance(address _account)\n    public\n    view\n    returns (uint256)\n  {\n    return tokenContract.balanceOf(_account);\n  }\n\n  function getTokenName()\n    public\n    view\n    returns (string)\n  {\n    return tokenContract.name();\n  }\n\n  function getTokenSymbol()\n    public\n    view\n    returns (string)\n  {\n    return tokenContract.symbol();\n  }\n\n  function getTokenDecimals()\n    public\n    view\n    returns (uint8)\n  {\n    return tokenContract.decimals();\n  }\n\n  //User functions\n  function buyToken()\n    whenNotPaused\n    public\n    payable\n    returns (bool)\n  {\n    require(msg.value > 0);\n    require(tokenContract.balanceOf(address(this)) > 0);\n    //check not asking for more than stock\n    require(tokenContract.balanceOf(address(this)) >= msg.value.sub(oracleTax));\n    //set Oracle Tax\n    oracleTax = oraclize_getPrice(oraclizePriceType, customGasLimit); //URL\n    //check value is at least 1 cross rate token bit unit per wei\n    require(msg.value >= exchangeRate.mul(USDTETH).div(10**18).add(oracleTax));\n    //get updated ETH USD cross rate\n    updatePrice();\n    //wei to token bit conversion via dollars\n    //$ per ETH * ETH per wei * (1 / $ per tokenbit) = tokenbit per wei\n    uint256 _amount;\n    _amount = msg.value.sub(oracleTax).mul(exchangeRate).mul(USDTETH).div(10**(18));\n    emit LogBuyToken(msg.sender, msg.value, _amount);\n    tokenContract.transfer(msg.sender, _amount);\n    return true;\n  }\n\n  //Oraclize implementation\n  function __callback(bytes32 myid, string result) {\n    require(msg.sender == oraclize_cbAddress());\n    USDTETH = parseInt(result, 0);\n    emit LogSetETHXUpdated(msg.sender, result);\n  }\n\n  //oraclize_query(\"URL\", \"json(https://api.gdax.com/products/ETH-USD/ticker).price\")\n  function updatePrice()\n    whenNotPaused\n    public\n    payable\n  {\n      emit LogNewOraclizeQuery(\"Oraclize query was sent, standing by for the answer...\");\n      oraclize_query(oraclizePriceType, queryURL, customGasLimit);\n  }\n\n  //Shop functions\n  function getShopStock()\n    public\n    view\n    returns (uint256)\n  {\n    return tokenContract.balanceOf(address(this));\n  }\n\n  function getOracleTax()\n    public\n    view\n    returns (uint256)\n  {\n    return oracleTax;\n  }\n\n  //Exchange rate in Dollars (i.e. Tokens per dollar)\n  function setExchangeRate(uint256 _dollars_per_token)\n    onlyOwner\n    whenNotPaused\n    public\n    returns (bool)\n  {\n    uint256 _decimals = getTokenDecimals();\n    _decimals = 10**(_decimals);\n    exchangeRate = _decimals.div(_dollars_per_token);\n    emit LogSetExchangeRate(msg.sender, _dollars_per_token, exchangeRate);\n    return true;\n  }\n\n  function setETHXRateOverride(uint256 _dollars_per_eth)\n    onlyOwner\n    whenNotPaused\n    public\n    returns (bool)\n  {\n    USDTETH = _dollars_per_eth;\n    emit LogSetETHXRateOverride(msg.sender, _dollars_per_eth);\n    return true;\n  }\n\n  function setOracleTaxOverride(uint256 _oracleTax)\n    onlyOwner\n    whenNotPaused\n    public\n    returns (bool)\n  {\n      oracleTax = _oracleTax;\n      emit LogSetOracleTaxOverride(msg.sender, _oracleTax);\n      return true;\n  }\n\n  function setQueryURL(string _url)\n    onlyOwner\n    whenNotPaused\n    public\n    returns (bool)\n  {\n    queryURL = _url;\n    emit LogSetQueryURL(msg.sender, _url);\n    return true;\n  }\n\n  function setOraclizePriceType(string _type)\n    onlyOwner\n    whenNotPaused\n    public\n    returns (bool)\n  {\n    oraclizePriceType = _type;\n    emit LogSetOraclizePriceType(msg.sender, _type);\n    return true;\n  }\n\n  function setGasLimit(uint256 _newGasLimit)\n    onlyOwner\n    whenNotPaused\n    public\n    returns (bool)\n  {\n    customGasLimit = _newGasLimit;\n    emit LogSetGasLimit(msg.sender, _newGasLimit);\n    return true;\n  }\n\n  function approveBurn(address _recipient, uint256 _amount)\n    onlyOwner\n    whenNotPaused\n    public\n    returns (bool)\n {\n    emit LogApproveBurn(_recipient, msg.sender, _amount);\n    tokenContract.approve(_recipient, _amount);\n    return true;\n }\n\n  function deposit()\n    onlyOwner\n    whenNotPaused\n    payable\n    public\n    returns (bool)\n  {\n    emit LogDeposit(msg.sender, msg.value);\n    return true;\n  }\n\n  function withdraw(uint256 _amount)\n    onlyOwner\n    whenNotPaused\n    public\n    returns (bool)\n  {\n    require(address(this).balance >= _amount);\n    address _owner;\n    _owner = owner();\n    emit LogWithdraw(msg.sender, _amount);\n    _owner.transfer(_amount);\n    return true;\n  }\n\n  function kill()\n    onlyOwner\n    public\n  {\n    selfdestruct(owner());\n  }\n\n\n}\n",
  "sourcePath": "/Users/talgya/DAPPS/tokenShopApp/contracts/ERC20TokenShop.sol",
  "compiler": {
    "name": "solc",
    "version": "0.4.26+commit.4563c3fc.Emscripten.clang"
  },
  "schemaVersion": "2.0.3",
  "updatedAt": "2019-10-30T20:03:27.370Z"
}