{
  "contractName": "ERC20Mintable",
  "abi": [
    {
      "constant": false,
      "inputs": [
        {
          "name": "spender",
          "type": "address"
        },
        {
          "name": "value",
          "type": "uint256"
        }
      ],
      "name": "approve",
      "outputs": [
        {
          "name": "",
          "type": "bool"
        }
      ],
      "payable": false,
      "stateMutability": "nonpayable",
      "type": "function"
    },
    {
      "constant": true,
      "inputs": [],
      "name": "totalSupply",
      "outputs": [
        {
          "name": "",
          "type": "uint256"
        }
      ],
      "payable": false,
      "stateMutability": "view",
      "type": "function"
    },
    {
      "constant": false,
      "inputs": [
        {
          "name": "from",
          "type": "address"
        },
        {
          "name": "to",
          "type": "address"
        },
        {
          "name": "value",
          "type": "uint256"
        }
      ],
      "name": "transferFrom",
      "outputs": [
        {
          "name": "",
          "type": "bool"
        }
      ],
      "payable": false,
      "stateMutability": "nonpayable",
      "type": "function"
    },
    {
      "constant": false,
      "inputs": [
        {
          "name": "spender",
          "type": "address"
        },
        {
          "name": "addedValue",
          "type": "uint256"
        }
      ],
      "name": "increaseAllowance",
      "outputs": [
        {
          "name": "",
          "type": "bool"
        }
      ],
      "payable": false,
      "stateMutability": "nonpayable",
      "type": "function"
    },
    {
      "constant": true,
      "inputs": [
        {
          "name": "owner",
          "type": "address"
        }
      ],
      "name": "balanceOf",
      "outputs": [
        {
          "name": "",
          "type": "uint256"
        }
      ],
      "payable": false,
      "stateMutability": "view",
      "type": "function"
    },
    {
      "constant": false,
      "inputs": [
        {
          "name": "account",
          "type": "address"
        }
      ],
      "name": "addMinter",
      "outputs": [],
      "payable": false,
      "stateMutability": "nonpayable",
      "type": "function"
    },
    {
      "constant": false,
      "inputs": [],
      "name": "renounceMinter",
      "outputs": [],
      "payable": false,
      "stateMutability": "nonpayable",
      "type": "function"
    },
    {
      "constant": false,
      "inputs": [
        {
          "name": "spender",
          "type": "address"
        },
        {
          "name": "subtractedValue",
          "type": "uint256"
        }
      ],
      "name": "decreaseAllowance",
      "outputs": [
        {
          "name": "",
          "type": "bool"
        }
      ],
      "payable": false,
      "stateMutability": "nonpayable",
      "type": "function"
    },
    {
      "constant": false,
      "inputs": [
        {
          "name": "to",
          "type": "address"
        },
        {
          "name": "value",
          "type": "uint256"
        }
      ],
      "name": "transfer",
      "outputs": [
        {
          "name": "",
          "type": "bool"
        }
      ],
      "payable": false,
      "stateMutability": "nonpayable",
      "type": "function"
    },
    {
      "constant": true,
      "inputs": [
        {
          "name": "account",
          "type": "address"
        }
      ],
      "name": "isMinter",
      "outputs": [
        {
          "name": "",
          "type": "bool"
        }
      ],
      "payable": false,
      "stateMutability": "view",
      "type": "function"
    },
    {
      "constant": true,
      "inputs": [
        {
          "name": "owner",
          "type": "address"
        },
        {
          "name": "spender",
          "type": "address"
        }
      ],
      "name": "allowance",
      "outputs": [
        {
          "name": "",
          "type": "uint256"
        }
      ],
      "payable": false,
      "stateMutability": "view",
      "type": "function"
    },
    {
      "anonymous": false,
      "inputs": [],
      "name": "MintingFinished",
      "type": "event"
    },
    {
      "anonymous": false,
      "inputs": [
        {
          "indexed": true,
          "name": "account",
          "type": "address"
        }
      ],
      "name": "MinterAdded",
      "type": "event"
    },
    {
      "anonymous": false,
      "inputs": [
        {
          "indexed": true,
          "name": "account",
          "type": "address"
        }
      ],
      "name": "MinterRemoved",
      "type": "event"
    },
    {
      "anonymous": false,
      "inputs": [
        {
          "indexed": true,
          "name": "from",
          "type": "address"
        },
        {
          "indexed": true,
          "name": "to",
          "type": "address"
        },
        {
          "indexed": false,
          "name": "value",
          "type": "uint256"
        }
      ],
      "name": "Transfer",
      "type": "event"
    },
    {
      "anonymous": false,
      "inputs": [
        {
          "indexed": true,
          "name": "owner",
          "type": "address"
        },
        {
          "indexed": true,
          "name": "spender",
          "type": "address"
        },
        {
          "indexed": false,
          "name": "value",
          "type": "uint256"
        }
      ],
      "name": "Approval",
      "type": "event"
    },
    {
      "constant": true,
      "inputs": [],
      "name": "mintingFinished",
      "outputs": [
        {
          "name": "",
          "type": "bool"
        }
      ],
      "payable": false,
      "stateMutability": "view",
      "type": "function"
    },
    {
      "constant": false,
      "inputs": [
        {
          "name": "to",
          "type": "address"
        },
        {
          "name": "amount",
          "type": "uint256"
        }
      ],
      "name": "mint",
      "outputs": [
        {
          "name": "",
          "type": "bool"
        }
      ],
      "payable": false,
      "stateMutability": "nonpayable",
      "type": "function"
    },
    {
      "constant": false,
      "inputs": [],
      "name": "finishMinting",
      "outputs": [
        {
          "name": "",
          "type": "bool"
        }
      ],
      "payable": false,
      "stateMutability": "nonpayable",
      "type": "function"
    }
  ],
  "bytecode": "0x60806040526004805460ff191690556100266003336401000000006108d761002b82021704565b610065565b600160a060020a038116151561004057600080fd5b600160a060020a0316600090815260209190915260409020805460ff19166001179055565b6109ab806100746000396000f3006080604052600436106100cf5763ffffffff7c010000000000000000000000000000000000000000000000000000000060003504166305d2035b81146100d4578063095ea7b3146100fd57806318160ddd1461012157806323b872dd14610148578063395093511461017257806340c10f191461019657806370a08231146101ba5780637d64bcb4146101db578063983b2d56146101f05780639865027514610213578063a457c2d714610228578063a9059cbb1461024c578063aa271e1a14610270578063dd62ed3e14610291575b600080fd5b3480156100e057600080fd5b506100e96102b8565b604080519115158252519081900360200190f35b34801561010957600080fd5b506100e9600160a060020a03600435166024356102c1565b34801561012d57600080fd5b5061013661033f565b60408051918252519081900360200190f35b34801561015457600080fd5b506100e9600160a060020a0360043581169060243516604435610345565b34801561017e57600080fd5b506100e9600160a060020a03600435166024356104ba565b3480156101a257600080fd5b506100e9600160a060020a036004351660243561056a565b3480156101c657600080fd5b50610136600160a060020a03600435166105a3565b3480156101e757600080fd5b506100e96105be565b3480156101fc57600080fd5b50610211600160a060020a0360043516610620565b005b34801561021f57600080fd5b5061021161067c565b34801561023457600080fd5b506100e9600160a060020a036004351660243561068f565b34801561025857600080fd5b506100e9600160a060020a03600435166024356106da565b34801561027c57600080fd5b506100e9600160a060020a03600435166107b9565b34801561029d57600080fd5b50610136600160a060020a03600435811690602435166107d2565b60045460ff1690565b6000600160a060020a03831615156102d857600080fd5b336000818152600160209081526040808320600160a060020a03881680855290835292819020869055805186815290519293927f8c5be1e5ebec7d5bd14f71427d1e84f3dd0314c0f7b2291e5b200ac8c7c3b925929181900390910190a350600192915050565b60025490565b600160a060020a03831660009081526020819052604081205482111561036a57600080fd5b600160a060020a038416600090815260016020908152604080832033845290915290205482111561039a57600080fd5b600160a060020a03831615156103af57600080fd5b600160a060020a0384166000908152602081905260409020546103d8908363ffffffff6107fd16565b600160a060020a03808616600090815260208190526040808220939093559085168152205461040d908363ffffffff61081416565b600160a060020a0380851660009081526020818152604080832094909455918716815260018252828120338252909152205461044f908363ffffffff6107fd16565b600160a060020a03808616600081815260016020908152604080832033845282529182902094909455805186815290519287169391927fddf252ad1be2c89b69c2b068fc378daa952ba7f163c4a11628f55a4df523b3ef929181900390910190a35060019392505050565b6000600160a060020a03831615156104d157600080fd5b336000908152600160209081526040808320600160a060020a0387168452909152902054610505908363ffffffff61081416565b336000818152600160209081526040808320600160a060020a0389168085529083529281902085905580519485525191937f8c5be1e5ebec7d5bd14f71427d1e84f3dd0314c0f7b2291e5b200ac8c7c3b925929081900390910190a350600192915050565b6000610575336107b9565b151561058057600080fd5b60045460ff161561059057600080fd5b61059a838361082d565b50600192915050565b600160a060020a031660009081526020819052604090205490565b60006105c9336107b9565b15156105d457600080fd5b60045460ff16156105e457600080fd5b6004805460ff191660011790556040517fb828d9b5c78095deeeeff2eca2e5d4fe046ce3feb4c99702624a3fd384ad2dbc90600090a150600190565b610629336107b9565b151561063457600080fd5b61064560038263ffffffff6108d716565b604051600160a060020a038216907f6ae172837ea30b801fbfcdd4108aa1d5bf8ff775444fd70256b44e6bf3dfc3f690600090a250565b61068d60033363ffffffff61091116565b565b6000600160a060020a03831615156106a657600080fd5b336000908152600160209081526040808320600160a060020a0387168452909152902054610505908363ffffffff6107fd16565b336000908152602081905260408120548211156106f657600080fd5b600160a060020a038316151561070b57600080fd5b3360009081526020819052604090205461072b908363ffffffff6107fd16565b3360009081526020819052604080822092909255600160a060020a0385168152205461075d908363ffffffff61081416565b600160a060020a038416600081815260208181526040918290209390935580518581529051919233927fddf252ad1be2c89b69c2b068fc378daa952ba7f163c4a11628f55a4df523b3ef9281900390910190a350600192915050565b60006107cc60038363ffffffff61094816565b92915050565b600160a060020a03918216600090815260016020908152604080832093909416825291909152205490565b6000808383111561080d57600080fd5b5050900390565b60008282018381101561082657600080fd5b9392505050565b600160a060020a038216151561084257600080fd5b600254610855908263ffffffff61081416565b600255600160a060020a038216600090815260208190526040902054610881908263ffffffff61081416565b600160a060020a0383166000818152602081815260408083209490945583518581529351929391927fddf252ad1be2c89b69c2b068fc378daa952ba7f163c4a11628f55a4df523b3ef9281900390910190a35050565b600160a060020a03811615156108ec57600080fd5b600160a060020a0316600090815260209190915260409020805460ff19166001179055565b600160a060020a038116151561092657600080fd5b600160a060020a0316600090815260209190915260409020805460ff19169055565b6000600160a060020a038216151561095f57600080fd5b50600160a060020a03166000908152602091909152604090205460ff16905600a165627a7a723058208fa5fa0e13413d9c9d986e5ae823ac68196f77e41acbcb46be2ed07753fd08250029",
  "source": "pragma solidity ^0.4.24;\n\nimport \"./ERC20.sol\";\nimport \"../../access/roles/MinterRole.sol\";\n\n\n/**\n * @title ERC20Mintable\n * @dev ERC20 minting logic\n */\ncontract ERC20Mintable is ERC20, MinterRole {\n  event MintingFinished();\n\n  bool private _mintingFinished = false;\n\n  modifier onlyBeforeMintingFinished() {\n    require(!_mintingFinished);\n    _;\n  }\n\n  /**\n   * @return true if the minting is finished.\n   */\n  function mintingFinished() public view returns(bool) {\n    return _mintingFinished;\n  }\n\n  /**\n   * @dev Function to mint tokens\n   * @param to The address that will receive the minted tokens.\n   * @param amount The amount of tokens to mint.\n   * @return A boolean that indicates if the operation was successful.\n   */\n  function mint(\n    address to,\n    uint256 amount\n  )\n    public\n    onlyMinter\n    onlyBeforeMintingFinished\n    returns (bool)\n  {\n    _mint(to, amount);\n    return true;\n  }\n\n  /**\n   * @dev Function to stop minting new tokens.\n   * @return True if the operation was successful.\n   */\n  function finishMinting()\n    public\n    onlyMinter\n    onlyBeforeMintingFinished\n    returns (bool)\n  {\n    _mintingFinished = true;\n    emit MintingFinished();\n    return true;\n  }\n}\n",
  "sourcePath": "openzeppelin-solidity/contracts/token/ERC20/ERC20Mintable.sol",
  "compiler": {
    "name": "solc",
    "version": "0.4.24+commit.e67f0147.Emscripten.clang"
  },
  "schemaVersion": "2.0.1",
  "updatedAt": "2018-09-13T16:02:37.987Z"
}