{
  "contractName": "ERC20TokenShop",
  "abi": [
    {
      "constant": true,
      "inputs": [],
      "name": "exchangeRate",
      "outputs": [
        {
          "name": "",
          "type": "uint256"
        }
      ],
      "payable": false,
      "stateMutability": "view",
      "type": "function"
    },
    {
      "constant": false,
      "inputs": [],
      "name": "unpause",
      "outputs": [],
      "payable": false,
      "stateMutability": "nonpayable",
      "type": "function"
    },
    {
      "constant": true,
      "inputs": [
        {
          "name": "account",
          "type": "address"
        }
      ],
      "name": "isPauser",
      "outputs": [
        {
          "name": "",
          "type": "bool"
        }
      ],
      "payable": false,
      "stateMutability": "view",
      "type": "function"
    },
    {
      "constant": true,
      "inputs": [],
      "name": "paused",
      "outputs": [
        {
          "name": "",
          "type": "bool"
        }
      ],
      "payable": false,
      "stateMutability": "view",
      "type": "function"
    },
    {
      "constant": false,
      "inputs": [],
      "name": "renouncePauser",
      "outputs": [],
      "payable": false,
      "stateMutability": "nonpayable",
      "type": "function"
    },
    {
      "constant": false,
      "inputs": [],
      "name": "renounceOwnership",
      "outputs": [],
      "payable": false,
      "stateMutability": "nonpayable",
      "type": "function"
    },
    {
      "constant": false,
      "inputs": [
        {
          "name": "account",
          "type": "address"
        }
      ],
      "name": "addPauser",
      "outputs": [],
      "payable": false,
      "stateMutability": "nonpayable",
      "type": "function"
    },
    {
      "constant": false,
      "inputs": [],
      "name": "pause",
      "outputs": [],
      "payable": false,
      "stateMutability": "nonpayable",
      "type": "function"
    },
    {
      "constant": true,
      "inputs": [],
      "name": "owner",
      "outputs": [
        {
          "name": "",
          "type": "address"
        }
      ],
      "payable": false,
      "stateMutability": "view",
      "type": "function"
    },
    {
      "constant": true,
      "inputs": [],
      "name": "isOwner",
      "outputs": [
        {
          "name": "",
          "type": "bool"
        }
      ],
      "payable": false,
      "stateMutability": "view",
      "type": "function"
    },
    {
      "constant": true,
      "inputs": [],
      "name": "oracleTax",
      "outputs": [
        {
          "name": "",
          "type": "uint256"
        }
      ],
      "payable": false,
      "stateMutability": "view",
      "type": "function"
    },
    {
      "constant": true,
      "inputs": [],
      "name": "USDTETH",
      "outputs": [
        {
          "name": "",
          "type": "uint256"
        }
      ],
      "payable": false,
      "stateMutability": "view",
      "type": "function"
    },
    {
      "constant": false,
      "inputs": [
        {
          "name": "newOwner",
          "type": "address"
        }
      ],
      "name": "transferOwnership",
      "outputs": [],
      "payable": false,
      "stateMutability": "nonpayable",
      "type": "function"
    },
    {
      "inputs": [
        {
          "name": "_instance",
          "type": "address"
        }
      ],
      "payable": false,
      "stateMutability": "nonpayable",
      "type": "constructor"
    },
    {
      "anonymous": false,
      "inputs": [
        {
          "indexed": false,
          "name": "eSender",
          "type": "address"
        },
        {
          "indexed": false,
          "name": "eValue",
          "type": "uint256"
        },
        {
          "indexed": false,
          "name": "eTokenAmount",
          "type": "uint256"
        }
      ],
      "name": "LogBuyToken",
      "type": "event"
    },
    {
      "anonymous": false,
      "inputs": [
        {
          "indexed": false,
          "name": "eSender",
          "type": "address"
        },
        {
          "indexed": false,
          "name": "eRate",
          "type": "uint256"
        },
        {
          "indexed": false,
          "name": "eExchangeRate",
          "type": "uint256"
        }
      ],
      "name": "LogSetExchangeRate",
      "type": "event"
    },
    {
      "anonymous": false,
      "inputs": [
        {
          "indexed": false,
          "name": "eSender",
          "type": "address"
        },
        {
          "indexed": false,
          "name": "eETHXRate",
          "type": "uint256"
        }
      ],
      "name": "LogSetETHXRate",
      "type": "event"
    },
    {
      "anonymous": false,
      "inputs": [
        {
          "indexed": false,
          "name": "eSender",
          "type": "address"
        },
        {
          "indexed": false,
          "name": "eETHXRate",
          "type": "uint256"
        }
      ],
      "name": "LogSetETHXRateOverride",
      "type": "event"
    },
    {
      "anonymous": false,
      "inputs": [
        {
          "indexed": false,
          "name": "eSender",
          "type": "address"
        },
        {
          "indexed": false,
          "name": "eOracleTax",
          "type": "uint256"
        }
      ],
      "name": "LogSetOracleTaxOverride",
      "type": "event"
    },
    {
      "anonymous": false,
      "inputs": [
        {
          "indexed": false,
          "name": "eSender",
          "type": "address"
        },
        {
          "indexed": false,
          "name": "eValue",
          "type": "uint256"
        }
      ],
      "name": "LogDeposit",
      "type": "event"
    },
    {
      "anonymous": false,
      "inputs": [
        {
          "indexed": false,
          "name": "eSender",
          "type": "address"
        },
        {
          "indexed": false,
          "name": "eValue",
          "type": "uint256"
        }
      ],
      "name": "LogWithdraw",
      "type": "event"
    },
    {
      "anonymous": false,
      "inputs": [
        {
          "indexed": false,
          "name": "eSender",
          "type": "address"
        },
        {
          "indexed": false,
          "name": "eETHXRate",
          "type": "string"
        }
      ],
      "name": "LogSetETHXUpdated",
      "type": "event"
    },
    {
      "anonymous": false,
      "inputs": [
        {
          "indexed": false,
          "name": "eOracleResponse",
          "type": "string"
        }
      ],
      "name": "LogNewOraclizeQuery",
      "type": "event"
    },
    {
      "anonymous": false,
      "inputs": [],
      "name": "Paused",
      "type": "event"
    },
    {
      "anonymous": false,
      "inputs": [],
      "name": "Unpaused",
      "type": "event"
    },
    {
      "anonymous": false,
      "inputs": [
        {
          "indexed": true,
          "name": "account",
          "type": "address"
        }
      ],
      "name": "PauserAdded",
      "type": "event"
    },
    {
      "anonymous": false,
      "inputs": [
        {
          "indexed": true,
          "name": "account",
          "type": "address"
        }
      ],
      "name": "PauserRemoved",
      "type": "event"
    },
    {
      "anonymous": false,
      "inputs": [
        {
          "indexed": true,
          "name": "previousOwner",
          "type": "address"
        }
      ],
      "name": "OwnershipRenounced",
      "type": "event"
    },
    {
      "anonymous": false,
      "inputs": [
        {
          "indexed": true,
          "name": "previousOwner",
          "type": "address"
        },
        {
          "indexed": true,
          "name": "newOwner",
          "type": "address"
        }
      ],
      "name": "OwnershipTransferred",
      "type": "event"
    },
    {
      "constant": true,
      "inputs": [],
      "name": "getTokenSupply",
      "outputs": [
        {
          "name": "",
          "type": "uint256"
        }
      ],
      "payable": false,
      "stateMutability": "view",
      "type": "function"
    },
    {
      "constant": true,
      "inputs": [
        {
          "name": "_account",
          "type": "address"
        }
      ],
      "name": "getTokenBalance",
      "outputs": [
        {
          "name": "",
          "type": "uint256"
        }
      ],
      "payable": false,
      "stateMutability": "view",
      "type": "function"
    },
    {
      "constant": true,
      "inputs": [],
      "name": "getTokenName",
      "outputs": [
        {
          "name": "",
          "type": "string"
        }
      ],
      "payable": false,
      "stateMutability": "view",
      "type": "function"
    },
    {
      "constant": true,
      "inputs": [],
      "name": "getTokenSymbol",
      "outputs": [
        {
          "name": "",
          "type": "string"
        }
      ],
      "payable": false,
      "stateMutability": "view",
      "type": "function"
    },
    {
      "constant": true,
      "inputs": [],
      "name": "getTokenDecimals",
      "outputs": [
        {
          "name": "",
          "type": "uint8"
        }
      ],
      "payable": false,
      "stateMutability": "view",
      "type": "function"
    },
    {
      "constant": false,
      "inputs": [],
      "name": "buyToken",
      "outputs": [
        {
          "name": "",
          "type": "bool"
        }
      ],
      "payable": true,
      "stateMutability": "payable",
      "type": "function"
    },
    {
      "constant": false,
      "inputs": [
        {
          "name": "myid",
          "type": "bytes32"
        },
        {
          "name": "result",
          "type": "string"
        },
        {
          "name": "proof",
          "type": "bytes"
        }
      ],
      "name": "__callback",
      "outputs": [],
      "payable": false,
      "stateMutability": "nonpayable",
      "type": "function"
    },
    {
      "constant": false,
      "inputs": [
        {
          "name": "myid",
          "type": "bytes32"
        },
        {
          "name": "result",
          "type": "string"
        }
      ],
      "name": "__callback",
      "outputs": [],
      "payable": false,
      "stateMutability": "nonpayable",
      "type": "function"
    },
    {
      "constant": false,
      "inputs": [],
      "name": "updatePrice",
      "outputs": [],
      "payable": true,
      "stateMutability": "payable",
      "type": "function"
    },
    {
      "constant": true,
      "inputs": [],
      "name": "getShopStock",
      "outputs": [
        {
          "name": "",
          "type": "uint256"
        }
      ],
      "payable": false,
      "stateMutability": "view",
      "type": "function"
    },
    {
      "constant": true,
      "inputs": [],
      "name": "getOracleTax",
      "outputs": [
        {
          "name": "",
          "type": "uint256"
        }
      ],
      "payable": false,
      "stateMutability": "view",
      "type": "function"
    },
    {
      "constant": false,
      "inputs": [
        {
          "name": "_dollars_per_token",
          "type": "uint256"
        }
      ],
      "name": "setExchangeRate",
      "outputs": [
        {
          "name": "",
          "type": "bool"
        }
      ],
      "payable": false,
      "stateMutability": "nonpayable",
      "type": "function"
    },
    {
      "constant": false,
      "inputs": [
        {
          "name": "_dollars_per_eth",
          "type": "uint256"
        }
      ],
      "name": "setETHXRateOverride",
      "outputs": [
        {
          "name": "",
          "type": "bool"
        }
      ],
      "payable": false,
      "stateMutability": "nonpayable",
      "type": "function"
    },
    {
      "constant": false,
      "inputs": [
        {
          "name": "_oracleTax",
          "type": "uint256"
        }
      ],
      "name": "setOracleTaxOverride",
      "outputs": [
        {
          "name": "",
          "type": "bool"
        }
      ],
      "payable": false,
      "stateMutability": "nonpayable",
      "type": "function"
    },
    {
      "constant": false,
      "inputs": [],
      "name": "deposit",
      "outputs": [
        {
          "name": "",
          "type": "bool"
        }
      ],
      "payable": true,
      "stateMutability": "payable",
      "type": "function"
    },
    {
      "constant": false,
      "inputs": [
        {
          "name": "_amount",
          "type": "uint256"
        }
      ],
      "name": "withdraw",
      "outputs": [
        {
          "name": "",
          "type": "bool"
        }
      ],
      "payable": false,
      "stateMutability": "nonpayable",
      "type": "function"
    },
    {
      "constant": false,
      "inputs": [],
      "name": "kill",
      "outputs": [],
      "payable": false,
      "stateMutability": "nonpayable",
      "type": "function"
    }
  ],
  "bytecode": "0x60806040526002805460ff191690553480156200001b57600080fd5b506040516020806200244b833981016040525160008054600160a060020a03191633908117909155620000579064010000000062000089810204565b60078054600160a060020a031916600160a060020a0392909216919091179055670de0b6b3a764000060085562000116565b620000a460018264010000000062001e89620000db82021704565b604051600160a060020a038216907f6719d08c1888103bea251a4ed56406bd0c3e69723c8a1686e017e7bbe159b6f890600090a250565b600160a060020a0381161515620000f157600080fd5b600160a060020a0316600090815260209190915260409020805460ff19166001179055565b61232580620001266000396000f3006080604052600436106101665763ffffffff60e060020a60003504166324f65ee7811461016b57806327dc297e146101965780632e1a7d4d146101f65780633516e93a1461022257806338bbfa50146102495780633aecd0e3146102e55780633ba0b9a9146103065780633f4ba83a1461031b57806341c0e1b51461033057806346fbf68e146103455780635c975abb1461036657806360c07e741461037b578063673a7e28146103905780636ef8d66d14610398578063715018a6146103ad57806382dc1ec4146103c25780638456cb59146103e3578063862b092b146103f85780638da5cb5b146104825780638f32d59b146104b357806393398487146104c8578063a4821719146104dd578063ad974f4c146104e5578063d0e30db0146104fa578063d87ac33914610502578063db068e0e1461051a578063e0eb576d14610532578063e1d689c714610547578063f1850af81461055f578063f2fde38b14610574575b600080fd5b34801561017757600080fd5b50610180610595565b6040805160ff9092168252519081900360200190f35b3480156101a257600080fd5b5060408051602060046024803582810135601f81018590048502860185019096528585526101f49583359536956044949193909101919081908401838280828437509497506106269650505050505050565b005b34801561020257600080fd5b5061020e60043561070a565b604080519115158252519081900360200190f35b34801561022e57600080fd5b506102376107c4565b60408051918252519081900360200190f35b34801561025557600080fd5b5060408051602060046024803582810135601f81018590048502860185019096528585526101f495833595369560449491939091019190819084018382808284375050604080516020601f89358b018035918201839004830284018301909452808352979a9998810197919650918201945092508291508401838280828437509497506107ca9650505050505050565b3480156102f157600080fd5b50610237600160a060020a03600435166107cf565b34801561031257600080fd5b5061023761086c565b34801561032757600080fd5b506101f4610872565b34801561033c57600080fd5b506101f46108cc565b34801561035157600080fd5b5061020e600160a060020a03600435166108f2565b34801561037257600080fd5b5061020e61090b565b34801561038757600080fd5b50610237610914565b6101f4610979565b3480156103a457600080fd5b506101f4610aad565b3480156103b957600080fd5b506101f4610ab8565b3480156103ce57600080fd5b506101f4600160a060020a0360043516610b20565b3480156103ef57600080fd5b506101f4610b3d565b34801561040457600080fd5b5061040d610b99565b6040805160208082528351818301528351919283929083019185019080838360005b8381101561044757818101518382015260200161042f565b50505050905090810190601f1680156104745780820380516001836020036101000a031916815260200191505b509250505060405180910390f35b34801561048e57600080fd5b50610497610c85565b60408051600160a060020a039092168252519081900360200190f35b3480156104bf57600080fd5b5061020e610c94565b3480156104d457600080fd5b50610237610ca5565b61020e610cab565b3480156104f157600080fd5b50610237610fc7565b61020e611026565b34801561050e57600080fd5b5061020e60043561108b565b34801561052657600080fd5b5061020e6004356110c1565b34801561053e57600080fd5b506102376110ef565b34801561055357600080fd5b5061020e6004356110f5565b34801561056b57600080fd5b5061040d611123565b34801561058057600080fd5b506101f4600160a060020a0360043516611182565b600754604080517f313ce5670000000000000000000000000000000000000000000000000000000081529051600092600160a060020a03169163313ce56791600480830192602092919082900301818787803b1580156105f457600080fd5b505af1158015610608573d6000803e3d6000fd5b505050506040513d602081101561061e57600080fd5b505190505b90565b61062e61119e565b600160a060020a0316331461064257600080fd5b61064d816000611379565b6009819055507f7cbfdd3eda751b1e5cdb1786e5bdc616ef015671f13eb23ae7e48bd03233da7e33826040518083600160a060020a0316600160a060020a0316815260200180602001828103825283818151815260200191508051906020019080838360005b838110156106cb5781810151838201526020016106b3565b50505050905090810190601f1680156106f85780820380516001836020036101000a031916815260200191505b50935050505060405180910390a15050565b600080610715610c94565b151561072057600080fd5b60025460ff161561073057600080fd5b303183111561073e57600080fd5b610746610c85565b604080513381526020810186905281519293507f4ce7033d118120e254016dccf195288400b28fc8936425acd5f17ce2df3ab708929081900390910190a1604051600160a060020a0382169084156108fc029085906000818181858888f193505050501580156107ba573d6000803e3d6000fd5b5060019392505050565b600a5490565b505050565b600754604080517f70a08231000000000000000000000000000000000000000000000000000000008152600160a060020a038481166004830152915160009392909216916370a082319160248082019260209290919082900301818787803b15801561083a57600080fd5b505af115801561084e573d6000803e3d6000fd5b505050506040513d602081101561086457600080fd5b505192915050565b60085481565b61087b336108f2565b151561088657600080fd5b60025460ff16151561089757600080fd5b6002805460ff191690556040517fa45f47fdea8a1efdd9029a5691c7f759c32b7c698632b563573e155625d1693390600090a1565b6108d4610c94565b15156108df57600080fd5b6108e7610c85565b600160a060020a0316ff5b600061090560018363ffffffff61153316565b92915050565b60025460ff1690565b600754604080517f70a082310000000000000000000000000000000000000000000000000000000081523060048201529051600092600160a060020a0316916370a0823191602480830192602092919082900301818787803b1580156105f457600080fd5b60025460ff161561098957600080fd5b6040805160208082526036908201527f4f7261636c697a65207175657279207761732073656e742c207374616e64696e818301527f6720627920666f722074686520616e737765722e2e2e00000000000000000000606082015290517f621c2856e3b87f81235f8ac8a22bbb40a0142961960710d00b2b6c380902b57e9181900360800190a1610aaa6040805190810160405280600381526020017f55524c0000000000000000000000000000000000000000000000000000000000815250606060405190810160405280603881526020017f6a736f6e2868747470733a2f2f6170692e676461782e636f6d2f70726f64756381526020017f74732f4554482d5553442f7469636b6572292e7072696365000000000000000081525061156a565b50565b610ab633611978565b565b610ac0610c94565b1515610acb57600080fd5b60008054604051600160a060020a03909116917ff8df31144d9c2f0f6b59d69b8b98abd5459d07f2742c4df920b25aae33c6482091a26000805473ffffffffffffffffffffffffffffffffffffffff19169055565b610b29336108f2565b1515610b3457600080fd5b610aaa816119c0565b610b46336108f2565b1515610b5157600080fd5b60025460ff1615610b6157600080fd5b6002805460ff191660011790556040517f9e87fac88ff661f02d44f95383c817fece4bce600a3dab7a54406878b965e75290600090a1565b600754604080517f06fdde030000000000000000000000000000000000000000000000000000000081529051606092600160a060020a0316916306fdde0391600480830192600092919082900301818387803b158015610bf857600080fd5b505af1158015610c0c573d6000803e3d6000fd5b505050506040513d6000823e601f3d908101601f191682016040526020811015610c3557600080fd5b810190808051640100000000811115610c4d57600080fd5b82016020810184811115610c6057600080fd5b8151640100000000811182820187101715610c7a57600080fd5b509094505050505090565b600054600160a060020a031690565b600054600160a060020a0316331490565b600a5481565b600254600090819060ff1615610cc057600080fd5b60003411610ccd57600080fd5b600754604080517f70a082310000000000000000000000000000000000000000000000000000000081523060048201529051600092600160a060020a0316916370a0823191602480830192602092919082900301818787803b158015610d3257600080fd5b505af1158015610d46573d6000803e3d6000fd5b505050506040513d6020811015610d5c57600080fd5b505111610d6857600080fd5b600754604080517f70a0823100000000000000000000000000000000000000000000000000000000815230600482015290513492600160a060020a0316916370a082319160248083019260209291908290030181600087803b158015610dcd57600080fd5b505af1158015610de1573d6000803e3d6000fd5b505050506040513d6020811015610df757600080fd5b50511015610e0457600080fd5b610e426040805190810160405280600381526020017f55524c0000000000000000000000000000000000000000000000000000000000815250611a08565b600a81905550610e89600a54610e7d670de0b6b3a7640000610e71600954600854611c5590919063ffffffff16565b9063ffffffff611c8a16565b9063ffffffff611cad16565b341015610e9557600080fd5b610e9d610979565b610ee2600a54610ed6670de0b6b3a7640000610e71600954610eca60085434611c5590919063ffffffff16565b9063ffffffff611c5516565b9063ffffffff611cbf16565b6040805133815234602082015280820183905290519192507f3bb720dcc9b5b2218b19a41ca92774fd6a9308760642254fcdb9c7ccc7a42e7e919081900360600190a1600754604080517fa9059cbb000000000000000000000000000000000000000000000000000000008152336004820152602481018490529051600160a060020a039092169163a9059cbb916044808201926020929091908290030181600087803b158015610f9257600080fd5b505af1158015610fa6573d6000803e3d6000fd5b505050506040513d6020811015610fbc57600080fd5b5060019250505b5090565b600754604080517f18160ddd0000000000000000000000000000000000000000000000000000000081529051600092600160a060020a0316916318160ddd91600480830192602092919082900301818787803b1580156105f457600080fd5b6000611030610c94565b151561103b57600080fd5b60025460ff161561104b57600080fd5b6040805133815234602082015281517f1b851e1031ef35a238e6c67d0c7991162390df915f70eaf9098dbf0b175a6198929181900390910190a150600190565b6000611095610c94565b15156110a057600080fd5b60025460ff16156110b057600080fd5b6110b982611cd6565b506001919050565b60006110cb610c94565b15156110d657600080fd5b60025460ff16156110e657600080fd5b6110b982611d19565b60095481565b60006110ff610c94565b151561110a57600080fd5b60025460ff161561111a57600080fd5b6110b982611d84565b600754604080517f95d89b410000000000000000000000000000000000000000000000000000000081529051606092600160a060020a0316916395d89b4191600480830192600092919082900301818387803b158015610bf857600080fd5b61118a610c94565b151561119557600080fd5b610aaa81611dc7565b6002546000906101009004600160a060020a031615806111d557506002546111d3906101009004600160a060020a0316611e44565b155b156111e6576111e46000611e48565b505b600260019054906101000a9004600160a060020a0316600160a060020a03166338cc48316040518163ffffffff1660e060020a028152600401602060405180830381600087803b15801561123957600080fd5b505af115801561124d573d6000803e3d6000fd5b505050506040513d602081101561126357600080fd5b5051600354600160a060020a0390811691161461132657600260019054906101000a9004600160a060020a0316600160a060020a03166338cc48316040518163ffffffff1660e060020a028152600401602060405180830381600087803b1580156112cd57600080fd5b505af11580156112e1573d6000803e3d6000fd5b505050506040513d60208110156112f757600080fd5b50516003805473ffffffffffffffffffffffffffffffffffffffff1916600160a060020a039092169190911790555b600360009054906101000a9004600160a060020a0316600160a060020a031663c281d19e6040518163ffffffff1660e060020a028152600401602060405180830381600087803b1580156105f457600080fd5b6000828180805b83518110156115165783517f3000000000000000000000000000000000000000000000000000000000000000908590839081106113b957fe5b90602001015160f860020a900460f860020a027effffffffffffffffffffffffffffffffffffffffffffffffffffffffffffff19161015801561145f575083517f39000000000000000000000000000000000000000000000000000000000000009085908390811061142757fe5b90602001015160f860020a900460f860020a027effffffffffffffffffffffffffffffffffffffffffffffffffffffffffffff191611155b156114b857811561147e5785151561147657611516565b600019909501945b600a830292506030848281518110151561149457fe5b90602001015160f860020a900460f860020a0260f860020a9004038301925061150e565b83818151811015156114c657fe5b90602001015160f860020a900460f860020a027effffffffffffffffffffffffffffffffffffffffffffffffffffffffffffff1916602e60f860020a02141561150e57600191505b600101611380565b60008611156115285785600a0a830292505b509095945050505050565b6000600160a060020a038216151561154a57600080fd5b50600160a060020a03166000908152602091909152604090205460ff1690565b60025460009081906101009004600160a060020a031615806115a357506002546115a1906101009004600160a060020a0316611e44565b155b156115b4576115b26000611e48565b505b600260019054906101000a9004600160a060020a0316600160a060020a03166338cc48316040518163ffffffff1660e060020a028152600401602060405180830381600087803b15801561160757600080fd5b505af115801561161b573d6000803e3d6000fd5b505050506040513d602081101561163157600080fd5b5051600354600160a060020a039081169116146116f457600260019054906101000a9004600160a060020a0316600160a060020a03166338cc48316040518163ffffffff1660e060020a028152600401602060405180830381600087803b15801561169b57600080fd5b505af11580156116af573d6000803e3d6000fd5b505050506040513d60208110156116c557600080fd5b50516003805473ffffffffffffffffffffffffffffffffffffffff1916600160a060020a039092169190911790555b6003546040517f524f3889000000000000000000000000000000000000000000000000000000008152602060048201818152875160248401528751600160a060020a039094169363524f388993899383926044909201919085019080838360005b8381101561176d578181015183820152602001611755565b50505050905090810190601f16801561179a5780820380516001836020036101000a031916815260200191505b5092505050602060405180830381600087803b1580156117b957600080fd5b505af11580156117cd573d6000803e3d6000fd5b505050506040513d60208110156117e357600080fd5b50519050670de0b6b3a764000062030d403a02018111156118075760009150611971565b6003546040517fadf59f99000000000000000000000000000000000000000000000000000000008152600060048201818152606060248401908152885160648501528851600160a060020a039095169463adf59f99948794938b938b939192909160448201916084019060208701908083838b5b8381101561189357818101518382015260200161187b565b50505050905090810190601f1680156118c05780820380516001836020036101000a031916815260200191505b50838103825284518152845160209182019186019080838360005b838110156118f35781810151838201526020016118db565b50505050905090810190601f1680156119205780820380516001836020036101000a031916815260200191505b50955050505050506020604051808303818588803b15801561194157600080fd5b505af1158015611955573d6000803e3d6000fd5b50505050506040513d602081101561196c57600080fd5b505191505b5092915050565b61198960018263ffffffff611e5216565b604051600160a060020a038216907fcd265ebaf09df2871cc7bd4133404a235ba12eff2041bb89d9c714a2621c7c7e90600090a250565b6119d160018263ffffffff611e8916565b604051600160a060020a038216907f6719d08c1888103bea251a4ed56406bd0c3e69723c8a1686e017e7bbe159b6f890600090a250565b6002546000906101009004600160a060020a03161580611a3f5750600254611a3d906101009004600160a060020a0316611e44565b155b15611a5057611a4e6000611e48565b505b600260019054906101000a9004600160a060020a0316600160a060020a03166338cc48316040518163ffffffff1660e060020a028152600401602060405180830381600087803b158015611aa357600080fd5b505af1158015611ab7573d6000803e3d6000fd5b505050506040513d6020811015611acd57600080fd5b5051600354600160a060020a03908116911614611b9057600260019054906101000a9004600160a060020a0316600160a060020a03166338cc48316040518163ffffffff1660e060020a028152600401602060405180830381600087803b158015611b3757600080fd5b505af1158015611b4b573d6000803e3d6000fd5b505050506040513d6020811015611b6157600080fd5b50516003805473ffffffffffffffffffffffffffffffffffffffff1916600160a060020a039092169190911790555b6003546040517f524f3889000000000000000000000000000000000000000000000000000000008152602060048201818152855160248401528551600160a060020a039094169363524f388993879383926044909201919085019080838360005b83811015611c09578181015183820152602001611bf1565b50505050905090810190601f168015611c365780820380516001836020036101000a031916815260200191505b5092505050602060405180830381600087803b15801561083a57600080fd5b600080831515611c685760009150611971565b50828202828482811515611c7857fe5b0414611c8357600080fd5b9392505050565b600080808311611c9957600080fd5b8284811515611ca457fe5b04949350505050565b600082820183811015611c8357600080fd5b60008083831115611ccf57600080fd5b5050900390565b6009819055604080513381526020810183905281517f238879033f65fd36b707914746ca37d674a78c13b57f9910026410681991c889929181900390910190a150565b6000611d23610595565b60ff16600a0a9050611d3b818363ffffffff611c8a16565b6008819055604080513381526020810185905280820192909252517f8e7e19c3c2da501e28433f232b7ab951190311c0f3b0a68c2467b9adb39a06e89181900360600190a15050565b600a819055604080513381526020810183905281517ff54418c9106b955e37b8f0994b7c8c325aad3c3ad503efc50a4ac10139c9e003929181900390910190a150565b600160a060020a0381161515611ddc57600080fd5b60008054604051600160a060020a03808516939216917f8be0079c531659141344cd1fd0a4f28419497f9722a3daafe3b4186f6b6457e091a36000805473ffffffffffffffffffffffffffffffffffffffff1916600160a060020a0392909216919091179055565b3b90565b6000610905611ec3565b600160a060020a0381161515611e6757600080fd5b600160a060020a0316600090815260209190915260409020805460ff19169055565b600160a060020a0381161515611e9e57600080fd5b600160a060020a0316600090815260209190915260409020805460ff19166001179055565b600080611ee3731d3b2638a7cc9f2cb3d298a3da7a90b67e5506ed611e44565b1115611f63576002805474ffffffffffffffffffffffffffffffffffffffff001916741d3b2638a7cc9f2cb3d298a3da7a90b67e5506ed0017905560408051808201909152600b81527f6574685f6d61696e6e65740000000000000000000000000000000000000000006020820152611f5b90612254565b506001610623565b6000611f8273c03a2615d5efaf5f49f60b7bb6583eaec212fdf1611e44565b1115611ffa576002805474ffffffffffffffffffffffffffffffffffffffff00191674c03a2615d5efaf5f49f60b7bb6583eaec212fdf10017905560408051808201909152600c81527f6574685f726f707374656e3300000000000000000000000000000000000000006020820152611f5b90612254565b600061201973b7a07bcf2ba2f2703b24c0691b5278999c59ac7e611e44565b1115612091576002805474ffffffffffffffffffffffffffffffffffffffff00191674b7a07bcf2ba2f2703b24c0691b5278999c59ac7e0017905560408051808201909152600981527f6574685f6b6f76616e00000000000000000000000000000000000000000000006020820152611f5b90612254565b60006120b073146500cfd35b22e4a392fe0adc06de1a1368ed48611e44565b1115612128576002805474ffffffffffffffffffffffffffffffffffffffff00191674146500cfd35b22e4a392fe0adc06de1a1368ed480017905560408051808201909152600b81527f6574685f72696e6b6562790000000000000000000000000000000000000000006020820152611f5b90612254565b6000612147736f485c8bf6fc43ea212e93bbf8ce046c7f1cb475611e44565b111561218a57506002805474ffffffffffffffffffffffffffffffffffffffff001916746f485c8bf6fc43ea212e93bbf8ce046c7f1cb475001790556001610623565b60006121a97320e12a1f859b3feae5fb2a0a32c18f5a65555bbf611e44565b11156121ec57506002805474ffffffffffffffffffffffffffffffffffffffff0019167420e12a1f859b3feae5fb2a0a32c18f5a65555bbf001790556001610623565b600061220b7351efaf4c8b3c9afbd5ab9f4bbc82784ab6ef8faa611e44565b111561224e57506002805474ffffffffffffffffffffffffffffffffffffffff0019167451efaf4c8b3c9afbd5ab9f4bbc82784ab6ef8faa001790556001610623565b50600090565b805161226790600490602084019061226b565b5050565b828054600181600116156101000203166002900490600052602060002090601f016020900481019282601f106122ac57805160ff19168380011785556122d9565b828001600101855582156122d9579182015b828111156122d95782518255916020019190600101906122be565b50610fc3926106239250905b80821115610fc357600081556001016122e55600a165627a7a723058203dd516a2bdc1a40c6dc7ab222e4735c67ac7ce1e35479523b47c43ab314a3c630029",
  "source": "pragma solidity ^0.4.24;\n\nimport '../openzeppelin-solidity/contracts/ownership/Ownable.sol';\nimport '../openzeppelin-solidity/contracts/lifecycle/Pausable.sol';\nimport '../openzeppelin-solidity/contracts/math/SafeMath.sol';\n\nimport \"../ethereum-api/oraclizeAPI_0.4.25.sol\";\n\ninterface Token {\n  function totalSupply() external view returns (uint256);\n\n  function balanceOf(address owner) external view returns (uint256);\n\n  function name() external view returns(string);\n\n  function symbol() external view returns(string);\n\n  function decimals() external view returns(uint8);\n\n  function allowance(address owner, address spender) external view returns (uint256);\n\n  function transfer(address to, uint256 value) external returns (bool);\n\n  function approve(address spender, uint256 value) external returns (bool);\n}\n\ncontract ERC20TokenShop is Ownable, Pausable, usingOraclize {\n  using SafeMath for uint256;\n\n  Token tokenContract;\n\n  uint256 public exchangeRate;\n  uint256 public USDTETH;\n  uint256 public oracleTax;\n\n  event LogBuyToken(address eSender, uint256 eValue, uint256 eTokenAmount);\n  event LogSetExchangeRate(address eSender, uint256 eRate, uint256 eExchangeRate);\n  event LogSetETHXRate(address eSender, uint256 eETHXRate);\n  event LogSetETHXRateOverride(address eSender, uint256 eETHXRate);\n  event LogSetOracleTaxOverride(address eSender, uint256 eOracleTax);\n  event LogDeposit(address eSender, uint256 eValue);\n  event LogWithdraw(address eSender, uint256 eValue);\n  event LogSetETHXUpdated(address eSender, string eETHXRate);\n  event LogNewOraclizeQuery(string eOracleResponse);\n\n  //Default exchange rate is $1/Token\n  constructor(address _instance) public {\n    tokenContract = Token(_instance);\n    exchangeRate = 1000000000000000000;\n  }\n\n  //Token functions\n  function getTokenSupply()\n    public\n    view\n    returns (uint256)\n  {\n    return tokenContract.totalSupply();\n  }\n\n  function getTokenBalance(address _account)\n    public\n    view\n    returns (uint256)\n  {\n    return tokenContract.balanceOf(_account);\n  }\n\n  function getTokenName()\n    public\n    view\n    returns (string)\n  {\n    return tokenContract.name();\n  }\n\n  function getTokenSymbol()\n    public\n    view\n    returns (string)\n  {\n    return tokenContract.symbol();\n  }\n\n  function getTokenDecimals()\n    public\n    view\n    returns (uint8)\n  {\n    return tokenContract.decimals();\n  }\n\n  //User functions\n  function buyToken()\n    whenNotPaused\n    public\n    payable\n    returns (bool)\n  {\n    require(msg.value > 0);\n    require(tokenContract.balanceOf(address(this)) > 0);\n    //check not asking for more than stock\n    require(tokenContract.balanceOf(address(this)) >= msg.value);\n    //set Oracle Tax\n    oracleTax = oraclize_getPrice(\"URL\");\n    //check value is at least 1 cross rate token bit unit per wei\n    require(msg.value >= exchangeRate.mul(USDTETH).div(10**18).add(oracleTax));\n    //get updated ETH USD cross rate\n    updatePrice();\n    //wei to token bit conversion via dollars\n    //$ per ETH * ETH per wei * (1 / $ per tokenbit) = tokenbit per wei\n    uint256 _amount;\n    _amount = msg.value.mul(exchangeRate).mul(USDTETH).div(10**(18)).sub(oracleTax);\n    emit LogBuyToken(msg.sender, msg.value, _amount);\n    tokenContract.transfer(msg.sender, _amount);\n    return true;\n  }\n\n  //Oraclize implementation\n  function __callback(bytes32 myid, string result) {\n    require(msg.sender == oraclize_cbAddress());\n    USDTETH = parseInt(result, 0);\n    emit LogSetETHXUpdated(msg.sender, result);\n  }\n\n  function updatePrice()\n    whenNotPaused\n    public\n    payable\n  {\n    emit LogNewOraclizeQuery(\"Oraclize query was sent, standing by for the answer...\");\n    oraclize_query(\"URL\", \"json(https://api.gdax.com/products/ETH-USD/ticker).price\");\n  }\n\n  //Shop functions\n  function getShopStock()\n    public\n    view\n    returns (uint256)\n  {\n    return tokenContract.balanceOf(address(this));\n  }\n\n  function getOracleTax()\n    public\n    view\n    returns (uint256)\n  {\n    return oracleTax;\n  }\n\n  //Exchange rate in Dollars (i.e. Tokens per dollar)\n  function setExchangeRate(uint256 _dollars_per_token)\n    onlyOwner\n    whenNotPaused\n    public\n    returns (bool)\n  {\n    _setExchangeRate(_dollars_per_token);\n    return true;\n  }\n\n  function setETHXRateOverride(uint256 _dollars_per_eth)\n    onlyOwner\n    whenNotPaused\n    public\n    returns (bool)\n  {\n    _setETHXRate(_dollars_per_eth);\n    return true;\n  }\n\n  function setOracleTaxOverride(uint256 _oracleTax)\n    onlyOwner\n    whenNotPaused\n    public\n    returns (bool)\n  {\n      _setOracleTaxOverride(_oracleTax);\n      return true;\n  }\n\n  function deposit()\n    onlyOwner\n    whenNotPaused\n    payable\n    public\n    returns (bool)\n  {\n    emit LogDeposit(msg.sender, msg.value);\n    return true;\n  }\n\n  function withdraw(uint256 _amount)\n    onlyOwner\n    whenNotPaused\n    public\n    returns (bool)\n  {\n    require(address(this).balance >= _amount);\n    address _owner;\n    _owner = owner();\n    emit LogWithdraw(msg.sender, _amount);\n    _owner.transfer(_amount);\n    return true;\n  }\n\n  //Internal functions\n  function _setExchangeRate(uint256 _dollars_per_token)\n    internal\n  {\n    uint256 _decimals = getTokenDecimals();\n    _decimals = 10**(_decimals);\n    exchangeRate = _decimals.div(_dollars_per_token);\n    emit LogSetExchangeRate(msg.sender, _dollars_per_token, exchangeRate);\n  }\n\n  function _setETHXRate(uint256 _dollars_per_eth)\n    internal\n  {\n    USDTETH = _dollars_per_eth;\n    emit LogSetETHXRateOverride(msg.sender, _dollars_per_eth);\n  }\n\n  function _setOracleTaxOverride(uint256 _oracleTax)\n    internal\n  {\n    oracleTax = _oracleTax;\n    emit LogSetOracleTaxOverride(msg.sender, _oracleTax);\n  }\n\n  function kill()\n    onlyOwner\n    public\n  {\n    selfdestruct(owner());\n  }\n\n\n}\n",
  "sourcePath": "/home/vagrant/DAPPS/tokenShopApp/contracts/ERC20TokenShop.sol",
  "compiler": {
    "name": "solc",
    "version": "0.4.24+commit.e67f0147.Emscripten.clang"
  },
  "schemaVersion": "2.0.1",
  "updatedAt": "2018-09-30T18:16:35.542Z"
}