{
  "contractName": "ERC20TokenShop",
  "abi": [
    {
      "constant": true,
      "inputs": [],
      "name": "exchangeRate",
      "outputs": [
        {
          "name": "",
          "type": "uint256"
        }
      ],
      "payable": false,
      "stateMutability": "view",
      "type": "function"
    },
    {
      "constant": false,
      "inputs": [],
      "name": "unpause",
      "outputs": [],
      "payable": false,
      "stateMutability": "nonpayable",
      "type": "function"
    },
    {
      "constant": true,
      "inputs": [
        {
          "name": "account",
          "type": "address"
        }
      ],
      "name": "isPauser",
      "outputs": [
        {
          "name": "",
          "type": "bool"
        }
      ],
      "payable": false,
      "stateMutability": "view",
      "type": "function"
    },
    {
      "constant": true,
      "inputs": [],
      "name": "paused",
      "outputs": [
        {
          "name": "",
          "type": "bool"
        }
      ],
      "payable": false,
      "stateMutability": "view",
      "type": "function"
    },
    {
      "constant": false,
      "inputs": [],
      "name": "renouncePauser",
      "outputs": [],
      "payable": false,
      "stateMutability": "nonpayable",
      "type": "function"
    },
    {
      "constant": false,
      "inputs": [],
      "name": "renounceOwnership",
      "outputs": [],
      "payable": false,
      "stateMutability": "nonpayable",
      "type": "function"
    },
    {
      "constant": false,
      "inputs": [
        {
          "name": "account",
          "type": "address"
        }
      ],
      "name": "addPauser",
      "outputs": [],
      "payable": false,
      "stateMutability": "nonpayable",
      "type": "function"
    },
    {
      "constant": false,
      "inputs": [],
      "name": "pause",
      "outputs": [],
      "payable": false,
      "stateMutability": "nonpayable",
      "type": "function"
    },
    {
      "constant": true,
      "inputs": [],
      "name": "owner",
      "outputs": [
        {
          "name": "",
          "type": "address"
        }
      ],
      "payable": false,
      "stateMutability": "view",
      "type": "function"
    },
    {
      "constant": true,
      "inputs": [],
      "name": "isOwner",
      "outputs": [
        {
          "name": "",
          "type": "bool"
        }
      ],
      "payable": false,
      "stateMutability": "view",
      "type": "function"
    },
    {
      "constant": true,
      "inputs": [],
      "name": "oracleTax",
      "outputs": [
        {
          "name": "",
          "type": "uint256"
        }
      ],
      "payable": false,
      "stateMutability": "view",
      "type": "function"
    },
    {
      "constant": true,
      "inputs": [],
      "name": "USDTETH",
      "outputs": [
        {
          "name": "",
          "type": "uint256"
        }
      ],
      "payable": false,
      "stateMutability": "view",
      "type": "function"
    },
    {
      "constant": true,
      "inputs": [],
      "name": "queryURL",
      "outputs": [
        {
          "name": "",
          "type": "string"
        }
      ],
      "payable": false,
      "stateMutability": "view",
      "type": "function"
    },
    {
      "constant": true,
      "inputs": [],
      "name": "oraclizePriceType",
      "outputs": [
        {
          "name": "",
          "type": "string"
        }
      ],
      "payable": false,
      "stateMutability": "view",
      "type": "function"
    },
    {
      "constant": false,
      "inputs": [
        {
          "name": "newOwner",
          "type": "address"
        }
      ],
      "name": "transferOwnership",
      "outputs": [],
      "payable": false,
      "stateMutability": "nonpayable",
      "type": "function"
    },
    {
      "inputs": [
        {
          "name": "_instance",
          "type": "address"
        }
      ],
      "payable": false,
      "stateMutability": "nonpayable",
      "type": "constructor"
    },
    {
      "anonymous": false,
      "inputs": [
        {
          "indexed": false,
          "name": "eSender",
          "type": "address"
        },
        {
          "indexed": false,
          "name": "eValue",
          "type": "uint256"
        },
        {
          "indexed": false,
          "name": "eTokenAmount",
          "type": "uint256"
        }
      ],
      "name": "LogBuyToken",
      "type": "event"
    },
    {
      "anonymous": false,
      "inputs": [
        {
          "indexed": false,
          "name": "eSender",
          "type": "address"
        },
        {
          "indexed": false,
          "name": "eRate",
          "type": "uint256"
        },
        {
          "indexed": false,
          "name": "eExchangeRate",
          "type": "uint256"
        }
      ],
      "name": "LogSetExchangeRate",
      "type": "event"
    },
    {
      "anonymous": false,
      "inputs": [
        {
          "indexed": false,
          "name": "eSender",
          "type": "address"
        },
        {
          "indexed": false,
          "name": "eETHXRate",
          "type": "uint256"
        }
      ],
      "name": "LogSetETHXRateOverride",
      "type": "event"
    },
    {
      "anonymous": false,
      "inputs": [
        {
          "indexed": false,
          "name": "eSender",
          "type": "address"
        },
        {
          "indexed": false,
          "name": "eOracleTax",
          "type": "uint256"
        }
      ],
      "name": "LogSetOracleTaxOverride",
      "type": "event"
    },
    {
      "anonymous": false,
      "inputs": [
        {
          "indexed": false,
          "name": "eSender",
          "type": "address"
        },
        {
          "indexed": false,
          "name": "eQueryURL",
          "type": "string"
        }
      ],
      "name": "LogSetQueryURL",
      "type": "event"
    },
    {
      "anonymous": false,
      "inputs": [
        {
          "indexed": false,
          "name": "eSender",
          "type": "address"
        },
        {
          "indexed": false,
          "name": "eOraclizePriceType",
          "type": "string"
        }
      ],
      "name": "LogSetOraclizePriceType",
      "type": "event"
    },
    {
      "anonymous": false,
      "inputs": [
        {
          "indexed": false,
          "name": "eSender",
          "type": "address"
        },
        {
          "indexed": false,
          "name": "eValue",
          "type": "uint256"
        }
      ],
      "name": "LogDeposit",
      "type": "event"
    },
    {
      "anonymous": false,
      "inputs": [
        {
          "indexed": false,
          "name": "eSender",
          "type": "address"
        },
        {
          "indexed": false,
          "name": "eValue",
          "type": "uint256"
        }
      ],
      "name": "LogWithdraw",
      "type": "event"
    },
    {
      "anonymous": false,
      "inputs": [
        {
          "indexed": false,
          "name": "eSender",
          "type": "address"
        },
        {
          "indexed": false,
          "name": "eETHXRate",
          "type": "string"
        }
      ],
      "name": "LogSetETHXUpdated",
      "type": "event"
    },
    {
      "anonymous": false,
      "inputs": [
        {
          "indexed": false,
          "name": "eOracleResponse",
          "type": "string"
        }
      ],
      "name": "LogNewOraclizeQuery",
      "type": "event"
    },
    {
      "anonymous": false,
      "inputs": [],
      "name": "Paused",
      "type": "event"
    },
    {
      "anonymous": false,
      "inputs": [],
      "name": "Unpaused",
      "type": "event"
    },
    {
      "anonymous": false,
      "inputs": [
        {
          "indexed": true,
          "name": "account",
          "type": "address"
        }
      ],
      "name": "PauserAdded",
      "type": "event"
    },
    {
      "anonymous": false,
      "inputs": [
        {
          "indexed": true,
          "name": "account",
          "type": "address"
        }
      ],
      "name": "PauserRemoved",
      "type": "event"
    },
    {
      "anonymous": false,
      "inputs": [
        {
          "indexed": true,
          "name": "previousOwner",
          "type": "address"
        }
      ],
      "name": "OwnershipRenounced",
      "type": "event"
    },
    {
      "anonymous": false,
      "inputs": [
        {
          "indexed": true,
          "name": "previousOwner",
          "type": "address"
        },
        {
          "indexed": true,
          "name": "newOwner",
          "type": "address"
        }
      ],
      "name": "OwnershipTransferred",
      "type": "event"
    },
    {
      "constant": true,
      "inputs": [],
      "name": "getTokenSupply",
      "outputs": [
        {
          "name": "",
          "type": "uint256"
        }
      ],
      "payable": false,
      "stateMutability": "view",
      "type": "function"
    },
    {
      "constant": true,
      "inputs": [
        {
          "name": "_account",
          "type": "address"
        }
      ],
      "name": "getTokenBalance",
      "outputs": [
        {
          "name": "",
          "type": "uint256"
        }
      ],
      "payable": false,
      "stateMutability": "view",
      "type": "function"
    },
    {
      "constant": true,
      "inputs": [],
      "name": "getTokenName",
      "outputs": [
        {
          "name": "",
          "type": "string"
        }
      ],
      "payable": false,
      "stateMutability": "view",
      "type": "function"
    },
    {
      "constant": true,
      "inputs": [],
      "name": "getTokenSymbol",
      "outputs": [
        {
          "name": "",
          "type": "string"
        }
      ],
      "payable": false,
      "stateMutability": "view",
      "type": "function"
    },
    {
      "constant": true,
      "inputs": [],
      "name": "getTokenDecimals",
      "outputs": [
        {
          "name": "",
          "type": "uint8"
        }
      ],
      "payable": false,
      "stateMutability": "view",
      "type": "function"
    },
    {
      "constant": false,
      "inputs": [],
      "name": "buyToken",
      "outputs": [
        {
          "name": "",
          "type": "bool"
        }
      ],
      "payable": true,
      "stateMutability": "payable",
      "type": "function"
    },
    {
      "constant": false,
      "inputs": [
        {
          "name": "myid",
          "type": "bytes32"
        },
        {
          "name": "result",
          "type": "string"
        }
      ],
      "name": "__callback",
      "outputs": [],
      "payable": false,
      "stateMutability": "nonpayable",
      "type": "function"
    },
    {
      "constant": false,
      "inputs": [
        {
          "name": "myid",
          "type": "bytes32"
        },
        {
          "name": "result",
          "type": "string"
        },
        {
          "name": "proof",
          "type": "bytes"
        }
      ],
      "name": "__callback",
      "outputs": [],
      "payable": false,
      "stateMutability": "nonpayable",
      "type": "function"
    },
    {
      "constant": false,
      "inputs": [],
      "name": "updatePrice",
      "outputs": [],
      "payable": true,
      "stateMutability": "payable",
      "type": "function"
    },
    {
      "constant": true,
      "inputs": [],
      "name": "getShopStock",
      "outputs": [
        {
          "name": "",
          "type": "uint256"
        }
      ],
      "payable": false,
      "stateMutability": "view",
      "type": "function"
    },
    {
      "constant": true,
      "inputs": [],
      "name": "getOracleTax",
      "outputs": [
        {
          "name": "",
          "type": "uint256"
        }
      ],
      "payable": false,
      "stateMutability": "view",
      "type": "function"
    },
    {
      "constant": false,
      "inputs": [
        {
          "name": "_dollars_per_token",
          "type": "uint256"
        }
      ],
      "name": "setExchangeRate",
      "outputs": [
        {
          "name": "",
          "type": "bool"
        }
      ],
      "payable": false,
      "stateMutability": "nonpayable",
      "type": "function"
    },
    {
      "constant": false,
      "inputs": [
        {
          "name": "_dollars_per_eth",
          "type": "uint256"
        }
      ],
      "name": "setETHXRateOverride",
      "outputs": [
        {
          "name": "",
          "type": "bool"
        }
      ],
      "payable": false,
      "stateMutability": "nonpayable",
      "type": "function"
    },
    {
      "constant": false,
      "inputs": [
        {
          "name": "_oracleTax",
          "type": "uint256"
        }
      ],
      "name": "setOracleTaxOverride",
      "outputs": [
        {
          "name": "",
          "type": "bool"
        }
      ],
      "payable": false,
      "stateMutability": "nonpayable",
      "type": "function"
    },
    {
      "constant": false,
      "inputs": [
        {
          "name": "_url",
          "type": "string"
        }
      ],
      "name": "setQueryURL",
      "outputs": [
        {
          "name": "",
          "type": "bool"
        }
      ],
      "payable": false,
      "stateMutability": "nonpayable",
      "type": "function"
    },
    {
      "constant": false,
      "inputs": [
        {
          "name": "_type",
          "type": "string"
        }
      ],
      "name": "setOraclizePriceType",
      "outputs": [
        {
          "name": "",
          "type": "bool"
        }
      ],
      "payable": false,
      "stateMutability": "nonpayable",
      "type": "function"
    },
    {
      "constant": false,
      "inputs": [],
      "name": "deposit",
      "outputs": [
        {
          "name": "",
          "type": "bool"
        }
      ],
      "payable": true,
      "stateMutability": "payable",
      "type": "function"
    },
    {
      "constant": false,
      "inputs": [
        {
          "name": "_amount",
          "type": "uint256"
        }
      ],
      "name": "withdraw",
      "outputs": [
        {
          "name": "",
          "type": "bool"
        }
      ],
      "payable": false,
      "stateMutability": "nonpayable",
      "type": "function"
    },
    {
      "constant": false,
      "inputs": [],
      "name": "kill",
      "outputs": [],
      "payable": false,
      "stateMutability": "nonpayable",
      "type": "function"
    }
  ],
  "bytecode": "0x60806040526002805460ff191690553480156200001b57600080fd5b50604051602080620028d0833981016040525160008054600160a060020a03191633908117909155620000579064010000000062000089810204565b60078054600160a060020a031916600160a060020a0392909216919091179055670de0b6b3a764000060085562000116565b620000a46001826401000000006200230e620000db82021704565b604051600160a060020a038216907f6719d08c1888103bea251a4ed56406bd0c3e69723c8a1686e017e7bbe159b6f890600090a250565b600160a060020a0381161515620000f157600080fd5b600160a060020a0316600090815260209190915260409020805460ff19166001179055565b6127aa80620001266000396000f3006080604052600436106101925763ffffffff60e060020a6000350416630363f8e7811461019757806319d6172d1461020457806324f65ee71461025d57806327dc297e146102885780632e1a7d4d146102e85780633516e93a1461030057806338bbfa50146103275780633aecd0e3146103c35780633ba0b9a9146103e45780633f4ba83a146103f957806341c0e1b51461040e57806346fbf68e146104235780635c975abb1461044457806360c07e7414610459578063673a7e281461046e5780636ef8d66d14610476578063715018a61461048b57806382dc1ec4146104a05780638456cb59146104c1578063862b092b146104d65780638da5cb5b146105605780638f32d59b1461059157806393398487146105a6578063a4821719146105bb578063ad974f4c146105c3578063d0e30db0146105d8578063d87ac339146105e0578063db068e0e146105f8578063e0eb576d14610610578063e1d689c714610625578063e696fdf71461063d578063f1850af814610652578063f20489f814610667578063f2fde38b1461067c575b600080fd5b3480156101a357600080fd5b506040805160206004803580820135601f81018490048402850184019095528484526101f094369492936024939284019190819084018382808284375094975061069d9650505050505050565b604080519115158252519081900360200190f35b34801561021057600080fd5b506040805160206004803580820135601f81018490048402850184019095528484526101f09436949293602493928401919081908401838280828437509497506106d39650505050505050565b34801561026957600080fd5b50610272610701565b6040805160ff9092168252519081900360200190f35b34801561029457600080fd5b5060408051602060046024803582810135601f81018590048502860185019096528585526102e69583359536956044949193909101919081908401838280828437509497506107929650505050505050565b005b3480156102f457600080fd5b506101f0600435610876565b34801561030c57600080fd5b50610315610930565b60408051918252519081900360200190f35b34801561033357600080fd5b5060408051602060046024803582810135601f81018590048502860185019096528585526102e695833595369560449491939091019190819084018382808284375050604080516020601f89358b018035918201839004830284018301909452808352979a9998810197919650918201945092508291508401838280828437509497506109369650505050505050565b3480156103cf57600080fd5b50610315600160a060020a036004351661093b565b3480156103f057600080fd5b506103156109d8565b34801561040557600080fd5b506102e66109de565b34801561041a57600080fd5b506102e6610a38565b34801561042f57600080fd5b506101f0600160a060020a0360043516610a5e565b34801561045057600080fd5b506101f0610a77565b34801561046557600080fd5b50610315610a80565b6102e6610ae5565b34801561048257600080fd5b506102e6610ca3565b34801561049757600080fd5b506102e6610cae565b3480156104ac57600080fd5b506102e6600160a060020a0360043516610d16565b3480156104cd57600080fd5b506102e6610d33565b3480156104e257600080fd5b506104eb610d8f565b6040805160208082528351818301528351919283929083019185019080838360005b8381101561052557818101518382015260200161050d565b50505050905090810190601f1680156105525780820380516001836020036101000a031916815260200191505b509250505060405180910390f35b34801561056c57600080fd5b50610575610e7b565b60408051600160a060020a039092168252519081900360200190f35b34801561059d57600080fd5b506101f0610e8a565b3480156105b257600080fd5b50610315610e9b565b6101f0610ea1565b3480156105cf57600080fd5b50610315611216565b6101f0611275565b3480156105ec57600080fd5b506101f06004356112da565b34801561060457600080fd5b506101f0600435611308565b34801561061c57600080fd5b50610315611336565b34801561063157600080fd5b506101f060043561133c565b34801561064957600080fd5b506104eb61136a565b34801561065e57600080fd5b506104eb6113f8565b34801561067357600080fd5b506104eb611457565b34801561068857600080fd5b506102e6600160a060020a03600435166114b2565b60006106a7610e8a565b15156106b257600080fd5b60025460ff16156106c257600080fd5b6106cb826114ce565b506001919050565b60006106dd610e8a565b15156106e857600080fd5b60025460ff16156106f857600080fd5b6106cb82611598565b600754604080517f313ce5670000000000000000000000000000000000000000000000000000000081529051600092600160a060020a03169163313ce56791600480830192602092919082900301818787803b15801561076057600080fd5b505af1158015610774573d6000803e3d6000fd5b505050506040513d602081101561078a57600080fd5b505190505b90565b61079a611623565b600160a060020a031633146107ae57600080fd5b6107b98160006117fe565b6009819055507f7cbfdd3eda751b1e5cdb1786e5bdc616ef015671f13eb23ae7e48bd03233da7e33826040518083600160a060020a0316600160a060020a0316815260200180602001828103825283818151815260200191508051906020019080838360005b8381101561083757818101518382015260200161081f565b50505050905090810190601f1680156108645780820380516001836020036101000a031916815260200191505b50935050505060405180910390a15050565b600080610881610e8a565b151561088c57600080fd5b60025460ff161561089c57600080fd5b30318311156108aa57600080fd5b6108b2610e7b565b604080513381526020810186905281519293507f4ce7033d118120e254016dccf195288400b28fc8936425acd5f17ce2df3ab708929081900390910190a1604051600160a060020a0382169084156108fc029085906000818181858888f19350505050158015610926573d6000803e3d6000fd5b5060019392505050565b600a5490565b505050565b600754604080517f70a08231000000000000000000000000000000000000000000000000000000008152600160a060020a038481166004830152915160009392909216916370a082319160248082019260209290919082900301818787803b1580156109a657600080fd5b505af11580156109ba573d6000803e3d6000fd5b505050506040513d60208110156109d057600080fd5b505192915050565b60085481565b6109e733610a5e565b15156109f257600080fd5b60025460ff161515610a0357600080fd5b6002805460ff191690556040517fa45f47fdea8a1efdd9029a5691c7f759c32b7c698632b563573e155625d1693390600090a1565b610a40610e8a565b1515610a4b57600080fd5b610a53610e7b565b600160a060020a0316ff5b6000610a7160018363ffffffff6119b816565b92915050565b60025460ff1690565b600754604080517f70a082310000000000000000000000000000000000000000000000000000000081523060048201529051600092600160a060020a0316916370a0823191602480830192602092919082900301818787803b15801561076057600080fd5b60025460ff1615610af557600080fd5b6040805160208082526036908201527f4f7261636c697a65207175657279207761732073656e742c207374616e64696e818301527f6720627920666f722074686520616e737765722e2e2e00000000000000000000606082015290517f621c2856e3b87f81235f8ac8a22bbb40a0142961960710d00b2b6c380902b57e9181900360800190a1600c8054604080516020601f60026000196101006001881615020190951694909404938401819004810282018101909252828152610ca09390929091830182828015610c085780601f10610bdd57610100808354040283529160200191610c08565b820191906000526020600020905b815481529060010190602001808311610beb57829003601f168201915b5050600b8054604080516020601f6002600019610100600188161502019095169490940493840181900481028201810190925282815295509193509150830182828015610c965780601f10610c6b57610100808354040283529160200191610c96565b820191906000526020600020905b815481529060010190602001808311610c7957829003601f168201915b50505050506119ef565b50565b610cac33611dfd565b565b610cb6610e8a565b1515610cc157600080fd5b60008054604051600160a060020a03909116917ff8df31144d9c2f0f6b59d69b8b98abd5459d07f2742c4df920b25aae33c6482091a26000805473ffffffffffffffffffffffffffffffffffffffff19169055565b610d1f33610a5e565b1515610d2a57600080fd5b610ca081611e45565b610d3c33610a5e565b1515610d4757600080fd5b60025460ff1615610d5757600080fd5b6002805460ff191660011790556040517f9e87fac88ff661f02d44f95383c817fece4bce600a3dab7a54406878b965e75290600090a1565b600754604080517f06fdde030000000000000000000000000000000000000000000000000000000081529051606092600160a060020a0316916306fdde0391600480830192600092919082900301818387803b158015610dee57600080fd5b505af1158015610e02573d6000803e3d6000fd5b505050506040513d6000823e601f3d908101601f191682016040526020811015610e2b57600080fd5b810190808051640100000000811115610e4357600080fd5b82016020810184811115610e5657600080fd5b8151640100000000811182820187101715610e7057600080fd5b509094505050505090565b600054600160a060020a031690565b600054600160a060020a0316331490565b600a5481565b600254600090819060ff1615610eb657600080fd5b60003411610ec357600080fd5b600754604080517f70a082310000000000000000000000000000000000000000000000000000000081523060048201529051600092600160a060020a0316916370a0823191602480830192602092919082900301818787803b158015610f2857600080fd5b505af1158015610f3c573d6000803e3d6000fd5b505050506040513d6020811015610f5257600080fd5b505111610f5e57600080fd5b600754604080517f70a0823100000000000000000000000000000000000000000000000000000000815230600482015290513492600160a060020a0316916370a082319160248083019260209291908290030181600087803b158015610fc357600080fd5b505af1158015610fd7573d6000803e3d6000fd5b505050506040513d6020811015610fed57600080fd5b50511015610ffa57600080fd5b600c8054604080516020601f6002600019610100600188161502019095169490940493840181900481028201810190925282815261109193909290918301828280156110875780601f1061105c57610100808354040283529160200191611087565b820191906000526020600020905b81548152906001019060200180831161106a57829003601f168201915b5050505050611e8d565b600a819055506110d8600a546110cc670de0b6b3a76400006110c06009546008546120da90919063ffffffff16565b9063ffffffff61210f16565b9063ffffffff61213216565b3410156110e457600080fd5b6110ec610ae5565b611131600a54611125670de0b6b3a76400006110c0600954611119600854346120da90919063ffffffff16565b9063ffffffff6120da16565b9063ffffffff61214416565b6040805133815234602082015280820183905290519192507f3bb720dcc9b5b2218b19a41ca92774fd6a9308760642254fcdb9c7ccc7a42e7e919081900360600190a1600754604080517fa9059cbb000000000000000000000000000000000000000000000000000000008152336004820152602481018490529051600160a060020a039092169163a9059cbb916044808201926020929091908290030181600087803b1580156111e157600080fd5b505af11580156111f5573d6000803e3d6000fd5b505050506040513d602081101561120b57600080fd5b5060019250505b5090565b600754604080517f18160ddd0000000000000000000000000000000000000000000000000000000081529051600092600160a060020a0316916318160ddd91600480830192602092919082900301818787803b15801561076057600080fd5b600061127f610e8a565b151561128a57600080fd5b60025460ff161561129a57600080fd5b6040805133815234602082015281517f1b851e1031ef35a238e6c67d0c7991162390df915f70eaf9098dbf0b175a6198929181900390910190a150600190565b60006112e4610e8a565b15156112ef57600080fd5b60025460ff16156112ff57600080fd5b6106cb8261215b565b6000611312610e8a565b151561131d57600080fd5b60025460ff161561132d57600080fd5b6106cb8261219e565b60095481565b6000611346610e8a565b151561135157600080fd5b60025460ff161561136157600080fd5b6106cb82612209565b600b805460408051602060026001851615610100026000190190941693909304601f810184900484028201840190925281815292918301828280156113f05780601f106113c5576101008083540402835291602001916113f0565b820191906000526020600020905b8154815290600101906020018083116113d357829003601f168201915b505050505081565b600754604080517f95d89b410000000000000000000000000000000000000000000000000000000081529051606092600160a060020a0316916395d89b4191600480830192600092919082900301818387803b158015610dee57600080fd5b600c805460408051602060026001851615610100026000190190941693909304601f810184900484028201840190925281815292918301828280156113f05780601f106113c5576101008083540402835291602001916113f0565b6114ba610e8a565b15156114c557600080fd5b610ca08161224c565b80516114e190600b9060208401906126f0565b507f6323748ea0903b748f263a02c69f44e83a935eb5f60168a7355e63bbdadd0de933826040518083600160a060020a0316600160a060020a0316815260200180602001828103825283818151815260200191508051906020019080838360005b8381101561155a578181015183820152602001611542565b50505050905090810190601f1680156115875780820380516001836020036101000a031916815260200191505b50935050505060405180910390a150565b80516115ab90600c9060208401906126f0565b507fcdb7d8b258e95d8cd2c6e2ad9b710bdc2b0058ab23a5cd7ac339e1b2269e897b33826040518083600160a060020a0316600160a060020a0316815260200180602001828103825283818151815260200191508051906020019080838360008381101561155a578181015183820152602001611542565b6002546000906101009004600160a060020a0316158061165a5750600254611658906101009004600160a060020a03166122c9565b155b1561166b5761166960006122cd565b505b600260019054906101000a9004600160a060020a0316600160a060020a03166338cc48316040518163ffffffff1660e060020a028152600401602060405180830381600087803b1580156116be57600080fd5b505af11580156116d2573d6000803e3d6000fd5b505050506040513d60208110156116e857600080fd5b5051600354600160a060020a039081169116146117ab57600260019054906101000a9004600160a060020a0316600160a060020a03166338cc48316040518163ffffffff1660e060020a028152600401602060405180830381600087803b15801561175257600080fd5b505af1158015611766573d6000803e3d6000fd5b505050506040513d602081101561177c57600080fd5b50516003805473ffffffffffffffffffffffffffffffffffffffff1916600160a060020a039092169190911790555b600360009054906101000a9004600160a060020a0316600160a060020a031663c281d19e6040518163ffffffff1660e060020a028152600401602060405180830381600087803b15801561076057600080fd5b6000828180805b835181101561199b5783517f30000000000000000000000000000000000000000000000000000000000000009085908390811061183e57fe5b90602001015160f860020a900460f860020a027effffffffffffffffffffffffffffffffffffffffffffffffffffffffffffff1916101580156118e4575083517f3900000000000000000000000000000000000000000000000000000000000000908590839081106118ac57fe5b90602001015160f860020a900460f860020a027effffffffffffffffffffffffffffffffffffffffffffffffffffffffffffff191611155b1561193d578115611903578515156118fb5761199b565b600019909501945b600a830292506030848281518110151561191957fe5b90602001015160f860020a900460f860020a0260f860020a90040383019250611993565b838181518110151561194b57fe5b90602001015160f860020a900460f860020a027effffffffffffffffffffffffffffffffffffffffffffffffffffffffffffff1916602e60f860020a02141561199357600191505b600101611805565b60008611156119ad5785600a0a830292505b509095945050505050565b6000600160a060020a03821615156119cf57600080fd5b50600160a060020a03166000908152602091909152604090205460ff1690565b60025460009081906101009004600160a060020a03161580611a285750600254611a26906101009004600160a060020a03166122c9565b155b15611a3957611a3760006122cd565b505b600260019054906101000a9004600160a060020a0316600160a060020a03166338cc48316040518163ffffffff1660e060020a028152600401602060405180830381600087803b158015611a8c57600080fd5b505af1158015611aa0573d6000803e3d6000fd5b505050506040513d6020811015611ab657600080fd5b5051600354600160a060020a03908116911614611b7957600260019054906101000a9004600160a060020a0316600160a060020a03166338cc48316040518163ffffffff1660e060020a028152600401602060405180830381600087803b158015611b2057600080fd5b505af1158015611b34573d6000803e3d6000fd5b505050506040513d6020811015611b4a57600080fd5b50516003805473ffffffffffffffffffffffffffffffffffffffff1916600160a060020a039092169190911790555b6003546040517f524f3889000000000000000000000000000000000000000000000000000000008152602060048201818152875160248401528751600160a060020a039094169363524f388993899383926044909201919085019080838360005b83811015611bf2578181015183820152602001611bda565b50505050905090810190601f168015611c1f5780820380516001836020036101000a031916815260200191505b5092505050602060405180830381600087803b158015611c3e57600080fd5b505af1158015611c52573d6000803e3d6000fd5b505050506040513d6020811015611c6857600080fd5b50519050670de0b6b3a764000062030d403a0201811115611c8c5760009150611df6565b6003546040517fadf59f99000000000000000000000000000000000000000000000000000000008152600060048201818152606060248401908152885160648501528851600160a060020a039095169463adf59f99948794938b938b939192909160448201916084019060208701908083838b5b83811015611d18578181015183820152602001611d00565b50505050905090810190601f168015611d455780820380516001836020036101000a031916815260200191505b50838103825284518152845160209182019186019080838360005b83811015611d78578181015183820152602001611d60565b50505050905090810190601f168015611da55780820380516001836020036101000a031916815260200191505b50955050505050506020604051808303818588803b158015611dc657600080fd5b505af1158015611dda573d6000803e3d6000fd5b50505050506040513d6020811015611df157600080fd5b505191505b5092915050565b611e0e60018263ffffffff6122d716565b604051600160a060020a038216907fcd265ebaf09df2871cc7bd4133404a235ba12eff2041bb89d9c714a2621c7c7e90600090a250565b611e5660018263ffffffff61230e16565b604051600160a060020a038216907f6719d08c1888103bea251a4ed56406bd0c3e69723c8a1686e017e7bbe159b6f890600090a250565b6002546000906101009004600160a060020a03161580611ec45750600254611ec2906101009004600160a060020a03166122c9565b155b15611ed557611ed360006122cd565b505b600260019054906101000a9004600160a060020a0316600160a060020a03166338cc48316040518163ffffffff1660e060020a028152600401602060405180830381600087803b158015611f2857600080fd5b505af1158015611f3c573d6000803e3d6000fd5b505050506040513d6020811015611f5257600080fd5b5051600354600160a060020a0390811691161461201557600260019054906101000a9004600160a060020a0316600160a060020a03166338cc48316040518163ffffffff1660e060020a028152600401602060405180830381600087803b158015611fbc57600080fd5b505af1158015611fd0573d6000803e3d6000fd5b505050506040513d6020811015611fe657600080fd5b50516003805473ffffffffffffffffffffffffffffffffffffffff1916600160a060020a039092169190911790555b6003546040517f524f3889000000000000000000000000000000000000000000000000000000008152602060048201818152855160248401528551600160a060020a039094169363524f388993879383926044909201919085019080838360005b8381101561208e578181015183820152602001612076565b50505050905090810190601f1680156120bb5780820380516001836020036101000a031916815260200191505b5092505050602060405180830381600087803b1580156109a657600080fd5b6000808315156120ed5760009150611df6565b508282028284828115156120fd57fe5b041461210857600080fd5b9392505050565b60008080831161211e57600080fd5b828481151561212957fe5b04949350505050565b60008282018381101561210857600080fd5b6000808383111561215457600080fd5b5050900390565b6009819055604080513381526020810183905281517f238879033f65fd36b707914746ca37d674a78c13b57f9910026410681991c889929181900390910190a150565b60006121a8610701565b60ff16600a0a90506121c0818363ffffffff61210f16565b6008819055604080513381526020810185905280820192909252517f8e7e19c3c2da501e28433f232b7ab951190311c0f3b0a68c2467b9adb39a06e89181900360600190a15050565b600a819055604080513381526020810183905281517ff54418c9106b955e37b8f0994b7c8c325aad3c3ad503efc50a4ac10139c9e003929181900390910190a150565b600160a060020a038116151561226157600080fd5b60008054604051600160a060020a03808516939216917f8be0079c531659141344cd1fd0a4f28419497f9722a3daafe3b4186f6b6457e091a36000805473ffffffffffffffffffffffffffffffffffffffff1916600160a060020a0392909216919091179055565b3b90565b6000610a71612348565b600160a060020a03811615156122ec57600080fd5b600160a060020a0316600090815260209190915260409020805460ff19169055565b600160a060020a038116151561232357600080fd5b600160a060020a0316600090815260209190915260409020805460ff19166001179055565b600080612368731d3b2638a7cc9f2cb3d298a3da7a90b67e5506ed6122c9565b11156123e8576002805474ffffffffffffffffffffffffffffffffffffffff001916741d3b2638a7cc9f2cb3d298a3da7a90b67e5506ed0017905560408051808201909152600b81527f6574685f6d61696e6e657400000000000000000000000000000000000000000060208201526123e0906126d9565b50600161078f565b600061240773c03a2615d5efaf5f49f60b7bb6583eaec212fdf16122c9565b111561247f576002805474ffffffffffffffffffffffffffffffffffffffff00191674c03a2615d5efaf5f49f60b7bb6583eaec212fdf10017905560408051808201909152600c81527f6574685f726f707374656e33000000000000000000000000000000000000000060208201526123e0906126d9565b600061249e73b7a07bcf2ba2f2703b24c0691b5278999c59ac7e6122c9565b1115612516576002805474ffffffffffffffffffffffffffffffffffffffff00191674b7a07bcf2ba2f2703b24c0691b5278999c59ac7e0017905560408051808201909152600981527f6574685f6b6f76616e000000000000000000000000000000000000000000000060208201526123e0906126d9565b600061253573146500cfd35b22e4a392fe0adc06de1a1368ed486122c9565b11156125ad576002805474ffffffffffffffffffffffffffffffffffffffff00191674146500cfd35b22e4a392fe0adc06de1a1368ed480017905560408051808201909152600b81527f6574685f72696e6b65627900000000000000000000000000000000000000000060208201526123e0906126d9565b60006125cc736f485c8bf6fc43ea212e93bbf8ce046c7f1cb4756122c9565b111561260f57506002805474ffffffffffffffffffffffffffffffffffffffff001916746f485c8bf6fc43ea212e93bbf8ce046c7f1cb47500179055600161078f565b600061262e7320e12a1f859b3feae5fb2a0a32c18f5a65555bbf6122c9565b111561267157506002805474ffffffffffffffffffffffffffffffffffffffff0019167420e12a1f859b3feae5fb2a0a32c18f5a65555bbf00179055600161078f565b60006126907351efaf4c8b3c9afbd5ab9f4bbc82784ab6ef8faa6122c9565b11156126d357506002805474ffffffffffffffffffffffffffffffffffffffff0019167451efaf4c8b3c9afbd5ab9f4bbc82784ab6ef8faa00179055600161078f565b50600090565b80516126ec9060049060208401906126f0565b5050565b828054600181600116156101000203166002900490600052602060002090601f016020900481019282601f1061273157805160ff191683800117855561275e565b8280016001018555821561275e579182015b8281111561275e578251825591602001919060010190612743565b506112129261078f9250905b80821115611212576000815560010161276a5600a165627a7a723058202e2c3de0330680b2f5a0226069a040a6feeca5c9e0eade1ecb03a0e2d98835c30029",
  "source": "pragma solidity ^0.4.24;\n\nimport '../openzeppelin-solidity/contracts/ownership/Ownable.sol';\nimport '../openzeppelin-solidity/contracts/lifecycle/Pausable.sol';\nimport '../openzeppelin-solidity/contracts/math/SafeMath.sol';\n\nimport \"../ethereum-api/oraclizeAPI_0.4.25.sol\";\n\ninterface Token {\n  function totalSupply() external view returns (uint256);\n\n  function balanceOf(address owner) external view returns (uint256);\n\n  function name() external view returns(string);\n\n  function symbol() external view returns(string);\n\n  function decimals() external view returns(uint8);\n\n  function allowance(address owner, address spender) external view returns (uint256);\n\n  function transfer(address to, uint256 value) external returns (bool);\n\n  function approve(address spender, uint256 value) external returns (bool);\n}\n\ncontract ERC20TokenShop is Ownable, Pausable, usingOraclize {\n  using SafeMath for uint256;\n\n  Token tokenContract;\n\n  uint256 public exchangeRate;\n  uint256 public USDTETH;\n  uint256 public oracleTax;\n  string public queryURL;\n  string public oraclizePriceType;\n\n  event LogBuyToken(address eSender, uint256 eValue, uint256 eTokenAmount);\n  event LogSetExchangeRate(address eSender, uint256 eRate, uint256 eExchangeRate);\n  event LogSetETHXRateOverride(address eSender, uint256 eETHXRate);\n  event LogSetOracleTaxOverride(address eSender, uint256 eOracleTax);\n  event LogSetQueryURL(address eSender, string eQueryURL);\n  event LogSetOraclizePriceType(address eSender, string eOraclizePriceType);\n  event LogDeposit(address eSender, uint256 eValue);\n  event LogWithdraw(address eSender, uint256 eValue);\n  event LogSetETHXUpdated(address eSender, string eETHXRate);\n  event LogNewOraclizeQuery(string eOracleResponse);\n\n  //Default exchange rate is $1/Token\n  constructor(address _instance) public {\n    tokenContract = Token(_instance);\n    exchangeRate = 1000000000000000000;\n  }\n\n  //Token functions\n  function getTokenSupply()\n    public\n    view\n    returns (uint256)\n  {\n    return tokenContract.totalSupply();\n  }\n\n  function getTokenBalance(address _account)\n    public\n    view\n    returns (uint256)\n  {\n    return tokenContract.balanceOf(_account);\n  }\n\n  function getTokenName()\n    public\n    view\n    returns (string)\n  {\n    return tokenContract.name();\n  }\n\n  function getTokenSymbol()\n    public\n    view\n    returns (string)\n  {\n    return tokenContract.symbol();\n  }\n\n  function getTokenDecimals()\n    public\n    view\n    returns (uint8)\n  {\n    return tokenContract.decimals();\n  }\n\n  //User functions\n  function buyToken()\n    whenNotPaused\n    public\n    payable\n    returns (bool)\n  {\n    require(msg.value > 0);\n    require(tokenContract.balanceOf(address(this)) > 0);\n    //check not asking for more than stock\n    require(tokenContract.balanceOf(address(this)) >= msg.value);\n    //set Oracle Tax\n    oracleTax = oraclize_getPrice(oraclizePriceType); //URL\n    //check value is at least 1 cross rate token bit unit per wei\n    require(msg.value >= exchangeRate.mul(USDTETH).div(10**18).add(oracleTax));\n    //get updated ETH USD cross rate\n    updatePrice();\n    //wei to token bit conversion via dollars\n    //$ per ETH * ETH per wei * (1 / $ per tokenbit) = tokenbit per wei\n    uint256 _amount;\n    _amount = msg.value.mul(exchangeRate).mul(USDTETH).div(10**(18)).sub(oracleTax);\n    emit LogBuyToken(msg.sender, msg.value, _amount);\n    tokenContract.transfer(msg.sender, _amount);\n    return true;\n  }\n\n  //Oraclize implementation\n  function __callback(bytes32 myid, string result) {\n    require(msg.sender == oraclize_cbAddress());\n    USDTETH = parseInt(result, 0);\n    emit LogSetETHXUpdated(msg.sender, result);\n  }\n\n  //oraclize_query(\"URL\", \"json(https://api.gdax.com/products/ETH-USD/ticker).price\")\n  function updatePrice()\n    whenNotPaused\n    public\n    payable\n  {\n    emit LogNewOraclizeQuery(\"Oraclize query was sent, standing by for the answer...\");\n    oraclize_query(oraclizePriceType, queryURL);\n  }\n\n  //Shop functions\n  function getShopStock()\n    public\n    view\n    returns (uint256)\n  {\n    return tokenContract.balanceOf(address(this));\n  }\n\n  function getOracleTax()\n    public\n    view\n    returns (uint256)\n  {\n    return oracleTax;\n  }\n\n  //Exchange rate in Dollars (i.e. Tokens per dollar)\n  function setExchangeRate(uint256 _dollars_per_token)\n    onlyOwner\n    whenNotPaused\n    public\n    returns (bool)\n  {\n    _setExchangeRate(_dollars_per_token);\n    return true;\n  }\n\n  function setETHXRateOverride(uint256 _dollars_per_eth)\n    onlyOwner\n    whenNotPaused\n    public\n    returns (bool)\n  {\n    _setETHXRateOverride(_dollars_per_eth);\n    return true;\n  }\n\n  function setOracleTaxOverride(uint256 _oracleTax)\n    onlyOwner\n    whenNotPaused\n    public\n    returns (bool)\n  {\n      _setOracleTaxOverride(_oracleTax);\n      return true;\n  }\n\n  function setQueryURL(string _url)\n    onlyOwner\n    whenNotPaused\n    public\n    returns (bool)\n  {\n    _setQueryURL(_url);\n    return true;\n  }\n\n  function setOraclizePriceType(string _type)\n    onlyOwner\n    whenNotPaused\n    public\n    returns (bool)\n  {\n    _setOraclizePriceType(_type);\n    return true;\n  }\n\n  function deposit()\n    onlyOwner\n    whenNotPaused\n    payable\n    public\n    returns (bool)\n  {\n    emit LogDeposit(msg.sender, msg.value);\n    return true;\n  }\n\n  function withdraw(uint256 _amount)\n    onlyOwner\n    whenNotPaused\n    public\n    returns (bool)\n  {\n    require(address(this).balance >= _amount);\n    address _owner;\n    _owner = owner();\n    emit LogWithdraw(msg.sender, _amount);\n    _owner.transfer(_amount);\n    return true;\n  }\n\n  //Internal functions\n  function _setExchangeRate(uint256 _dollars_per_token)\n    internal\n  {\n    uint256 _decimals = getTokenDecimals();\n    _decimals = 10**(_decimals);\n    exchangeRate = _decimals.div(_dollars_per_token);\n    emit LogSetExchangeRate(msg.sender, _dollars_per_token, exchangeRate);\n  }\n\n  function _setETHXRateOverride(uint256 _dollars_per_eth)\n    internal\n  {\n    USDTETH = _dollars_per_eth;\n    emit LogSetETHXRateOverride(msg.sender, _dollars_per_eth);\n  }\n\n  function _setOracleTaxOverride(uint256 _oracleTax)\n    internal\n  {\n    oracleTax = _oracleTax;\n    emit LogSetOracleTaxOverride(msg.sender, _oracleTax);\n  }\n\n  function _setQueryURL(string _url)\n    internal\n  {\n    queryURL = _url;\n    emit LogSetQueryURL(msg.sender, _url);\n  }\n\n  function _setOraclizePriceType(string _type)\n    internal\n  {\n    oraclizePriceType = _type;\n    emit LogSetOraclizePriceType(msg.sender, _type);\n  }\n\n  function kill()\n    onlyOwner\n    public\n  {\n    selfdestruct(owner());\n  }\n\n\n}\n",
  "sourcePath": "/home/vagrant/DAPPS/tokenShopApp/contracts/ERC20TokenShop.sol",
  "compiler": {
    "name": "solc",
    "version": "0.4.24+commit.e67f0147.Emscripten.clang"
  },
  "schemaVersion": "2.0.1",
  "updatedAt": "2018-10-05T03:19:31.473Z"
}