{
  "contractName": "ERC20TobyToken",
  "abi": [
    {
      "constant": true,
      "inputs": [],
      "name": "name",
      "outputs": [
        {
          "name": "",
          "type": "string"
        }
      ],
      "payable": false,
      "stateMutability": "view",
      "type": "function"
    },
    {
      "constant": false,
      "inputs": [
        {
          "name": "spender",
          "type": "address"
        },
        {
          "name": "value",
          "type": "uint256"
        }
      ],
      "name": "approve",
      "outputs": [
        {
          "name": "",
          "type": "bool"
        }
      ],
      "payable": false,
      "stateMutability": "nonpayable",
      "type": "function"
    },
    {
      "constant": true,
      "inputs": [],
      "name": "totalSupply",
      "outputs": [
        {
          "name": "",
          "type": "uint256"
        }
      ],
      "payable": false,
      "stateMutability": "view",
      "type": "function"
    },
    {
      "constant": false,
      "inputs": [
        {
          "name": "from",
          "type": "address"
        },
        {
          "name": "to",
          "type": "address"
        },
        {
          "name": "value",
          "type": "uint256"
        }
      ],
      "name": "transferFrom",
      "outputs": [
        {
          "name": "",
          "type": "bool"
        }
      ],
      "payable": false,
      "stateMutability": "nonpayable",
      "type": "function"
    },
    {
      "constant": true,
      "inputs": [],
      "name": "decimals",
      "outputs": [
        {
          "name": "",
          "type": "uint8"
        }
      ],
      "payable": false,
      "stateMutability": "view",
      "type": "function"
    },
    {
      "constant": false,
      "inputs": [
        {
          "name": "spender",
          "type": "address"
        },
        {
          "name": "addedValue",
          "type": "uint256"
        }
      ],
      "name": "increaseAllowance",
      "outputs": [
        {
          "name": "success",
          "type": "bool"
        }
      ],
      "payable": false,
      "stateMutability": "nonpayable",
      "type": "function"
    },
    {
      "constant": false,
      "inputs": [],
      "name": "unpause",
      "outputs": [],
      "payable": false,
      "stateMutability": "nonpayable",
      "type": "function"
    },
    {
      "constant": false,
      "inputs": [
        {
          "name": "to",
          "type": "address"
        },
        {
          "name": "amount",
          "type": "uint256"
        }
      ],
      "name": "mint",
      "outputs": [
        {
          "name": "",
          "type": "bool"
        }
      ],
      "payable": false,
      "stateMutability": "nonpayable",
      "type": "function"
    },
    {
      "constant": false,
      "inputs": [
        {
          "name": "value",
          "type": "uint256"
        }
      ],
      "name": "burn",
      "outputs": [],
      "payable": false,
      "stateMutability": "nonpayable",
      "type": "function"
    },
    {
      "constant": true,
      "inputs": [
        {
          "name": "account",
          "type": "address"
        }
      ],
      "name": "isPauser",
      "outputs": [
        {
          "name": "",
          "type": "bool"
        }
      ],
      "payable": false,
      "stateMutability": "view",
      "type": "function"
    },
    {
      "constant": true,
      "inputs": [],
      "name": "paused",
      "outputs": [
        {
          "name": "",
          "type": "bool"
        }
      ],
      "payable": false,
      "stateMutability": "view",
      "type": "function"
    },
    {
      "constant": false,
      "inputs": [],
      "name": "renouncePauser",
      "outputs": [],
      "payable": false,
      "stateMutability": "nonpayable",
      "type": "function"
    },
    {
      "constant": true,
      "inputs": [
        {
          "name": "owner",
          "type": "address"
        }
      ],
      "name": "balanceOf",
      "outputs": [
        {
          "name": "",
          "type": "uint256"
        }
      ],
      "payable": false,
      "stateMutability": "view",
      "type": "function"
    },
    {
      "constant": false,
      "inputs": [
        {
          "name": "from",
          "type": "address"
        },
        {
          "name": "value",
          "type": "uint256"
        }
      ],
      "name": "burnFrom",
      "outputs": [],
      "payable": false,
      "stateMutability": "nonpayable",
      "type": "function"
    },
    {
      "constant": false,
      "inputs": [
        {
          "name": "account",
          "type": "address"
        }
      ],
      "name": "addPauser",
      "outputs": [],
      "payable": false,
      "stateMutability": "nonpayable",
      "type": "function"
    },
    {
      "constant": false,
      "inputs": [],
      "name": "pause",
      "outputs": [],
      "payable": false,
      "stateMutability": "nonpayable",
      "type": "function"
    },
    {
      "constant": true,
      "inputs": [],
      "name": "symbol",
      "outputs": [
        {
          "name": "",
          "type": "string"
        }
      ],
      "payable": false,
      "stateMutability": "view",
      "type": "function"
    },
    {
      "constant": false,
      "inputs": [
        {
          "name": "account",
          "type": "address"
        }
      ],
      "name": "addMinter",
      "outputs": [],
      "payable": false,
      "stateMutability": "nonpayable",
      "type": "function"
    },
    {
      "constant": false,
      "inputs": [],
      "name": "renounceMinter",
      "outputs": [],
      "payable": false,
      "stateMutability": "nonpayable",
      "type": "function"
    },
    {
      "constant": false,
      "inputs": [
        {
          "name": "spender",
          "type": "address"
        },
        {
          "name": "subtractedValue",
          "type": "uint256"
        }
      ],
      "name": "decreaseAllowance",
      "outputs": [
        {
          "name": "success",
          "type": "bool"
        }
      ],
      "payable": false,
      "stateMutability": "nonpayable",
      "type": "function"
    },
    {
      "constant": false,
      "inputs": [
        {
          "name": "to",
          "type": "address"
        },
        {
          "name": "value",
          "type": "uint256"
        }
      ],
      "name": "transfer",
      "outputs": [
        {
          "name": "",
          "type": "bool"
        }
      ],
      "payable": false,
      "stateMutability": "nonpayable",
      "type": "function"
    },
    {
      "constant": true,
      "inputs": [
        {
          "name": "account",
          "type": "address"
        }
      ],
      "name": "isMinter",
      "outputs": [
        {
          "name": "",
          "type": "bool"
        }
      ],
      "payable": false,
      "stateMutability": "view",
      "type": "function"
    },
    {
      "constant": true,
      "inputs": [
        {
          "name": "owner",
          "type": "address"
        },
        {
          "name": "spender",
          "type": "address"
        }
      ],
      "name": "allowance",
      "outputs": [
        {
          "name": "",
          "type": "uint256"
        }
      ],
      "payable": false,
      "stateMutability": "view",
      "type": "function"
    },
    {
      "inputs": [
        {
          "name": "name",
          "type": "string"
        },
        {
          "name": "symbol",
          "type": "string"
        },
        {
          "name": "decimals",
          "type": "uint8"
        }
      ],
      "payable": false,
      "stateMutability": "nonpayable",
      "type": "constructor"
    },
    {
      "anonymous": false,
      "inputs": [
        {
          "indexed": true,
          "name": "account",
          "type": "address"
        }
      ],
      "name": "MinterAdded",
      "type": "event"
    },
    {
      "anonymous": false,
      "inputs": [
        {
          "indexed": true,
          "name": "account",
          "type": "address"
        }
      ],
      "name": "MinterRemoved",
      "type": "event"
    },
    {
      "anonymous": false,
      "inputs": [],
      "name": "Paused",
      "type": "event"
    },
    {
      "anonymous": false,
      "inputs": [],
      "name": "Unpaused",
      "type": "event"
    },
    {
      "anonymous": false,
      "inputs": [
        {
          "indexed": true,
          "name": "account",
          "type": "address"
        }
      ],
      "name": "PauserAdded",
      "type": "event"
    },
    {
      "anonymous": false,
      "inputs": [
        {
          "indexed": true,
          "name": "account",
          "type": "address"
        }
      ],
      "name": "PauserRemoved",
      "type": "event"
    },
    {
      "anonymous": false,
      "inputs": [
        {
          "indexed": true,
          "name": "from",
          "type": "address"
        },
        {
          "indexed": true,
          "name": "to",
          "type": "address"
        },
        {
          "indexed": false,
          "name": "value",
          "type": "uint256"
        }
      ],
      "name": "Transfer",
      "type": "event"
    },
    {
      "anonymous": false,
      "inputs": [
        {
          "indexed": true,
          "name": "owner",
          "type": "address"
        },
        {
          "indexed": true,
          "name": "spender",
          "type": "address"
        },
        {
          "indexed": false,
          "name": "value",
          "type": "uint256"
        }
      ],
      "name": "Approval",
      "type": "event"
    }
  ],
  "bytecode": "0x60806040526007805460ff191690553480156200001b57600080fd5b506040516200124a3803806200124a8339810160409081528151602080840151928401519184018051909493909301928491849184916200006291600391860190620001a0565b50815162000078906004906020850190620001a0565b506005805460ff191660ff9290921691909117905550620000a4905033640100000000620000c1810204565b620000b83364010000000062000113810204565b50505062000245565b620000dc60068264010000000062000f8f6200016582021704565b604051600160a060020a038216907f6719d08c1888103bea251a4ed56406bd0c3e69723c8a1686e017e7bbe159b6f890600090a250565b6200012e60088264010000000062000f8f6200016582021704565b604051600160a060020a038216907f6ae172837ea30b801fbfcdd4108aa1d5bf8ff775444fd70256b44e6bf3dfc3f690600090a250565b600160a060020a03811615156200017b57600080fd5b600160a060020a0316600090815260209190915260409020805460ff19166001179055565b828054600181600116156101000203166002900490600052602060002090601f016020900481019282601f10620001e357805160ff191683800117855562000213565b8280016001018555821562000213579182015b8281111562000213578251825591602001919060010190620001f6565b506200022192915062000225565b5090565b6200024291905b808211156200022157600081556001016200022c565b90565b610ff580620002556000396000f3006080604052600436106101325763ffffffff7c010000000000000000000000000000000000000000000000000000000060003504166306fdde038114610137578063095ea7b3146101c157806318160ddd146101f957806323b872dd14610220578063313ce5671461024a57806339509351146102755780633f4ba83a1461029957806340c10f19146102b057806342966c68146102d457806346fbf68e146102ec5780635c975abb1461030d5780636ef8d66d1461032257806370a082311461033757806379cc67901461035857806382dc1ec41461037c5780638456cb591461039d57806395d89b41146103b2578063983b2d56146103c757806398650275146103e8578063a457c2d7146103fd578063a9059cbb14610421578063aa271e1a14610445578063dd62ed3e14610466575b600080fd5b34801561014357600080fd5b5061014c61048d565b6040805160208082528351818301528351919283929083019185019080838360005b8381101561018657818101518382015260200161016e565b50505050905090810190601f1680156101b35780820380516001836020036101000a031916815260200191505b509250505060405180910390f35b3480156101cd57600080fd5b506101e5600160a060020a0360043516602435610523565b604080519115158252519081900360200190f35b34801561020557600080fd5b5061020e610547565b60408051918252519081900360200190f35b34801561022c57600080fd5b506101e5600160a060020a036004358116906024351660443561054d565b34801561025657600080fd5b5061025f610573565b6040805160ff9092168252519081900360200190f35b34801561028157600080fd5b506101e5600160a060020a036004351660243561057c565b3480156102a557600080fd5b506102ae610599565b005b3480156102bc57600080fd5b506101e5600160a060020a03600435166024356105f3565b3480156102e057600080fd5b506102ae60043561061c565b3480156102f857600080fd5b506101e5600160a060020a0360043516610629565b34801561031957600080fd5b506101e5610642565b34801561032e57600080fd5b506102ae61064b565b34801561034357600080fd5b5061020e600160a060020a0360043516610656565b34801561036457600080fd5b506102ae600160a060020a0360043516602435610671565b34801561038857600080fd5b506102ae600160a060020a036004351661067f565b3480156103a957600080fd5b506102ae61069c565b3480156103be57600080fd5b5061014c6106f8565b3480156103d357600080fd5b506102ae600160a060020a0360043516610759565b3480156103f457600080fd5b506102ae610776565b34801561040957600080fd5b506101e5600160a060020a036004351660243561077f565b34801561042d57600080fd5b506101e5600160a060020a036004351660243561079c565b34801561045157600080fd5b506101e5600160a060020a03600435166107b9565b34801561047257600080fd5b5061020e600160a060020a03600435811690602435166107cc565b60038054604080516020601f60026000196101006001881615020190951694909404938401819004810282018101909252828152606093909290918301828280156105195780601f106104ee57610100808354040283529160200191610519565b820191906000526020600020905b8154815290600101906020018083116104fc57829003601f168201915b5050505050905090565b60075460009060ff161561053657600080fd5b61054083836107f7565b9392505050565b60025490565b60075460009060ff161561056057600080fd5b61056b848484610875565b949350505050565b60055460ff1690565b60075460009060ff161561058f57600080fd5b61054083836109ea565b6105a233610629565b15156105ad57600080fd5b60075460ff1615156105be57600080fd5b6007805460ff191690556040517fa45f47fdea8a1efdd9029a5691c7f759c32b7c698632b563573e155625d1693390600090a1565b60006105fe336107b9565b151561060957600080fd5b6106138383610a9a565b50600192915050565b6106263382610b44565b50565b600061063c60068363ffffffff610b4e16565b92915050565b60075460ff1690565b61065433610b85565b565b600160a060020a031660009081526020819052604090205490565b61067b8282610bcd565b5050565b61068833610629565b151561069357600080fd5b61062681610c5f565b6106a533610629565b15156106b057600080fd5b60075460ff16156106c057600080fd5b6007805460ff191660011790556040517f9e87fac88ff661f02d44f95383c817fece4bce600a3dab7a54406878b965e75290600090a1565b60048054604080516020601f60026000196101006001881615020190951694909404938401819004810282018101909252828152606093909290918301828280156105195780601f106104ee57610100808354040283529160200191610519565b610762336107b9565b151561076d57600080fd5b61062681610ca7565b61065433610cef565b60075460009060ff161561079257600080fd5b6105408383610d37565b60075460009060ff16156107af57600080fd5b6105408383610d82565b600061063c60088363ffffffff610b4e16565b600160a060020a03918216600090815260016020908152604080832093909416825291909152205490565b6000600160a060020a038316151561080e57600080fd5b336000818152600160209081526040808320600160a060020a03881680855290835292819020869055805186815290519293927f8c5be1e5ebec7d5bd14f71427d1e84f3dd0314c0f7b2291e5b200ac8c7c3b925929181900390910190a350600192915050565b600160a060020a03831660009081526020819052604081205482111561089a57600080fd5b600160a060020a03841660009081526001602090815260408083203384529091529020548211156108ca57600080fd5b600160a060020a03831615156108df57600080fd5b600160a060020a038416600090815260208190526040902054610908908363ffffffff610e6116565b600160a060020a03808616600090815260208190526040808220939093559085168152205461093d908363ffffffff610e7816565b600160a060020a0380851660009081526020818152604080832094909455918716815260018252828120338252909152205461097f908363ffffffff610e6116565b600160a060020a03808616600081815260016020908152604080832033845282529182902094909455805186815290519287169391927fddf252ad1be2c89b69c2b068fc378daa952ba7f163c4a11628f55a4df523b3ef929181900390910190a35060019392505050565b6000600160a060020a0383161515610a0157600080fd5b336000908152600160209081526040808320600160a060020a0387168452909152902054610a35908363ffffffff610e7816565b336000818152600160209081526040808320600160a060020a0389168085529083529281902085905580519485525191937f8c5be1e5ebec7d5bd14f71427d1e84f3dd0314c0f7b2291e5b200ac8c7c3b925929081900390910190a350600192915050565b600160a060020a0382161515610aaf57600080fd5b600254610ac2908263ffffffff610e7816565b600255600160a060020a038216600090815260208190526040902054610aee908263ffffffff610e7816565b600160a060020a0383166000818152602081815260408083209490945583518581529351929391927fddf252ad1be2c89b69c2b068fc378daa952ba7f163c4a11628f55a4df523b3ef9281900390910190a35050565b61067b8282610e8a565b6000600160a060020a0382161515610b6557600080fd5b50600160a060020a03166000908152602091909152604090205460ff1690565b610b9660068263ffffffff610f5816565b604051600160a060020a038216907fcd265ebaf09df2871cc7bd4133404a235ba12eff2041bb89d9c714a2621c7c7e90600090a250565b600160a060020a0382166000908152600160209081526040808320338452909152902054811115610bfd57600080fd5b600160a060020a0382166000908152600160209081526040808320338452909152902054610c31908263ffffffff610e6116565b600160a060020a038316600090815260016020908152604080832033845290915290205561067b8282610b44565b610c7060068263ffffffff610f8f16565b604051600160a060020a038216907f6719d08c1888103bea251a4ed56406bd0c3e69723c8a1686e017e7bbe159b6f890600090a250565b610cb860088263ffffffff610f8f16565b604051600160a060020a038216907f6ae172837ea30b801fbfcdd4108aa1d5bf8ff775444fd70256b44e6bf3dfc3f690600090a250565b610d0060088263ffffffff610f5816565b604051600160a060020a038216907fe94479a9f7e1952cc78f2d6baab678adc1b772d936c6583def489e524cb6669290600090a250565b6000600160a060020a0383161515610d4e57600080fd5b336000908152600160209081526040808320600160a060020a0387168452909152902054610a35908363ffffffff610e6116565b33600090815260208190526040812054821115610d9e57600080fd5b600160a060020a0383161515610db357600080fd5b33600090815260208190526040902054610dd3908363ffffffff610e6116565b3360009081526020819052604080822092909255600160a060020a03851681522054610e05908363ffffffff610e7816565b600160a060020a038416600081815260208181526040918290209390935580518581529051919233927fddf252ad1be2c89b69c2b068fc378daa952ba7f163c4a11628f55a4df523b3ef9281900390910190a350600192915050565b60008083831115610e7157600080fd5b5050900390565b60008282018381101561054057600080fd5b600160a060020a0382161515610e9f57600080fd5b600160a060020a038216600090815260208190526040902054811115610ec457600080fd5b600254610ed7908263ffffffff610e6116565b600255600160a060020a038216600090815260208190526040902054610f03908263ffffffff610e6116565b600160a060020a038316600081815260208181526040808320949094558351858152935191937fddf252ad1be2c89b69c2b068fc378daa952ba7f163c4a11628f55a4df523b3ef929081900390910190a35050565b600160a060020a0381161515610f6d57600080fd5b600160a060020a0316600090815260209190915260409020805460ff19169055565b600160a060020a0381161515610fa457600080fd5b600160a060020a0316600090815260209190915260409020805460ff191660011790555600a165627a7a7230582090de982a59b6ea0118812798bd81106045925ccca98460ce1074e3c797bbd6270029",
  "source": "pragma solidity ^0.4.24;\n\nimport '../openzeppelin-solidity/contracts/token/ERC20/ERC20.sol';\nimport '../openzeppelin-solidity/contracts/token/ERC20/ERC20Detailed.sol';\nimport '../openzeppelin-solidity/contracts/token/ERC20/ERC20Burnable.sol';\nimport '../openzeppelin-solidity/contracts/token/ERC20/ERC20Mintable.sol';\nimport '../openzeppelin-solidity/contracts/token/ERC20/ERC20Pausable.sol';\n\ncontract ERC20TobyToken is ERC20, ERC20Detailed, ERC20Pausable, ERC20Mintable, ERC20Burnable {\n\n  constructor(\n    string name,\n    string symbol,\n    uint8 decimals\n  )\n    ERC20Burnable()\n    ERC20Mintable()\n    ERC20Detailed(name,symbol,decimals)\n    ERC20()\n    public\n  {}\n\n}\n",
  "sourcePath": "/Users/talgya/DAPPS/tokenShopApp/contracts/ERC20TobyToken.sol",
  "compiler": {
    "name": "solc",
    "version": "0.4.26+commit.4563c3fc.Emscripten.clang"
  },
  "schemaVersion": "2.0.3",
  "updatedAt": "2019-10-30T20:03:27.293Z"
}