{
  "contractName": "ERC20Burnable",
  "abi": [
    {
      "constant": false,
      "inputs": [
        {
          "name": "spender",
          "type": "address"
        },
        {
          "name": "value",
          "type": "uint256"
        }
      ],
      "name": "approve",
      "outputs": [
        {
          "name": "",
          "type": "bool"
        }
      ],
      "payable": false,
      "stateMutability": "nonpayable",
      "type": "function"
    },
    {
      "constant": true,
      "inputs": [],
      "name": "totalSupply",
      "outputs": [
        {
          "name": "",
          "type": "uint256"
        }
      ],
      "payable": false,
      "stateMutability": "view",
      "type": "function"
    },
    {
      "constant": false,
      "inputs": [
        {
          "name": "from",
          "type": "address"
        },
        {
          "name": "to",
          "type": "address"
        },
        {
          "name": "value",
          "type": "uint256"
        }
      ],
      "name": "transferFrom",
      "outputs": [
        {
          "name": "",
          "type": "bool"
        }
      ],
      "payable": false,
      "stateMutability": "nonpayable",
      "type": "function"
    },
    {
      "constant": false,
      "inputs": [
        {
          "name": "spender",
          "type": "address"
        },
        {
          "name": "addedValue",
          "type": "uint256"
        }
      ],
      "name": "increaseAllowance",
      "outputs": [
        {
          "name": "",
          "type": "bool"
        }
      ],
      "payable": false,
      "stateMutability": "nonpayable",
      "type": "function"
    },
    {
      "constant": true,
      "inputs": [
        {
          "name": "owner",
          "type": "address"
        }
      ],
      "name": "balanceOf",
      "outputs": [
        {
          "name": "",
          "type": "uint256"
        }
      ],
      "payable": false,
      "stateMutability": "view",
      "type": "function"
    },
    {
      "constant": false,
      "inputs": [
        {
          "name": "spender",
          "type": "address"
        },
        {
          "name": "subtractedValue",
          "type": "uint256"
        }
      ],
      "name": "decreaseAllowance",
      "outputs": [
        {
          "name": "",
          "type": "bool"
        }
      ],
      "payable": false,
      "stateMutability": "nonpayable",
      "type": "function"
    },
    {
      "constant": false,
      "inputs": [
        {
          "name": "to",
          "type": "address"
        },
        {
          "name": "value",
          "type": "uint256"
        }
      ],
      "name": "transfer",
      "outputs": [
        {
          "name": "",
          "type": "bool"
        }
      ],
      "payable": false,
      "stateMutability": "nonpayable",
      "type": "function"
    },
    {
      "constant": true,
      "inputs": [
        {
          "name": "owner",
          "type": "address"
        },
        {
          "name": "spender",
          "type": "address"
        }
      ],
      "name": "allowance",
      "outputs": [
        {
          "name": "",
          "type": "uint256"
        }
      ],
      "payable": false,
      "stateMutability": "view",
      "type": "function"
    },
    {
      "anonymous": false,
      "inputs": [
        {
          "indexed": true,
          "name": "from",
          "type": "address"
        },
        {
          "indexed": true,
          "name": "to",
          "type": "address"
        },
        {
          "indexed": false,
          "name": "value",
          "type": "uint256"
        }
      ],
      "name": "Transfer",
      "type": "event"
    },
    {
      "anonymous": false,
      "inputs": [
        {
          "indexed": true,
          "name": "owner",
          "type": "address"
        },
        {
          "indexed": true,
          "name": "spender",
          "type": "address"
        },
        {
          "indexed": false,
          "name": "value",
          "type": "uint256"
        }
      ],
      "name": "Approval",
      "type": "event"
    },
    {
      "constant": false,
      "inputs": [
        {
          "name": "value",
          "type": "uint256"
        }
      ],
      "name": "burn",
      "outputs": [],
      "payable": false,
      "stateMutability": "nonpayable",
      "type": "function"
    },
    {
      "constant": false,
      "inputs": [
        {
          "name": "from",
          "type": "address"
        },
        {
          "name": "value",
          "type": "uint256"
        }
      ],
      "name": "burnFrom",
      "outputs": [],
      "payable": false,
      "stateMutability": "nonpayable",
      "type": "function"
    }
  ],
  "bytecode": "0x608060405234801561001057600080fd5b5061081d806100206000396000f3006080604052600436106100a35763ffffffff7c0100000000000000000000000000000000000000000000000000000000600035041663095ea7b381146100a857806318160ddd146100e057806323b872dd14610107578063395093511461013157806342966c681461015557806370a082311461016f57806379cc679014610190578063a457c2d7146101b4578063a9059cbb146101d8578063dd62ed3e146101fc575b600080fd5b3480156100b457600080fd5b506100cc600160a060020a0360043516602435610223565b604080519115158252519081900360200190f35b3480156100ec57600080fd5b506100f56102a1565b60408051918252519081900360200190f35b34801561011357600080fd5b506100cc600160a060020a03600435811690602435166044356102a7565b34801561013d57600080fd5b506100cc600160a060020a036004351660243561041c565b34801561016157600080fd5b5061016d6004356104cc565b005b34801561017b57600080fd5b506100f5600160a060020a03600435166104d9565b34801561019c57600080fd5b5061016d600160a060020a03600435166024356104f4565b3480156101c057600080fd5b506100cc600160a060020a0360043516602435610502565b3480156101e457600080fd5b506100cc600160a060020a036004351660243561054d565b34801561020857600080fd5b506100f5600160a060020a036004358116906024351661062c565b6000600160a060020a038316151561023a57600080fd5b336000818152600160209081526040808320600160a060020a03881680855290835292819020869055805186815290519293927f8c5be1e5ebec7d5bd14f71427d1e84f3dd0314c0f7b2291e5b200ac8c7c3b925929181900390910190a350600192915050565b60025490565b600160a060020a0383166000908152602081905260408120548211156102cc57600080fd5b600160a060020a03841660009081526001602090815260408083203384529091529020548211156102fc57600080fd5b600160a060020a038316151561031157600080fd5b600160a060020a03841660009081526020819052604090205461033a908363ffffffff61065716565b600160a060020a03808616600090815260208190526040808220939093559085168152205461036f908363ffffffff61066e16565b600160a060020a038085166000908152602081815260408083209490945591871681526001825282812033825290915220546103b1908363ffffffff61065716565b600160a060020a03808616600081815260016020908152604080832033845282529182902094909455805186815290519287169391927fddf252ad1be2c89b69c2b068fc378daa952ba7f163c4a11628f55a4df523b3ef929181900390910190a35060019392505050565b6000600160a060020a038316151561043357600080fd5b336000908152600160209081526040808320600160a060020a0387168452909152902054610467908363ffffffff61066e16565b336000818152600160209081526040808320600160a060020a0389168085529083529281902085905580519485525191937f8c5be1e5ebec7d5bd14f71427d1e84f3dd0314c0f7b2291e5b200ac8c7c3b925929081900390910190a350600192915050565b6104d63382610687565b50565b600160a060020a031660009081526020819052604090205490565b6104fe8282610691565b5050565b6000600160a060020a038316151561051957600080fd5b336000908152600160209081526040808320600160a060020a0387168452909152902054610467908363ffffffff61065716565b3360009081526020819052604081205482111561056957600080fd5b600160a060020a038316151561057e57600080fd5b3360009081526020819052604090205461059e908363ffffffff61065716565b3360009081526020819052604080822092909255600160a060020a038516815220546105d0908363ffffffff61066e16565b600160a060020a038416600081815260208181526040918290209390935580518581529051919233927fddf252ad1be2c89b69c2b068fc378daa952ba7f163c4a11628f55a4df523b3ef9281900390910190a350600192915050565b600160a060020a03918216600090815260016020908152604080832093909416825291909152205490565b6000808383111561066757600080fd5b5050900390565b60008282018381101561068057600080fd5b9392505050565b6104fe8282610723565b600160a060020a03821660009081526001602090815260408083203384529091529020548111156106c157600080fd5b600160a060020a03821660009081526001602090815260408083203384529091529020546106f5908263ffffffff61065716565b600160a060020a03831660009081526001602090815260408083203384529091529020556104fe8282610687565b600160a060020a038216151561073857600080fd5b600160a060020a03821660009081526020819052604090205481111561075d57600080fd5b600254610770908263ffffffff61065716565b600255600160a060020a03821660009081526020819052604090205461079c908263ffffffff61065716565b600160a060020a038316600081815260208181526040808320949094558351858152935191937fddf252ad1be2c89b69c2b068fc378daa952ba7f163c4a11628f55a4df523b3ef929081900390910190a350505600a165627a7a723058201329af536d4fe397dc8083461197f552b82d1a7a122456ec1b627a713d58de010029",
  "source": "pragma solidity ^0.4.24;\n\nimport \"./ERC20.sol\";\n\n\n/**\n * @title Burnable Token\n * @dev Token that can be irreversibly burned (destroyed).\n */\ncontract ERC20Burnable is ERC20 {\n\n  /**\n   * @dev Burns a specific amount of tokens.\n   * @param value The amount of token to be burned.\n   */\n  function burn(uint256 value) public {\n    _burn(msg.sender, value);\n  }\n\n  /**\n   * @dev Burns a specific amount of tokens from the target address and decrements allowance\n   * @param from address The address which you want to send tokens from\n   * @param value uint256 The amount of token to be burned\n   */\n  function burnFrom(address from, uint256 value) public {\n    _burnFrom(from, value);\n  }\n\n  /**\n   * @dev Overrides ERC20._burn in order for burn and burnFrom to emit\n   * an additional Burn event.\n   */\n  function _burn(address who, uint256 value) internal {\n    super._burn(who, value);\n  }\n}\n",
  "sourcePath": "openzeppelin-solidity/contracts/token/ERC20/ERC20Burnable.sol",
  "compiler": {
    "name": "solc",
    "version": "0.4.24+commit.e67f0147.Emscripten.clang"
  },
  "schemaVersion": "2.0.1",
  "updatedAt": "2018-09-13T16:02:37.986Z"
}