{
  "contractName": "MinterRole",
  "abi": [
    {
      "inputs": [],
      "payable": false,
      "stateMutability": "nonpayable",
      "type": "constructor"
    },
    {
      "anonymous": false,
      "inputs": [
        {
          "indexed": true,
          "name": "account",
          "type": "address"
        }
      ],
      "name": "MinterAdded",
      "type": "event"
    },
    {
      "anonymous": false,
      "inputs": [
        {
          "indexed": true,
          "name": "account",
          "type": "address"
        }
      ],
      "name": "MinterRemoved",
      "type": "event"
    },
    {
      "constant": true,
      "inputs": [
        {
          "name": "account",
          "type": "address"
        }
      ],
      "name": "isMinter",
      "outputs": [
        {
          "name": "",
          "type": "bool"
        }
      ],
      "payable": false,
      "stateMutability": "view",
      "type": "function"
    },
    {
      "constant": false,
      "inputs": [
        {
          "name": "account",
          "type": "address"
        }
      ],
      "name": "addMinter",
      "outputs": [],
      "payable": false,
      "stateMutability": "nonpayable",
      "type": "function"
    },
    {
      "constant": false,
      "inputs": [],
      "name": "renounceMinter",
      "outputs": [],
      "payable": false,
      "stateMutability": "nonpayable",
      "type": "function"
    }
  ],
  "bytecode": "0x608060405234801561001057600080fd5b5061002960003364010000000061017661002e82021704565b610068565b600160a060020a038116151561004357600080fd5b600160a060020a0316600090815260209190915260409020805460ff19166001179055565b610298806100776000396000f3006080604052600436106100565763ffffffff7c0100000000000000000000000000000000000000000000000000000000600035041663983b2d56811461005b578063986502751461008b578063aa271e1a146100a0575b600080fd5b34801561006757600080fd5b5061008973ffffffffffffffffffffffffffffffffffffffff600435166100e2565b005b34801561009757600080fd5b5061008961014b565b3480156100ac57600080fd5b506100ce73ffffffffffffffffffffffffffffffffffffffff6004351661015e565b604080519115158252519081900360200190f35b6100eb3361015e565b15156100f657600080fd5b61010760008263ffffffff61017616565b60405173ffffffffffffffffffffffffffffffffffffffff8216907f6ae172837ea30b801fbfcdd4108aa1d5bf8ff775444fd70256b44e6bf3dfc3f690600090a250565b61015c60003363ffffffff6101ca16565b565b6000610170818363ffffffff61021b16565b92915050565b73ffffffffffffffffffffffffffffffffffffffff8116151561019857600080fd5b73ffffffffffffffffffffffffffffffffffffffff16600090815260209190915260409020805460ff19166001179055565b73ffffffffffffffffffffffffffffffffffffffff811615156101ec57600080fd5b73ffffffffffffffffffffffffffffffffffffffff16600090815260209190915260409020805460ff19169055565b600073ffffffffffffffffffffffffffffffffffffffff8216151561023f57600080fd5b5073ffffffffffffffffffffffffffffffffffffffff166000908152602091909152604090205460ff16905600a165627a7a72305820ea39cddb89eccc68298538f5c8a2dc66d6bb5b2a00ada7917085ee3e98c2d9dc0029",
  "source": "pragma solidity ^0.4.24;\n\nimport \"../Roles.sol\";\n\n\ncontract MinterRole {\n  using Roles for Roles.Role;\n\n  event MinterAdded(address indexed account);\n  event MinterRemoved(address indexed account);\n\n  Roles.Role private minters;\n\n  constructor() public {\n    minters.add(msg.sender);\n  }\n\n  modifier onlyMinter() {\n    require(isMinter(msg.sender));\n    _;\n  }\n\n  function isMinter(address account) public view returns (bool) {\n    return minters.has(account);\n  }\n\n  function addMinter(address account) public onlyMinter {\n    minters.add(account);\n    emit MinterAdded(account);\n  }\n\n  function renounceMinter() public {\n    minters.remove(msg.sender);\n  }\n\n  function _removeMinter(address account) internal {\n    minters.remove(account);\n    emit MinterRemoved(account);\n  }\n}\n",
  "sourcePath": "openzeppelin-solidity/contracts/access/roles/MinterRole.sol",
  "compiler": {
    "name": "solc",
    "version": "0.4.24+commit.e67f0147.Emscripten.clang"
  },
  "schemaVersion": "2.0.1",
  "updatedAt": "2018-09-13T16:02:37.986Z"
}