{
  "contractName": "MinterRole",
  "abi": [
    {
      "inputs": [],
      "payable": false,
      "stateMutability": "nonpayable",
      "type": "constructor"
    },
    {
      "anonymous": false,
      "inputs": [
        {
          "indexed": true,
          "name": "account",
          "type": "address"
        }
      ],
      "name": "MinterAdded",
      "type": "event"
    },
    {
      "anonymous": false,
      "inputs": [
        {
          "indexed": true,
          "name": "account",
          "type": "address"
        }
      ],
      "name": "MinterRemoved",
      "type": "event"
    },
    {
      "constant": true,
      "inputs": [
        {
          "name": "account",
          "type": "address"
        }
      ],
      "name": "isMinter",
      "outputs": [
        {
          "name": "",
          "type": "bool"
        }
      ],
      "payable": false,
      "stateMutability": "view",
      "type": "function"
    },
    {
      "constant": false,
      "inputs": [
        {
          "name": "account",
          "type": "address"
        }
      ],
      "name": "addMinter",
      "outputs": [],
      "payable": false,
      "stateMutability": "nonpayable",
      "type": "function"
    },
    {
      "constant": false,
      "inputs": [],
      "name": "renounceMinter",
      "outputs": [],
      "payable": false,
      "stateMutability": "nonpayable",
      "type": "function"
    }
  ],
  "bytecode": "0x608060405234801561001057600080fd5b5061002333640100000000610028810204565b6100b1565b61004060008264010000000061022061007782021704565b604051600160a060020a038216907f6ae172837ea30b801fbfcdd4108aa1d5bf8ff775444fd70256b44e6bf3dfc3f690600090a250565b600160a060020a038116151561008c57600080fd5b600160a060020a0316600090815260209190915260409020805460ff19166001179055565b6102f1806100c06000396000f3006080604052600436106100565763ffffffff7c0100000000000000000000000000000000000000000000000000000000600035041663983b2d56811461005b578063986502751461008b578063aa271e1a146100a0575b600080fd5b34801561006757600080fd5b5061008973ffffffffffffffffffffffffffffffffffffffff600435166100e2565b005b34801561009757600080fd5b50610089610102565b3480156100ac57600080fd5b506100ce73ffffffffffffffffffffffffffffffffffffffff6004351661010d565b604080519115158252519081900360200190f35b6100eb3361010d565b15156100f657600080fd5b6100ff81610125565b50565b61010b3361017a565b565b600061011f818363ffffffff6101cf16565b92915050565b61013660008263ffffffff61022016565b60405173ffffffffffffffffffffffffffffffffffffffff8216907f6ae172837ea30b801fbfcdd4108aa1d5bf8ff775444fd70256b44e6bf3dfc3f690600090a250565b61018b60008263ffffffff61027416565b60405173ffffffffffffffffffffffffffffffffffffffff8216907fe94479a9f7e1952cc78f2d6baab678adc1b772d936c6583def489e524cb6669290600090a250565b600073ffffffffffffffffffffffffffffffffffffffff821615156101f357600080fd5b5073ffffffffffffffffffffffffffffffffffffffff166000908152602091909152604090205460ff1690565b73ffffffffffffffffffffffffffffffffffffffff8116151561024257600080fd5b73ffffffffffffffffffffffffffffffffffffffff16600090815260209190915260409020805460ff19166001179055565b73ffffffffffffffffffffffffffffffffffffffff8116151561029657600080fd5b73ffffffffffffffffffffffffffffffffffffffff16600090815260209190915260409020805460ff191690555600a165627a7a723058203b460674d4845cb61bda27d0c24764f91bde073739e4d8d45f9c68220b5b0b490029",
  "source": "pragma solidity ^0.4.24;\n\nimport \"../Roles.sol\";\n\ncontract MinterRole {\n  using Roles for Roles.Role;\n\n  event MinterAdded(address indexed account);\n  event MinterRemoved(address indexed account);\n\n  Roles.Role private minters;\n\n  constructor() public {\n    _addMinter(msg.sender);\n  }\n\n  modifier onlyMinter() {\n    require(isMinter(msg.sender));\n    _;\n  }\n\n  function isMinter(address account) public view returns (bool) {\n    return minters.has(account);\n  }\n\n  function addMinter(address account) public onlyMinter {\n    _addMinter(account);\n  }\n\n  function renounceMinter() public {\n    _removeMinter(msg.sender);\n  }\n\n  function _addMinter(address account) internal {\n    minters.add(account);\n    emit MinterAdded(account);\n  }\n\n  function _removeMinter(address account) internal {\n    minters.remove(account);\n    emit MinterRemoved(account);\n  }\n}\n",
  "sourcePath": "/home/vagrant/DAPPS/tokenShopApp/openzeppelin-solidity/contracts/access/roles/MinterRole.sol",
  "compiler": {
    "name": "solc",
    "version": "0.4.24+commit.e67f0147.Emscripten.clang"
  },
  "schemaVersion": "2.0.1",
  "updatedAt": "2018-09-30T02:00:21.754Z"
}