{
  "contractName": "Pausable",
  "abi": [
    {
      "constant": true,
      "inputs": [
        {
          "name": "account",
          "type": "address"
        }
      ],
      "name": "isPauser",
      "outputs": [
        {
          "name": "",
          "type": "bool"
        }
      ],
      "payable": false,
      "stateMutability": "view",
      "type": "function"
    },
    {
      "constant": false,
      "inputs": [],
      "name": "renouncePauser",
      "outputs": [],
      "payable": false,
      "stateMutability": "nonpayable",
      "type": "function"
    },
    {
      "constant": false,
      "inputs": [
        {
          "name": "account",
          "type": "address"
        }
      ],
      "name": "addPauser",
      "outputs": [],
      "payable": false,
      "stateMutability": "nonpayable",
      "type": "function"
    },
    {
      "anonymous": false,
      "inputs": [],
      "name": "Paused",
      "type": "event"
    },
    {
      "anonymous": false,
      "inputs": [],
      "name": "Unpaused",
      "type": "event"
    },
    {
      "anonymous": false,
      "inputs": [
        {
          "indexed": true,
          "name": "account",
          "type": "address"
        }
      ],
      "name": "PauserAdded",
      "type": "event"
    },
    {
      "anonymous": false,
      "inputs": [
        {
          "indexed": true,
          "name": "account",
          "type": "address"
        }
      ],
      "name": "PauserRemoved",
      "type": "event"
    },
    {
      "constant": true,
      "inputs": [],
      "name": "paused",
      "outputs": [
        {
          "name": "",
          "type": "bool"
        }
      ],
      "payable": false,
      "stateMutability": "view",
      "type": "function"
    },
    {
      "constant": false,
      "inputs": [],
      "name": "pause",
      "outputs": [],
      "payable": false,
      "stateMutability": "nonpayable",
      "type": "function"
    },
    {
      "constant": false,
      "inputs": [],
      "name": "unpause",
      "outputs": [],
      "payable": false,
      "stateMutability": "nonpayable",
      "type": "function"
    }
  ],
  "bytecode": "0x60806040526001805460ff1916905561002033640100000000610025810204565b6100ae565b61003d60008264010000000061038f61007482021704565b604051600160a060020a038216907f6719d08c1888103bea251a4ed56406bd0c3e69723c8a1686e017e7bbe159b6f890600090a250565b600160a060020a038116151561008957600080fd5b600160a060020a0316600090815260209190915260409020805460ff19166001179055565b61040f806100bd6000396000f3006080604052600436106100775763ffffffff7c01000000000000000000000000000000000000000000000000000000006000350416633f4ba83a811461007c57806346fbf68e146100935780635c975abb146100d55780636ef8d66d146100ea57806382dc1ec4146100ff5780638456cb591461012d575b600080fd5b34801561008857600080fd5b50610091610142565b005b34801561009f57600080fd5b506100c173ffffffffffffffffffffffffffffffffffffffff6004351661019c565b604080519115158252519081900360200190f35b3480156100e157600080fd5b506100c16101b4565b3480156100f657600080fd5b506100916101bd565b34801561010b57600080fd5b5061009173ffffffffffffffffffffffffffffffffffffffff600435166101c8565b34801561013957600080fd5b506100916101e8565b61014b3361019c565b151561015657600080fd5b60015460ff16151561016757600080fd5b6001805460ff191690556040517fa45f47fdea8a1efdd9029a5691c7f759c32b7c698632b563573e155625d1693390600090a1565b60006101ae818363ffffffff61024316565b92915050565b60015460ff1690565b6101c633610294565b565b6101d13361019c565b15156101dc57600080fd5b6101e5816102e9565b50565b6101f13361019c565b15156101fc57600080fd5b60015460ff161561020c57600080fd5b6001805460ff1916811790556040517f9e87fac88ff661f02d44f95383c817fece4bce600a3dab7a54406878b965e75290600090a1565b600073ffffffffffffffffffffffffffffffffffffffff8216151561026757600080fd5b5073ffffffffffffffffffffffffffffffffffffffff166000908152602091909152604090205460ff1690565b6102a560008263ffffffff61033e16565b60405173ffffffffffffffffffffffffffffffffffffffff8216907fcd265ebaf09df2871cc7bd4133404a235ba12eff2041bb89d9c714a2621c7c7e90600090a250565b6102fa60008263ffffffff61038f16565b60405173ffffffffffffffffffffffffffffffffffffffff8216907f6719d08c1888103bea251a4ed56406bd0c3e69723c8a1686e017e7bbe159b6f890600090a250565b73ffffffffffffffffffffffffffffffffffffffff8116151561036057600080fd5b73ffffffffffffffffffffffffffffffffffffffff16600090815260209190915260409020805460ff19169055565b73ffffffffffffffffffffffffffffffffffffffff811615156103b157600080fd5b73ffffffffffffffffffffffffffffffffffffffff16600090815260209190915260409020805460ff191660011790555600a165627a7a7230582061cbbf97cfd679f1651713107818c7da71951f0d00f1cc2b686370007b8f7b840029",
  "source": "pragma solidity ^0.4.24;\n\nimport \"../access/roles/PauserRole.sol\";\n\n/**\n * @title Pausable\n * @dev Base contract which allows children to implement an emergency stop mechanism.\n */\ncontract Pausable is PauserRole {\n  event Paused();\n  event Unpaused();\n\n  bool private _paused = false;\n\n  /**\n   * @return true if the contract is paused, false otherwise.\n   */\n  function paused() public view returns(bool) {\n    return _paused;\n  }\n\n  /**\n   * @dev Modifier to make a function callable only when the contract is not paused.\n   */\n  modifier whenNotPaused() {\n    require(!_paused);\n    _;\n  }\n\n  /**\n   * @dev Modifier to make a function callable only when the contract is paused.\n   */\n  modifier whenPaused() {\n    require(_paused);\n    _;\n  }\n\n  /**\n   * @dev called by the owner to pause, triggers stopped state\n   */\n  function pause() public onlyPauser whenNotPaused {\n    _paused = true;\n    emit Paused();\n  }\n\n  /**\n   * @dev called by the owner to unpause, returns to normal state\n   */\n  function unpause() public onlyPauser whenPaused {\n    _paused = false;\n    emit Unpaused();\n  }\n}\n",
  "sourcePath": "/Users/talgya/DAPPS/tokenShopApp/openzeppelin-solidity/contracts/lifecycle/Pausable.sol",
  "compiler": {
    "name": "solc",
    "version": "0.4.26+commit.4563c3fc.Emscripten.clang"
  },
  "schemaVersion": "2.0.3",
  "updatedAt": "2019-10-30T20:03:27.287Z"
}