{
  "contractName": "PauserRole",
  "abi": [
    {
      "inputs": [],
      "payable": false,
      "stateMutability": "nonpayable",
      "type": "constructor"
    },
    {
      "anonymous": false,
      "inputs": [
        {
          "indexed": true,
          "name": "account",
          "type": "address"
        }
      ],
      "name": "PauserAdded",
      "type": "event"
    },
    {
      "anonymous": false,
      "inputs": [
        {
          "indexed": true,
          "name": "account",
          "type": "address"
        }
      ],
      "name": "PauserRemoved",
      "type": "event"
    },
    {
      "constant": true,
      "inputs": [
        {
          "name": "account",
          "type": "address"
        }
      ],
      "name": "isPauser",
      "outputs": [
        {
          "name": "",
          "type": "bool"
        }
      ],
      "payable": false,
      "stateMutability": "view",
      "type": "function"
    },
    {
      "constant": false,
      "inputs": [
        {
          "name": "account",
          "type": "address"
        }
      ],
      "name": "addPauser",
      "outputs": [],
      "payable": false,
      "stateMutability": "nonpayable",
      "type": "function"
    },
    {
      "constant": false,
      "inputs": [],
      "name": "renouncePauser",
      "outputs": [],
      "payable": false,
      "stateMutability": "nonpayable",
      "type": "function"
    }
  ],
  "bytecode": "0x608060405234801561001057600080fd5b5061002960003364010000000061021861002e82021704565b610068565b600160a060020a038116151561004357600080fd5b600160a060020a0316600090815260209190915260409020805460ff19166001179055565b610298806100776000396000f3006080604052600436106100565763ffffffff7c010000000000000000000000000000000000000000000000000000000060003504166346fbf68e811461005b5780636ef8d66d1461009d57806382dc1ec4146100b4575b600080fd5b34801561006757600080fd5b5061008973ffffffffffffffffffffffffffffffffffffffff600435166100e2565b604080519115158252519081900360200190f35b3480156100a957600080fd5b506100b26100fa565b005b3480156100c057600080fd5b506100b273ffffffffffffffffffffffffffffffffffffffff6004351661010d565b60006100f4818363ffffffff61017616565b92915050565b61010b60003363ffffffff6101c716565b565b610116336100e2565b151561012157600080fd5b61013260008263ffffffff61021816565b60405173ffffffffffffffffffffffffffffffffffffffff8216907f6719d08c1888103bea251a4ed56406bd0c3e69723c8a1686e017e7bbe159b6f890600090a250565b600073ffffffffffffffffffffffffffffffffffffffff8216151561019a57600080fd5b5073ffffffffffffffffffffffffffffffffffffffff166000908152602091909152604090205460ff1690565b73ffffffffffffffffffffffffffffffffffffffff811615156101e957600080fd5b73ffffffffffffffffffffffffffffffffffffffff16600090815260209190915260409020805460ff19169055565b73ffffffffffffffffffffffffffffffffffffffff8116151561023a57600080fd5b73ffffffffffffffffffffffffffffffffffffffff16600090815260209190915260409020805460ff191660011790555600a165627a7a72305820f002313e6dda87380e346b5f68b10964eaed4e076d678441b5f0d8a962ea19c00029",
  "source": "pragma solidity ^0.4.24;\n\nimport \"../Roles.sol\";\n\n\ncontract PauserRole {\n  using Roles for Roles.Role;\n\n  event PauserAdded(address indexed account);\n  event PauserRemoved(address indexed account);\n\n  Roles.Role private pausers;\n\n  constructor() public {\n    pausers.add(msg.sender);\n  }\n\n  modifier onlyPauser() {\n    require(isPauser(msg.sender));\n    _;\n  }\n\n  function isPauser(address account) public view returns (bool) {\n    return pausers.has(account);\n  }\n\n  function addPauser(address account) public onlyPauser {\n    pausers.add(account);\n    emit PauserAdded(account);\n  }\n\n  function renouncePauser() public {\n    pausers.remove(msg.sender);\n  }\n\n  function _removePauser(address account) internal {\n    pausers.remove(account);\n    emit PauserRemoved(account);\n  }\n}\n",
  "sourcePath": "openzeppelin-solidity/contracts/access/roles/PauserRole.sol",
  "compiler": {
    "name": "solc",
    "version": "0.4.24+commit.e67f0147.Emscripten.clang"
  },
  "schemaVersion": "2.0.1",
  "updatedAt": "2018-09-28T01:53:28.044Z"
}