{
  "contractName": "Pausable",
  "abi": [
    {
      "constant": true,
      "inputs": [
        {
          "name": "account",
          "type": "address"
        }
      ],
      "name": "isPauser",
      "outputs": [
        {
          "name": "",
          "type": "bool"
        }
      ],
      "payable": false,
      "stateMutability": "view",
      "type": "function"
    },
    {
      "constant": false,
      "inputs": [],
      "name": "renouncePauser",
      "outputs": [],
      "payable": false,
      "stateMutability": "nonpayable",
      "type": "function"
    },
    {
      "constant": false,
      "inputs": [
        {
          "name": "account",
          "type": "address"
        }
      ],
      "name": "addPauser",
      "outputs": [],
      "payable": false,
      "stateMutability": "nonpayable",
      "type": "function"
    },
    {
      "anonymous": false,
      "inputs": [],
      "name": "Paused",
      "type": "event"
    },
    {
      "anonymous": false,
      "inputs": [],
      "name": "Unpaused",
      "type": "event"
    },
    {
      "anonymous": false,
      "inputs": [
        {
          "indexed": true,
          "name": "account",
          "type": "address"
        }
      ],
      "name": "PauserAdded",
      "type": "event"
    },
    {
      "anonymous": false,
      "inputs": [
        {
          "indexed": true,
          "name": "account",
          "type": "address"
        }
      ],
      "name": "PauserRemoved",
      "type": "event"
    },
    {
      "constant": true,
      "inputs": [],
      "name": "paused",
      "outputs": [
        {
          "name": "",
          "type": "bool"
        }
      ],
      "payable": false,
      "stateMutability": "view",
      "type": "function"
    },
    {
      "constant": false,
      "inputs": [],
      "name": "pause",
      "outputs": [],
      "payable": false,
      "stateMutability": "nonpayable",
      "type": "function"
    },
    {
      "constant": false,
      "inputs": [],
      "name": "unpause",
      "outputs": [],
      "payable": false,
      "stateMutability": "nonpayable",
      "type": "function"
    }
  ],
  "bytecode": "0x60806040526001805460ff1916905561002660003364010000000061033661002b82021704565b610065565b600160a060020a038116151561004057600080fd5b600160a060020a0316600090815260209190915260409020805460ff19166001179055565b6103b6806100746000396000f3006080604052600436106100775763ffffffff7c01000000000000000000000000000000000000000000000000000000006000350416633f4ba83a811461007c57806346fbf68e146100935780635c975abb146100d55780636ef8d66d146100ea57806382dc1ec4146100ff5780638456cb591461012d575b600080fd5b34801561008857600080fd5b50610091610142565b005b34801561009f57600080fd5b506100c173ffffffffffffffffffffffffffffffffffffffff6004351661019c565b604080519115158252519081900360200190f35b3480156100e157600080fd5b506100c16101b4565b3480156100f657600080fd5b506100916101bd565b34801561010b57600080fd5b5061009173ffffffffffffffffffffffffffffffffffffffff600435166101d0565b34801561013957600080fd5b50610091610239565b61014b3361019c565b151561015657600080fd5b60015460ff16151561016757600080fd5b6001805460ff191690556040517fa45f47fdea8a1efdd9029a5691c7f759c32b7c698632b563573e155625d1693390600090a1565b60006101ae818363ffffffff61029416565b92915050565b60015460ff1690565b6101ce60003363ffffffff6102e516565b565b6101d93361019c565b15156101e457600080fd5b6101f560008263ffffffff61033616565b60405173ffffffffffffffffffffffffffffffffffffffff8216907f6719d08c1888103bea251a4ed56406bd0c3e69723c8a1686e017e7bbe159b6f890600090a250565b6102423361019c565b151561024d57600080fd5b60015460ff161561025d57600080fd5b6001805460ff1916811790556040517f9e87fac88ff661f02d44f95383c817fece4bce600a3dab7a54406878b965e75290600090a1565b600073ffffffffffffffffffffffffffffffffffffffff821615156102b857600080fd5b5073ffffffffffffffffffffffffffffffffffffffff166000908152602091909152604090205460ff1690565b73ffffffffffffffffffffffffffffffffffffffff8116151561030757600080fd5b73ffffffffffffffffffffffffffffffffffffffff16600090815260209190915260409020805460ff19169055565b73ffffffffffffffffffffffffffffffffffffffff8116151561035857600080fd5b73ffffffffffffffffffffffffffffffffffffffff16600090815260209190915260409020805460ff191660011790555600a165627a7a723058200d246c70aa9d8a44ca32bfe42137ec8c8cfe89fbf0e2dafe2cb0ebcac4f631ac0029",
  "source": "pragma solidity ^0.4.24;\n\nimport \"../access/roles/PauserRole.sol\";\n\n\n/**\n * @title Pausable\n * @dev Base contract which allows children to implement an emergency stop mechanism.\n */\ncontract Pausable is PauserRole {\n  event Paused();\n  event Unpaused();\n\n  bool private _paused = false;\n\n\n  /**\n   * @return true if the contract is paused, false otherwise.\n   */\n  function paused() public view returns(bool) {\n    return _paused;\n  }\n\n  /**\n   * @dev Modifier to make a function callable only when the contract is not paused.\n   */\n  modifier whenNotPaused() {\n    require(!_paused);\n    _;\n  }\n\n  /**\n   * @dev Modifier to make a function callable only when the contract is paused.\n   */\n  modifier whenPaused() {\n    require(_paused);\n    _;\n  }\n\n  /**\n   * @dev called by the owner to pause, triggers stopped state\n   */\n  function pause() public onlyPauser whenNotPaused {\n    _paused = true;\n    emit Paused();\n  }\n\n  /**\n   * @dev called by the owner to unpause, returns to normal state\n   */\n  function unpause() public onlyPauser whenPaused {\n    _paused = false;\n    emit Unpaused();\n  }\n}\n",
  "sourcePath": "openzeppelin-solidity/contracts/lifecycle/Pausable.sol",
  "compiler": {
    "name": "solc",
    "version": "0.4.24+commit.e67f0147.Emscripten.clang"
  },
  "schemaVersion": "2.0.1",
  "updatedAt": "2018-09-28T01:53:28.045Z"
}